{
  "_format": "hh-sol-artifact-1",
  "contractName": "L1GraphTokenGateway",
  "sourceName": "contracts/gateway/L1GraphTokenGateway.sol",
  "abi": [
    {
      "anonymous": false,
      "inputs": [
        {
          "indexed": false,
          "internalType": "address",
          "name": "newAllowlisted",
          "type": "address"
        }
      ],
      "name": "AddedToCallhookAllowlist",
      "type": "event"
    },
    {
      "anonymous": false,
      "inputs": [
        {
          "indexed": false,
          "internalType": "address",
          "name": "inbox",
          "type": "address"
        },
        {
          "indexed": false,
          "internalType": "address",
          "name": "l1Router",
          "type": "address"
        }
      ],
      "name": "ArbitrumAddressesSet",
      "type": "event"
    },
    {
      "anonymous": false,
      "inputs": [
        {
          "indexed": true,
          "internalType": "bytes32",
          "name": "nameHash",
          "type": "bytes32"
        },
        {
          "indexed": false,
          "internalType": "address",
          "name": "contractAddress",
          "type": "address"
        }
      ],
      "name": "ContractSynced",
      "type": "event"
    },
    {
      "anonymous": false,
      "inputs": [
        {
          "indexed": false,
          "internalType": "address",
          "name": "l1Token",
          "type": "address"
        },
        {
          "indexed": true,
          "internalType": "address",
          "name": "from",
          "type": "address"
        },
        {
          "indexed": true,
          "internalType": "address",
          "name": "to",
          "type": "address"
        },
        {
          "indexed": true,
          "internalType": "uint256",
          "name": "sequenceNumber",
          "type": "uint256"
        },
        {
          "indexed": false,
          "internalType": "uint256",
          "name": "amount",
          "type": "uint256"
        }
      ],
      "name": "DepositInitiated",
      "type": "event"
    },
    {
      "anonymous": false,
      "inputs": [
        {
          "indexed": false,
          "internalType": "address",
          "name": "escrow",
          "type": "address"
        }
      ],
      "name": "EscrowAddressSet",
      "type": "event"
    },
    {
      "anonymous": false,
      "inputs": [
        {
          "indexed": false,
          "internalType": "address",
          "name": "l2Counterpart",
          "type": "address"
        }
      ],
      "name": "L2CounterpartAddressSet",
      "type": "event"
    },
    {
      "anonymous": false,
      "inputs": [
        {
          "indexed": false,
          "internalType": "uint256",
          "name": "accumulatedL2MintAllowanceSnapshot",
          "type": "uint256"
        },
        {
          "indexed": false,
          "internalType": "uint256",
          "name": "l2MintAllowancePerBlock",
          "type": "uint256"
        },
        {
          "indexed": false,
          "internalType": "uint256",
          "name": "lastL2MintAllowanceUpdateBlock",
          "type": "uint256"
        }
      ],
      "name": "L2MintAllowanceUpdated",
      "type": "event"
    },
    {
      "anonymous": false,
      "inputs": [
        {
          "indexed": false,
          "internalType": "address",
          "name": "l2GRT",
          "type": "address"
        }
      ],
      "name": "L2TokenAddressSet",
      "type": "event"
    },
    {
      "anonymous": false,
      "inputs": [
        {
          "indexed": true,
          "internalType": "address",
          "name": "oldPauseGuardian",
          "type": "address"
        },
        {
          "indexed": true,
          "internalType": "address",
          "name": "pauseGuardian",
          "type": "address"
        }
      ],
      "name": "NewPauseGuardian",
      "type": "event"
    },
    {
      "anonymous": false,
      "inputs": [
        {
          "indexed": false,
          "internalType": "string",
          "name": "param",
          "type": "string"
        }
      ],
      "name": "ParameterUpdated",
      "type": "event"
    },
    {
      "anonymous": false,
      "inputs": [
        {
          "indexed": false,
          "internalType": "bool",
          "name": "isPaused",
          "type": "bool"
        }
      ],
      "name": "PartialPauseChanged",
      "type": "event"
    },
    {
      "anonymous": false,
      "inputs": [
        {
          "indexed": false,
          "internalType": "bool",
          "name": "isPaused",
          "type": "bool"
        }
      ],
      "name": "PauseChanged",
      "type": "event"
    },
    {
      "anonymous": false,
      "inputs": [
        {
          "indexed": false,
          "internalType": "address",
          "name": "notAllowlisted",
          "type": "address"
        }
      ],
      "name": "RemovedFromCallhookAllowlist",
      "type": "event"
    },
    {
      "anonymous": false,
      "inputs": [
        {
          "indexed": false,
          "internalType": "address",
          "name": "controller",
          "type": "address"
        }
      ],
      "name": "SetController",
      "type": "event"
    },
    {
      "anonymous": false,
      "inputs": [
        {
          "indexed": false,
          "internalType": "uint256",
          "name": "amount",
          "type": "uint256"
        }
      ],
      "name": "TokensMintedFromL2",
      "type": "event"
    },
    {
      "anonymous": false,
      "inputs": [
        {
          "indexed": true,
          "internalType": "address",
          "name": "_from",
          "type": "address"
        },
        {
          "indexed": true,
          "internalType": "address",
          "name": "_to",
          "type": "address"
        },
        {
          "indexed": true,
          "internalType": "uint256",
          "name": "_seqNum",
          "type": "uint256"
        },
        {
          "indexed": false,
          "internalType": "bytes",
          "name": "_data",
          "type": "bytes"
        }
      ],
      "name": "TxToL2",
      "type": "event"
    },
    {
      "anonymous": false,
      "inputs": [
        {
          "indexed": false,
          "internalType": "address",
          "name": "l1Token",
          "type": "address"
        },
        {
          "indexed": true,
          "internalType": "address",
          "name": "from",
          "type": "address"
        },
        {
          "indexed": true,
          "internalType": "address",
          "name": "to",
          "type": "address"
        },
        {
          "indexed": true,
          "internalType": "uint256",
          "name": "exitNum",
          "type": "uint256"
        },
        {
          "indexed": false,
          "internalType": "uint256",
          "name": "amount",
          "type": "uint256"
        }
      ],
      "name": "WithdrawalFinalized",
      "type": "event"
    },
    {
      "inputs": [
        {
          "internalType": "contract IGraphProxy",
          "name": "_proxy",
          "type": "address"
        }
      ],
      "name": "acceptProxy",
      "outputs": [],
      "stateMutability": "nonpayable",
      "type": "function"
    },
    {
      "inputs": [
        {
          "internalType": "contract IGraphProxy",
          "name": "_proxy",
          "type": "address"
        },
        {
          "internalType": "bytes",
          "name": "_data",
          "type": "bytes"
        }
      ],
      "name": "acceptProxyAndCall",
      "outputs": [],
      "stateMutability": "nonpayable",
      "type": "function"
    },
    {
      "inputs": [
        {
          "internalType": "uint256",
          "name": "_blockNum",
          "type": "uint256"
        }
      ],
      "name": "accumulatedL2MintAllowanceAtBlock",
      "outputs": [
        {
          "internalType": "uint256",
          "name": "",
          "type": "uint256"
        }
      ],
      "stateMutability": "view",
      "type": "function"
    },
    {
      "inputs": [],
      "name": "accumulatedL2MintAllowanceSnapshot",
      "outputs": [
        {
          "internalType": "uint256",
          "name": "",
          "type": "uint256"
        }
      ],
      "stateMutability": "view",
      "type": "function"
    },
    {
      "inputs": [
        {
          "internalType": "address",
          "name": "_newAllowlisted",
          "type": "address"
        }
      ],
      "name": "addToCallhookAllowlist",
      "outputs": [],
      "stateMutability": "nonpayable",
      "type": "function"
    },
    {
      "inputs": [
        {
          "internalType": "address",
          "name": "_l1ERC20",
          "type": "address"
        }
      ],
      "name": "calculateL2TokenAddress",
      "outputs": [
        {
          "internalType": "address",
          "name": "",
          "type": "address"
        }
      ],
      "stateMutability": "view",
      "type": "function"
    },
    {
      "inputs": [
        {
          "internalType": "address",
          "name": "",
          "type": "address"
        }
      ],
      "name": "callhookAllowlist",
      "outputs": [
        {
          "internalType": "bool",
          "name": "",
          "type": "bool"
        }
      ],
      "stateMutability": "view",
      "type": "function"
    },
    {
      "inputs": [],
      "name": "controller",
      "outputs": [
        {
          "internalType": "contract IController",
          "name": "",
          "type": "address"
        }
      ],
      "stateMutability": "view",
      "type": "function"
    },
    {
      "inputs": [],
      "name": "counterpartGateway",
      "outputs": [
        {
          "internalType": "address",
          "name": "",
          "type": "address"
        }
      ],
      "stateMutability": "view",
      "type": "function"
    },
    {
      "inputs": [],
      "name": "escrow",
      "outputs": [
        {
          "internalType": "address",
          "name": "",
          "type": "address"
        }
      ],
      "stateMutability": "view",
      "type": "function"
    },
    {
      "inputs": [
        {
          "internalType": "address",
          "name": "_l1Token",
          "type": "address"
        },
        {
          "internalType": "address",
          "name": "_from",
          "type": "address"
        },
        {
          "internalType": "address",
          "name": "_to",
          "type": "address"
        },
        {
          "internalType": "uint256",
          "name": "_amount",
          "type": "uint256"
        },
        {
          "internalType": "bytes",
          "name": "",
          "type": "bytes"
        }
      ],
      "name": "finalizeInboundTransfer",
      "outputs": [],
      "stateMutability": "payable",
      "type": "function"
    },
    {
      "inputs": [
        {
          "internalType": "address",
          "name": "_l1Token",
          "type": "address"
        },
        {
          "internalType": "address",
          "name": "_from",
          "type": "address"
        },
        {
          "internalType": "address",
          "name": "_to",
          "type": "address"
        },
        {
          "internalType": "uint256",
          "name": "_amount",
          "type": "uint256"
        },
        {
          "internalType": "bytes",
          "name": "_data",
          "type": "bytes"
        }
      ],
      "name": "getOutboundCalldata",
      "outputs": [
        {
          "internalType": "bytes",
          "name": "",
          "type": "bytes"
        }
      ],
      "stateMutability": "pure",
      "type": "function"
    },
    {
      "inputs": [],
      "name": "inbox",
      "outputs": [
        {
          "internalType": "address",
          "name": "",
          "type": "address"
        }
      ],
      "stateMutability": "view",
      "type": "function"
    },
    {
      "inputs": [
        {
          "internalType": "address",
          "name": "_controller",
          "type": "address"
        }
      ],
      "name": "initialize",
      "outputs": [],
      "stateMutability": "nonpayable",
      "type": "function"
    },
    {
      "inputs": [],
      "name": "l1Router",
      "outputs": [
        {
          "internalType": "address",
          "name": "",
          "type": "address"
        }
      ],
      "stateMutability": "view",
      "type": "function"
    },
    {
      "inputs": [],
      "name": "l2Counterpart",
      "outputs": [
        {
          "internalType": "address",
          "name": "",
          "type": "address"
        }
      ],
      "stateMutability": "view",
      "type": "function"
    },
    {
      "inputs": [],
      "name": "l2GRT",
      "outputs": [
        {
          "internalType": "address",
          "name": "",
          "type": "address"
        }
      ],
      "stateMutability": "view",
      "type": "function"
    },
    {
      "inputs": [],
      "name": "l2MintAllowancePerBlock",
      "outputs": [
        {
          "internalType": "uint256",
          "name": "",
          "type": "uint256"
        }
      ],
      "stateMutability": "view",
      "type": "function"
    },
    {
      "inputs": [],
      "name": "lastL2MintAllowanceUpdateBlock",
      "outputs": [
        {
          "internalType": "uint256",
          "name": "",
          "type": "uint256"
        }
      ],
      "stateMutability": "view",
      "type": "function"
    },
    {
      "inputs": [],
      "name": "lastPartialPauseTime",
      "outputs": [
        {
          "internalType": "uint256",
          "name": "",
          "type": "uint256"
        }
      ],
      "stateMutability": "view",
      "type": "function"
    },
    {
      "inputs": [],
      "name": "lastPauseTime",
      "outputs": [
        {
          "internalType": "uint256",
          "name": "",
          "type": "uint256"
        }
      ],
      "stateMutability": "view",
      "type": "function"
    },
    {
      "inputs": [
        {
          "internalType": "address",
          "name": "_l1Token",
          "type": "address"
        },
        {
          "internalType": "address",
          "name": "_to",
          "type": "address"
        },
        {
          "internalType": "uint256",
          "name": "_amount",
          "type": "uint256"
        },
        {
          "internalType": "uint256",
          "name": "_maxGas",
          "type": "uint256"
        },
        {
          "internalType": "uint256",
          "name": "_gasPriceBid",
          "type": "uint256"
        },
        {
          "internalType": "bytes",
          "name": "_data",
          "type": "bytes"
        }
      ],
      "name": "outboundTransfer",
      "outputs": [
        {
          "internalType": "bytes",
          "name": "",
          "type": "bytes"
        }
      ],
      "stateMutability": "payable",
      "type": "function"
    },
    {
      "inputs": [],
      "name": "pauseGuardian",
      "outputs": [
        {
          "internalType": "address",
          "name": "",
          "type": "address"
        }
      ],
      "stateMutability": "view",
      "type": "function"
    },
    {
      "inputs": [],
      "name": "paused",
      "outputs": [
        {
          "internalType": "bool",
          "name": "",
          "type": "bool"
        }
      ],
      "stateMutability": "view",
      "type": "function"
    },
    {
      "inputs": [
        {
          "internalType": "address",
          "name": "_notAllowlisted",
          "type": "address"
        }
      ],
      "name": "removeFromCallhookAllowlist",
      "outputs": [],
      "stateMutability": "nonpayable",
      "type": "function"
    },
    {
      "inputs": [
        {
          "internalType": "address",
          "name": "_inbox",
          "type": "address"
        },
        {
          "internalType": "address",
          "name": "_l1Router",
          "type": "address"
        }
      ],
      "name": "setArbitrumAddresses",
      "outputs": [],
      "stateMutability": "nonpayable",
      "type": "function"
    },
    {
      "inputs": [
        {
          "internalType": "address",
          "name": "_controller",
          "type": "address"
        }
      ],
      "name": "setController",
      "outputs": [],
      "stateMutability": "nonpayable",
      "type": "function"
    },
    {
      "inputs": [
        {
          "internalType": "address",
          "name": "_escrow",
          "type": "address"
        }
      ],
      "name": "setEscrowAddress",
      "outputs": [],
      "stateMutability": "nonpayable",
      "type": "function"
    },
    {
      "inputs": [
        {
          "internalType": "address",
          "name": "_l2Counterpart",
          "type": "address"
        }
      ],
      "name": "setL2CounterpartAddress",
      "outputs": [],
      "stateMutability": "nonpayable",
      "type": "function"
    },
    {
      "inputs": [
        {
          "internalType": "uint256",
          "name": "_accumulatedL2MintAllowanceSnapshot",
          "type": "uint256"
        },
        {
          "internalType": "uint256",
          "name": "_l2MintAllowancePerBlock",
          "type": "uint256"
        },
        {
          "internalType": "uint256",
          "name": "_lastL2MintAllowanceUpdateBlock",
          "type": "uint256"
        }
      ],
      "name": "setL2MintAllowanceParametersManual",
      "outputs": [],
      "stateMutability": "nonpayable",
      "type": "function"
    },
    {
      "inputs": [
        {
          "internalType": "address",
          "name": "_l2GRT",
          "type": "address"
        }
      ],
      "name": "setL2TokenAddress",
      "outputs": [],
      "stateMutability": "nonpayable",
      "type": "function"
    },
    {
      "inputs": [
        {
          "internalType": "address",
          "name": "_newPauseGuardian",
          "type": "address"
        }
      ],
      "name": "setPauseGuardian",
      "outputs": [],
      "stateMutability": "nonpayable",
      "type": "function"
    },
    {
      "inputs": [
        {
          "internalType": "bool",
          "name": "_newPaused",
          "type": "bool"
        }
      ],
      "name": "setPaused",
      "outputs": [],
      "stateMutability": "nonpayable",
      "type": "function"
    },
    {
      "inputs": [],
      "name": "syncAllContracts",
      "outputs": [],
      "stateMutability": "nonpayable",
      "type": "function"
    },
    {
      "inputs": [],
      "name": "totalMintedFromL2",
      "outputs": [
        {
          "internalType": "uint256",
          "name": "",
          "type": "uint256"
        }
      ],
      "stateMutability": "view",
      "type": "function"
    },
    {
      "inputs": [
        {
          "internalType": "uint256",
          "name": "_l2IssuancePerBlock",
          "type": "uint256"
        },
        {
          "internalType": "uint256",
          "name": "_updateBlockNum",
          "type": "uint256"
        }
      ],
      "name": "updateL2MintAllowance",
      "outputs": [],
      "stateMutability": "nonpayable",
      "type": "function"
    }
  ],
  "bytecode": "0x6101606040527fe6876326c1291dfcbbd3864a6816d698cd591defc7aa2153d7f9c4c04016c89f6080527fc713c3df6d14cdf946460395d09af88993ee2b948b1a808161494e32c5f6706360a0527f966f1e8d8d8014e05f6ec4a57138da9be1f7c5a7f802928a18072f7c5318076160c0527f1df41cd916959d1163dc8f0671a666ea8a3e434c13e40faef527133b5d16703460e0527f45fc200c7e4544e457d3c5709bfe0d520442c30bbcbdaede89e8d4a4bbc19247610100527fd362cac9cb75c10d67bcc0b7eeb0b1ef48bb5420b556c092d4fd7f758816fcf0610120527f39605a6c26a173774ca666c67ef70cf491880e5d3d6d0ca66ec0a31034f15ea36101405234801561011057600080fd5b5060805160a05160c05160e051610100516101205161014051612fe7610169600039806118f05250806118c752508061189e5280611d5252508061187552508061184c5250806118235250806117fa5250612fe76000f3fe60806040526004361061020f5760003560e01c80638f438f1711610118578063cac60872116100a0578063d6866ea51161006f578063d6866ea514610595578063ddeb63b5146105aa578063e2fdcc17146105ca578063f77c4791146105df578063fb0e722b146105f45761020f565b8063cac608721461052d578063d2ce7d6514610542578063d426f70014610555578063d653b022146105755761020f565b8063a0c76a96116100e7578063a0c76a9614610480578063a2594d82146104ad578063a7e28d48146104cd578063b83d696e146104ed578063c4d66de81461050d5761020f565b80638f438f171461040b57806391b4ded91461042b57806392eefe9b146104405780639ce7abe5146104605761020f565b8063407395e01161019b578063721302631161016a578063721302631461038c57806373aea0ae146103ac5780637fee3d43146103c15780638e7c8efe146103e15780638f3112c5146103f65761020f565b8063407395e01461032057806348bde20c146103355780634c381870146103555780635c975abb1461036a5761020f565b80631c5b7776116101e25780631c5b77761461029657806322ca40a8146102b657806324a3d622146102d65780632db09c1c146102f85780632e567b361461030d5761020f565b8063011e68e31461021457806311dd712914610236578063147ddef51461026157806316c38b3c14610276575b600080fd5b34801561022057600080fd5b5061023461022f3660046124f0565b610609565b005b34801561024257600080fd5b5061024b610696565b6040516102589190612eaa565b60405180910390f35b34801561026d57600080fd5b5061024b61069c565b34801561028257600080fd5b50610234610291366004612732565b6106a2565b3480156102a257600080fd5b5061024b6102b13660046127bd565b61079a565b3480156102c257600080fd5b506102346102d13660046124f0565b6107f3565b3480156102e257600080fd5b506102eb61086c565b60405161025891906128e4565b34801561030457600080fd5b506102eb61087b565b61023461031b3660046125ae565b61088a565b34801561032c57600080fd5b506102eb610c5c565b34801561034157600080fd5b506102346103503660046124f0565b610c6b565b34801561036157600080fd5b506102eb610cd7565b34801561037657600080fd5b5061037f610ce6565b6040516102589190612995565b34801561039857600080fd5b506102346103a736600461288d565b610cf6565b3480156103b857600080fd5b5061024b610d6d565b3480156103cd57600080fd5b506102346103dc36600461286c565b610d73565b3480156103ed57600080fd5b506102eb610e11565b34801561040257600080fd5b5061024b610e20565b34801561041757600080fd5b506102346104263660046124f0565b610e26565b34801561043757600080fd5b5061024b610f33565b34801561044c57600080fd5b5061023461045b3660046124f0565b610f39565b34801561046c57600080fd5b5061023461047b36600461276a565b610f4a565b34801561048c57600080fd5b506104a061049b366004612631565b6110a0565b60405161025891906129a0565b3480156104b957600080fd5b506102346104c83660046124f0565b611100565b3480156104d957600080fd5b506102eb6104e83660046124f0565b61121b565b3480156104f957600080fd5b5061037f6105083660046124f0565b61125e565b34801561051957600080fd5b506102346105283660046124f0565b611273565b34801561053957600080fd5b5061024b611395565b6104a06105503660046126ae565b61139b565b34801561056157600080fd5b506102346105703660046124f0565b611606565b34801561058157600080fd5b50610234610590366004612576565b6116bc565b3480156105a157600080fd5b506102346117f5565b3480156105b657600080fd5b506102346105c53660046124f0565b611916565b3480156105d657600080fd5b506102eb6119b4565b3480156105eb57600080fd5b506102eb6119c3565b34801561060057600080fd5b506102eb6119d2565b6106116119e1565b6001600160a01b0381166106405760405162461bcd60e51b815260040161063790612e52565b60405180910390fd5b604280546001600160a01b0319166001600160a01b0383161790556040517f9a6e2b45041fa2939015ac2bd7e80b890de28d7154ef04b0f52a94fa4e88091d9061068b9083906128e4565b60405180910390a150565b604b5481565b60015481565b6004805460408051634fc07d7560e01b815290516001600160a01b0390921692634fc07d75928282019260209290829003018186803b1580156106e457600080fd5b505afa1580156106f8573d6000803e3d6000fd5b505050506040513d602081101561070e57600080fd5b50516001600160a01b031633148061073057506003546001600160a01b031633145b610781576040805162461bcd60e51b815260206004820152601960248201527f4f6e6c7920476f7665726e6f72206f7220477561726469616e00000000000000604482015290519081900360640190fd5b8061078e5761078e611aab565b61079781611b4b565b50565b6000604a548210156107be5760405162461bcd60e51b815260040161063790612b20565b6107eb6107e26107d9604a5485611bdc90919063ffffffff16565b604b5490611c3e565b60495490611c9e565b90505b919050565b6107fb6119e1565b6001600160a01b0381166108215760405162461bcd60e51b815260040161063790612c6c565b604580546001600160a01b0319166001600160a01b0383161790556040517f75d3e58d9088e31d57a8da4c52196f9d30e8f6fd45543bbe506679e2bef8eaa79061068b9083906128e4565b6003546001600160a01b031681565b6045546001600160a01b031690565b610892611cf8565b6043546001600160a01b03166108ba5760405162461bcd60e51b815260040161063790612af9565b6045546001600160a01b03166108e25760405162461bcd60e51b815260040161063790612e7a565b604354604080516373c6754960e11b815290516000926001600160a01b03169163e78cea92916004808301926020929190829003018186803b15801561092757600080fd5b505afa15801561093b573d6000803e3d6000fd5b505050506040513d601f19601f8201168201806040525081019061095f919061250c565b9050336001600160a01b038216146109895760405162461bcd60e51b815260040161063790612a0c565b6000816001600160a01b031663ab5d89436040518163ffffffff1660e01b815260040160206040518083038186803b1580156109c457600080fd5b505afa1580156109d8573d6000803e3d6000fd5b505050506040513d601f19601f820116820180604052508101906109fc919061250c565b6001600160a01b03166380648b026040518163ffffffff1660e01b815260040160206040518083038186803b158015610a3457600080fd5b505afa158015610a48573d6000803e3d6000fd5b505050506040513d601f19601f82011682018060405250810190610a6c919061250c565b6045549091506001600160a01b03808316911614610a9c5760405162461bcd60e51b815260040161063790612e1b565b6000610aa6611d4b565b9050806001600160a01b0316896001600160a01b031614610ad95760405162461bcd60e51b815260040161063790612dcd565b6046546040516370a0823160e01b81526000916001600160a01b03808516926370a0823192610b0c9216906004016128e4565b60206040518083038186803b158015610b2457600080fd5b505afa158015610b38573d6000803e3d6000fd5b505050506040513d601f19601f82011682018060405250810190610b5c91906127d5565b905080871115610b7857610b78610b738883611bdc565b611d7b565b6046546040516323b872dd60e01b81526001600160a01b03848116926323b872dd92610bae92909116908c908c90600401612958565b602060405180830381600087803b158015610bc857600080fd5b505af1158015610bdc573d6000803e3d6000fd5b505050506040513d601f19601f82011682018060405250810190610c00919061274e565b506000886001600160a01b03168a6001600160a01b03167f891afe029c75c4f8c5855fc3480598bc5a53739344f6ae575bdb7ea2a79f56b38d8b604051610c4892919061297c565b60405180910390a450505050505050505050565b6044546001600160a01b031681565b610c736119e1565b6001600160a01b038116610cce576040805162461bcd60e51b815260206004820152601960248201527f5061757365477561726469616e206d7573742062652073657400000000000000604482015290519081900360640190fd5b61079781611e4c565b6042546001600160a01b031681565b6000546301000000900460ff1690565b610cfe6119e1565b438110610d1d5760405162461bcd60e51b815260040161063790612c09565b6049839055604b829055604a8190556040517fbfdf0135edba030abcdb9dfcdd3856c401a97acac62e96ba34714ae9cff0ebe690610d6090859085908590612eb3565b60405180910390a1505050565b604a5481565b610d7b6119e1565b438110610d9a5760405162461bcd60e51b815260040161063790612c09565b604a548111610dbb5760405162461bcd60e51b815260040161063790612a5e565b610dc48161079a565b6049819055604a829055604b8390556040517fbfdf0135edba030abcdb9dfcdd3856c401a97acac62e96ba34714ae9cff0ebe691610e059185908590612eb3565b60405180910390a15050565b6045546001600160a01b031681565b60485481565b610e2e6119e1565b6001600160a01b038116610e545760405162461bcd60e51b8152600401610637906129b3565b6044546001600160a01b0382811691161415610e825760405162461bcd60e51b815260040161063790612da2565b610e8b81611e9e565b610ea75760405162461bcd60e51b815260040161063790612d19565b6001600160a01b03811660009081526047602052604090205460ff1615610ee05760405162461bcd60e51b815260040161063790612bdc565b6001600160a01b03811660009081526047602052604090819020805460ff19166001179055517ff3b329c349ad69ad25f0137ff68c2eaf5ad22fc53cd7a1cfe40a52b19499c1d29061068b9083906128e4565b60025481565b610f41611ea4565b61079781611f03565b82806001600160a01b031663f851a4406040518163ffffffff1660e01b8152600401602060405180830381600087803b158015610f8657600080fd5b505af1158015610f9a573d6000803e3d6000fd5b505050506040513d6020811015610fb057600080fd5b50516001600160a01b0316331461100e576040805162461bcd60e51b815260206004820152601e60248201527f43616c6c6572206d757374206265207468652070726f78792061646d696e0000604482015290519081900360640190fd5b60405163623faf6160e01b8152602060048201908152602482018490526001600160a01b0386169163623faf619186918691908190604401848480828437600081840152601f19601f8201169050808301925050509350505050600060405180830381600087803b15801561108257600080fd5b505af1158015611096573d6000803e3d6000fd5b5050505050505050565b6060632e567b3660e01b86868686866040516024016110c3959493929190612912565b60408051601f198184030181529190526020810180516001600160e01b03166001600160e01b031990931692909217909152905095945050505050565b80806001600160a01b031663f851a4406040518163ffffffff1660e01b8152600401602060405180830381600087803b15801561113c57600080fd5b505af1158015611150573d6000803e3d6000fd5b505050506040513d602081101561116657600080fd5b50516001600160a01b031633146111c4576040805162461bcd60e51b815260206004820152601e60248201527f43616c6c6572206d757374206265207468652070726f78792061646d696e0000604482015290519081900360640190fd5b816001600160a01b03166359fc20bb6040518163ffffffff1660e01b8152600401600060405180830381600087803b1580156111ff57600080fd5b505af1158015611213573d6000803e3d6000fd5b505050505050565b600080611226611d4b565b9050806001600160a01b0316836001600160a01b03161461124b5760009150506107ee565b50506042546001600160a01b0316919050565b60476020526000908152604090205460ff1681565b61127b611fab565b6001600160a01b0316336001600160a01b0316146112d6576040805162461bcd60e51b815260206004820152601360248201527227b7363c9034b6b83632b6b2b73a30ba34b7b760691b604482015290519081900360640190fd5b600054610100900460ff16806112ef57506112ef611fd0565b806112fd575060005460ff16155b6113385760405162461bcd60e51b815260040180806020018281038252602e815260200180612f63602e913960400191505060405180910390fd5b600054610100900460ff16158015611363576000805460ff1961ff0019909116610100171660011790555b61136c82610f41565b6000805463ff000000191663010000001790558015611391576000805461ff00191690555b5050565b60495481565b60606113a5611cf8565b60006113af611d4b565b9050866113ce5760405162461bcd60e51b815260040161063790612acc565b806001600160a01b0316896001600160a01b0316146113ff5760405162461bcd60e51b815260040161063790612dcd565b6001600160a01b0388166114255760405162461bcd60e51b815260040161063790612c9c565b60008060006060806114378989611fe1565b80519297509094509150158061146157503360009081526047602052604090205460ff1615156001145b61147d5760405162461bcd60e51b815260040161063790612d6b565b8261149a5760405162461bcd60e51b815260040161063790612bb0565b6114a78e868f8f856110a0565b915050600060405180606001604052808481526020018c81526020018b8152509050856001600160a01b03166323b872dd86604660009054906101000a90046001600160a01b03168f6040518463ffffffff1660e01b815260040161150e93929190612958565b602060405180830381600087803b15801561152857600080fd5b505af115801561153c573d6000803e3d6000fd5b505050506040513d601f19601f82011682018060405250810190611560919061274e565b50604354604554611583916001600160a01b03908116911687346000868861207a565b9350505050808a6001600160a01b0316836001600160a01b03167fb8910b9960c443aac3240b98585384e3a6f109fbf6969e264c3f183d69aba7e18e8d6040516115ce92919061297c565b60405180910390a4806040516020016115e79190612eaa565b6040516020818303038152906040529350505050979650505050505050565b61160e6119e1565b6001600160a01b0381166116345760405162461bcd60e51b8152600401610637906129b3565b6001600160a01b03811660009081526047602052604090205460ff1661166c5760405162461bcd60e51b815260040161063790612a35565b6001600160a01b03811660009081526047602052604090819020805460ff19169055517f418f3ae472ec14bb195924385de80a9e9303050c823552568af2adb8388d9d099061068b9083906128e4565b6116c46119e1565b6001600160a01b0382166116ea5760405162461bcd60e51b815260040161063790612df4565b6001600160a01b0381166117105760405162461bcd60e51b815260040161063790612b85565b6001600160a01b03811660009081526047602052604090205460ff16156117495760405162461bcd60e51b815260040161063790612c35565b61175282611e9e565b61176e5760405162461bcd60e51b815260040161063790612b55565b61177781611e9e565b6117935760405162461bcd60e51b815260040161063790612a95565b604380546001600160a01b038085166001600160a01b03199283161790925560448054928416929091169190911790556040517fc5f09bf22bb39edf3e4c5f4fd5c4809125836ddc8a0937099d04f53f31eda23d90610e0590849084906128f8565b61181e7f00000000000000000000000000000000000000000000000000000000000000006120a5565b6118477f00000000000000000000000000000000000000000000000000000000000000006120a5565b6118707f00000000000000000000000000000000000000000000000000000000000000006120a5565b6118997f00000000000000000000000000000000000000000000000000000000000000006120a5565b6118c27f00000000000000000000000000000000000000000000000000000000000000006120a5565b6118eb7f00000000000000000000000000000000000000000000000000000000000000006120a5565b6119147f00000000000000000000000000000000000000000000000000000000000000006120a5565b565b61191e6119e1565b6001600160a01b0381166119445760405162461bcd60e51b815260040161063790612cf1565b61194d81611e9e565b6119695760405162461bcd60e51b815260040161063790612d19565b604680546001600160a01b0319166001600160a01b0383161790556040517f14229a64f0a7328601813f0f794bb1dbc59363f1ed61c2f957d00517e6140e189061068b9083906128e4565b6046546001600160a01b031681565b6004546001600160a01b031681565b6043546001600160a01b031681565b6004805460408051634fc07d7560e01b815290516001600160a01b0390921692634fc07d75928282019260209290829003018186803b158015611a2357600080fd5b505afa158015611a37573d6000803e3d6000fd5b505050506040513d6020811015611a4d57600080fd5b50516001600160a01b03163314611914576040805162461bcd60e51b815260206004820152601860248201527f4f6e6c7920436f6e74726f6c6c657220676f7665726e6f720000000000000000604482015290519081900360640190fd5b6043546001600160a01b0316611ad35760405162461bcd60e51b815260040161063790612af9565b6044546001600160a01b0316611afb5760405162461bcd60e51b815260040161063790612cc9565b6045546001600160a01b0316611b235760405162461bcd60e51b815260040161063790612e7a565b6046546001600160a01b03166119145760405162461bcd60e51b815260040161063790612d43565b600060039054906101000a900460ff1615158115151415611b6b57610797565b6000805463ff000000191663010000008315158102919091179182905560ff91041615611b9757426002555b60005460408051630100000090920460ff1615158252517f8fb6c181ee25a520cf3dd6565006ef91229fcfe5a989566c2a3b8c115570cec5916020908290030190a150565b600082821115611c33576040805162461bcd60e51b815260206004820152601e60248201527f536166654d6174683a207375627472616374696f6e206f766572666c6f770000604482015290519081900360640190fd5b508082035b92915050565b600082611c4d57506000611c38565b82820282848281611c5a57fe5b0414611c975760405162461bcd60e51b8152600401808060200182810382526021815260200180612f916021913960400191505060405180910390fd5b9392505050565b600082820183811015611c97576040805162461bcd60e51b815260206004820152601b60248201527f536166654d6174683a206164646974696f6e206f766572666c6f770000000000604482015290519081900360640190fd5b6000546301000000900460ff1615611914576040805162461bcd60e51b81526020600482015260116024820152705061757365642028636f6e74726163742960781b604482015290519081900360640190fd5b6000611d767f00000000000000000000000000000000000000000000000000000000000000006121a6565b905090565b611d8481612240565b611da05760405162461bcd60e51b8152600401610637906129dc565b604854611dad9082611c9e565b604855611db8611d4b565b6046546040516340c10f1960e01b81526001600160a01b03928316926340c10f1992611deb92911690859060040161297c565b600060405180830381600087803b158015611e0557600080fd5b505af1158015611e19573d6000803e3d6000fd5b505050507f4f8ca17191c10265804777143e4643b72f8a4c63ad6a973e2ed85532194abf828160405161068b9190612eaa565b600380546001600160a01b038381166001600160a01b0319831681179093556040519116919082907f0613b6ee6a04f0d09f390e4d9318894b9f6ac7fd83897cd8d18896ba579c401e90600090a35050565b3b151590565b6004546001600160a01b03163314611914576040805162461bcd60e51b815260206004820152601960248201527f43616c6c6572206d75737420626520436f6e74726f6c6c657200000000000000604482015290519081900360640190fd5b6001600160a01b038116611f57576040805162461bcd60e51b815260206004820152601660248201527510dbdb9d1c9bdb1b195c881b5d5cdd081899481cd95d60521b604482015290519081900360640190fd5b600480546001600160a01b0383166001600160a01b0319909116811790915560408051918252517f4ff638452bbf33c012645d18ae6f05515ff5f2d1dfb0cece8cbf018c60903f709181900360200190a150565b7f360894a13ba1a3210667c828492db98dca3e2076cc3735a920a3ca505d382bbc5490565b6000611fdb30611e9e565b15905090565b60445460009081906060908290819083906001600160a01b03163314156120185761200e87890189612528565b9093509050612055565b33925087878080601f0160208091040260200160405190810160405280939291908181526020018383808284376000920191909152509293505050505b8080602001905181019061206991906127ed565b939650945091925050509250925092565b60006120998888888888886000015189602001518a604001518a612260565b98975050505050505050565b6004805460408051637bb20d2f60e11b8152928301849052516000926001600160a01b039092169163f7641a5e916024808301926020929190829003018186803b1580156120f257600080fd5b505afa158015612106573d6000803e3d6000fd5b505050506040513d602081101561211c57600080fd5b50516000838152600560205260409020549091506001600160a01b038083169116146113915760008281526005602090815260409182902080546001600160a01b0319166001600160a01b0385169081179091558251908152915184927fd0e7a942b1fc38c411c4f53d153ba14fd24542a6a35ebacd9b6afca1a154e20692908290030190a25050565b6000818152600560205260408120546001600160a01b0316806107eb576004805460408051637bb20d2f60e11b8152928301869052516001600160a01b039091169163f7641a5e916024808301926020929190829003018186803b15801561220d57600080fd5b505afa158015612221573d6000803e3d6000fd5b505050506040513d602081101561223757600080fd5b50519392505050565b600061224b4361079a565b6048546122589084611c9e565b111592915050565b6000808a6001600160a01b031663679b6ded898c8a8a8e8f8c8c8c6040518a63ffffffff1660e01b815260040180896001600160a01b03168152602001888152602001878152602001866001600160a01b03168152602001856001600160a01b0316815260200184815260200183815260200180602001828103825283818151815260200191508051906020019080838360005b8381101561230c5781810151838201526020016122f4565b50505050905090810190601f1680156123395780820380516001836020036101000a031916815260200191505b5099505050505050505050506020604051808303818588803b15801561235e57600080fd5b505af1158015612372573d6000803e3d6000fd5b50505050506040513d602081101561238957600080fd5b81019080805190602001909291905050509050808a6001600160a01b03168a6001600160a01b03167fc1d1490cf25c3b40d600dfb27c7680340ed1ab901b7e8f3551280968a3b372b0866040518080602001828103825283818151815260200191508051906020019080838360005b838110156124105781810151838201526020016123f8565b50505050905090810190601f16801561243d5780820380516001836020036101000a031916815260200191505b509250505060405180910390a49a9950505050505050505050565b60008083601f840112612469578182fd5b50813567ffffffffffffffff811115612480578182fd5b60208301915083602082850101111561249857600080fd5b9250929050565b600082601f8301126124af578081fd5b81356124c26124bd82612eed565b612ec9565b8181528460208386010111156124d6578283fd5b816020850160208301379081016020019190915292915050565b600060208284031215612501578081fd5b8135611c9781612f3f565b60006020828403121561251d578081fd5b8151611c9781612f3f565b6000806040838503121561253a578081fd5b823561254581612f3f565b9150602083013567ffffffffffffffff811115612560578182fd5b61256c8582860161249f565b9150509250929050565b60008060408385031215612588578182fd5b823561259381612f3f565b915060208301356125a381612f3f565b809150509250929050565b60008060008060008060a087890312156125c6578182fd5b86356125d181612f3f565b955060208701356125e181612f3f565b945060408701356125f181612f3f565b935060608701359250608087013567ffffffffffffffff811115612613578283fd5b61261f89828a01612458565b979a9699509497509295939492505050565b600080600080600060a08688031215612648578081fd5b853561265381612f3f565b9450602086013561266381612f3f565b9350604086013561267381612f3f565b925060608601359150608086013567ffffffffffffffff811115612695578182fd5b6126a18882890161249f565b9150509295509295909350565b600080600080600080600060c0888a0312156126c8578081fd5b87356126d381612f3f565b965060208801356126e381612f3f565b955060408801359450606088013593506080880135925060a088013567ffffffffffffffff811115612713578182fd5b61271f8a828b01612458565b989b979a50959850939692959293505050565b600060208284031215612743578081fd5b8135611c9781612f54565b60006020828403121561275f578081fd5b8151611c9781612f54565b60008060006040848603121561277e578081fd5b833561278981612f3f565b9250602084013567ffffffffffffffff8111156127a4578182fd5b6127b086828701612458565b9497909650939450505050565b6000602082840312156127ce578081fd5b5035919050565b6000602082840312156127e6578081fd5b5051919050565b600080604083850312156127ff578182fd5b82519150602083015167ffffffffffffffff81111561281c578182fd5b8301601f8101851361282c578182fd5b805161283a6124bd82612eed565b81815286602083850101111561284e578384fd5b61285f826020830160208601612f0f565b8093505050509250929050565b6000806040838503121561287e578182fd5b50508035926020909101359150565b6000806000606084860312156128a1578081fd5b505081359360208301359350604090920135919050565b600081518084526128d0816020860160208601612f0f565b601f01601f19169290920160200192915050565b6001600160a01b0391909116815260200190565b6001600160a01b0392831681529116602082015260400190565b6001600160a01b0386811682528581166020830152841660408201526060810183905260a06080820181905260009061294d908301846128b8565b979650505050505050565b6001600160a01b039384168152919092166020820152604081019190915260600190565b6001600160a01b03929092168252602082015260400190565b901515815260200190565b600060208252611c9760208301846128b8565b6020808252600f908201526e494e56414c49445f4144445245535360881b604082015260600190565b6020808252601690820152751253959053125117d30c97d352539517d05353d5539560521b604082015260600190565b6020808252600f908201526e4e4f545f46524f4d5f42524944474560881b604082015260600190565b6020808252600f908201526e1393d517d0531313d5d31254d51151608a1b604082015260600190565b6020808252601a908201527f424c4f434b5f4d5553545f42455f494e4352454d454e54494e47000000000000604082015260600190565b60208082526017908201527f524f555445525f4d5553545f42455f434f4e5452414354000000000000000000604082015260600190565b6020808252601390820152721253959053125117d6915493d7d05353d55395606a1b604082015260600190565b6020808252600d908201526c12539093d617d393d517d4d155609a1b604082015260600190565b6020808252818101527f494e56414c49445f424c4f434b5f464f525f4d494e545f414c4c4f57414e4345604082015260600190565b60208082526016908201527512539093d617d35554d517d09157d0d3d395149050d560521b604082015260600190565b60208082526011908201527024a72b20a624a22fa618afa927aaaa22a960791b604082015260600190565b6020808252601290820152711393d7d4d550935254d4d253d397d0d3d4d560721b604082015260600190565b6020808252601390820152721053149150511657d0531313d5d31254d51151606a1b604082015260600190565b602080825260129082015271109313d0d2d7d35554d517d09157d41054d560721b604082015260600190565b6020808252601a908201527f524f555445525f43414e545f42455f414c4c4f574c4953544544000000000000604082015260600190565b6020808252601690820152751253959053125117d30c97d0d3d5539511549410549560521b604082015260600190565b60208082526013908201527224a72b20a624a22fa222a9aa24a720aa24a7a760691b604082015260600190565b6020808252600e908201526d1493d555115497d393d517d4d15560921b604082015260600190565b6020808252600e908201526d494e56414c49445f455343524f5760901b604082015260600190565b60208082526010908201526f135554d517d09157d0d3d395149050d560821b604082015260600190565b6020808252600e908201526d1154d0d493d5d7d393d517d4d15560921b604082015260600190565b6020808252601a908201527f43414c4c5f484f4f4b5f444154415f4e4f545f414c4c4f574544000000000000604082015260600190565b60208082526011908201527021a0a72a2fa0a62627abafa927aaaa22a960791b604082015260600190565b6020808252600d908201526c1513d2d15397d393d517d1d495609a1b604082015260600190565b6020808252600d908201526c0929cac82989288be929c849eb609b1b604082015260600190565b60208082526018908201527f4f4e4c595f434f554e544552504152545f474154455741590000000000000000604082015260600190565b6020808252600e908201526d1253959053125117d30c97d1d49560921b604082015260600190565b602080825260169082015275130c97d0d3d5539511549410549517d393d517d4d15560521b604082015260600190565b90815260200190565b9283526020830191909152604082015260600190565b60405181810167ffffffffffffffff81118282101715612ee557fe5b604052919050565b600067ffffffffffffffff821115612f0157fe5b50601f01601f191660200190565b60005b83811015612f2a578181015183820152602001612f12565b83811115612f39576000848401525b50505050565b6001600160a01b038116811461079757600080fd5b801515811461079757600080fdfe496e697469616c697a61626c653a20636f6e747261637420697320616c726561647920696e697469616c697a6564536166654d6174683a206d756c7469706c69636174696f6e206f766572666c6f77a2646970667358221220603159a37dd6d823475d18cc8ebe4dc85f66d7e699df40e549a651d27cc1037c64736f6c63430007060033",
  "linkReferences": {},
  "deployedLinkReferences": {}
}