{
  "_format": "hh-sol-artifact-1",
  "contractName": "L1GraphTokenLockTransferToolBadMock",
  "sourceName": "contracts/tests/L1GraphTokenLockTransferToolBadMock.sol",
  "abi": [
    {
      "inputs": [
        {
          "internalType": "address",
          "name": "",
          "type": "address"
        }
      ],
      "name": "l2WalletAddress",
      "outputs": [
        {
          "internalType": "address",
          "name": "",
          "type": "address"
        }
      ],
      "stateMutability": "view",
      "type": "function"
    },
    {
      "inputs": [
        {
          "internalType": "address",
          "name": "_l1Wallet",
          "type": "address"
        },
        {
          "internalType": "uint256",
          "name": "_amount",
          "type": "uint256"
        }
      ],
      "name": "pullETH",
      "outputs": [],
      "stateMutability": "nonpayable",
      "type": "function"
    },
    {
      "inputs": [
        {
          "internalType": "address",
          "name": "_l1Address",
          "type": "address"
        },
        {
          "internalType": "address",
          "name": "_l2Address",
          "type": "address"
        }
      ],
      "name": "setL2WalletAddress",
      "outputs": [],
      "stateMutability": "nonpayable",
      "type": "function"
    }
  ],
  "bytecode": "0x608060405234801561001057600080fd5b5061032d806100206000396000f3fe608060405234801561001057600080fd5b50600436106100415760003560e01c80634a830de5146100465780638f8295f71461005b578063e7db83091461006e575b600080fd5b6100596100543660046101e1565b610097565b005b610059610069366004610213565b6100c5565b61008161007c3660046101c0565b610189565b60405161008e919061023f565b60405180910390f35b6001600160a01b03918216600090815260208190526040902080546001600160a01b03191691909216179055565b6001600160a01b03828116600090815260208190526040902054166101055760405162461bcd60e51b81526004016100fc906102a4565b60405180910390fd5b6000336001600160a01b0316600183036040516101219061023c565b60006040518083038185875af1925050503d806000811461015e576040519150601f19603f3d011682016040523d82523d6000602084013e610163565b606091505b50509050806101845760405162461bcd60e51b81526004016100fc90610253565b505050565b6000602081905290815260409020546001600160a01b031681565b80356001600160a01b03811681146101bb57600080fd5b919050565b6000602082840312156101d1578081fd5b6101da826101a4565b9392505050565b600080604083850312156101f3578081fd5b6101fc836101a4565b915061020a602084016101a4565b90509250929050565b60008060408385031215610225578182fd5b61022e836101a4565b946020939093013593505050565b90565b6001600160a01b0391909116815260200190565b60208082526031908201527f4c314772617068546f6b656e4c6f636b5472616e73666572546f6f6c4d6f636b6040820152700e88115512081c1d5b1b0819985a5b1959607a1b606082015260800190565b60208082526033908201527f4c314772617068546f6b656e4c6f636b5472616e73666572546f6f6c4d6f636b6040820152720e881d5b9adb9bdddb88130c481dd85b1b195d606a1b60608201526080019056fea26469706673582212207ac95f7c330a42b53304d96a2712bdc93b2c44734b824bf01495df2ccf55023364736f6c63430007060033",
  "linkReferences": {},
  "deployedLinkReferences": {}
}