{
  "_format": "hh-sol-artifact-1",
  "contractName": "Curation",
  "sourceName": "contracts/curation/Curation.sol",
  "abi": [
    {
      "anonymous": false,
      "inputs": [
        {
          "indexed": true,
          "internalType": "address",
          "name": "curator",
          "type": "address"
        },
        {
          "indexed": true,
          "internalType": "bytes32",
          "name": "subgraphDeploymentID",
          "type": "bytes32"
        },
        {
          "indexed": false,
          "internalType": "uint256",
          "name": "tokens",
          "type": "uint256"
        },
        {
          "indexed": false,
          "internalType": "uint256",
          "name": "signal",
          "type": "uint256"
        }
      ],
      "name": "Burned",
      "type": "event"
    },
    {
      "anonymous": false,
      "inputs": [
        {
          "indexed": true,
          "internalType": "bytes32",
          "name": "subgraphDeploymentID",
          "type": "bytes32"
        },
        {
          "indexed": false,
          "internalType": "uint256",
          "name": "tokens",
          "type": "uint256"
        }
      ],
      "name": "Collected",
      "type": "event"
    },
    {
      "anonymous": false,
      "inputs": [
        {
          "indexed": true,
          "internalType": "bytes32",
          "name": "nameHash",
          "type": "bytes32"
        },
        {
          "indexed": false,
          "internalType": "address",
          "name": "contractAddress",
          "type": "address"
        }
      ],
      "name": "ContractSynced",
      "type": "event"
    },
    {
      "anonymous": false,
      "inputs": [
        {
          "indexed": false,
          "internalType": "string",
          "name": "param",
          "type": "string"
        }
      ],
      "name": "ParameterUpdated",
      "type": "event"
    },
    {
      "anonymous": false,
      "inputs": [
        {
          "indexed": false,
          "internalType": "address",
          "name": "controller",
          "type": "address"
        }
      ],
      "name": "SetController",
      "type": "event"
    },
    {
      "anonymous": false,
      "inputs": [
        {
          "indexed": true,
          "internalType": "address",
          "name": "curator",
          "type": "address"
        },
        {
          "indexed": true,
          "internalType": "bytes32",
          "name": "subgraphDeploymentID",
          "type": "bytes32"
        },
        {
          "indexed": false,
          "internalType": "uint256",
          "name": "tokens",
          "type": "uint256"
        },
        {
          "indexed": false,
          "internalType": "uint256",
          "name": "signal",
          "type": "uint256"
        },
        {
          "indexed": false,
          "internalType": "uint256",
          "name": "curationTax",
          "type": "uint256"
        }
      ],
      "name": "Signalled",
      "type": "event"
    },
    {
      "inputs": [
        {
          "internalType": "contract IGraphProxy",
          "name": "_proxy",
          "type": "address"
        }
      ],
      "name": "acceptProxy",
      "outputs": [],
      "stateMutability": "nonpayable",
      "type": "function"
    },
    {
      "inputs": [
        {
          "internalType": "contract IGraphProxy",
          "name": "_proxy",
          "type": "address"
        },
        {
          "internalType": "bytes",
          "name": "_data",
          "type": "bytes"
        }
      ],
      "name": "acceptProxyAndCall",
      "outputs": [],
      "stateMutability": "nonpayable",
      "type": "function"
    },
    {
      "inputs": [],
      "name": "bondingCurve",
      "outputs": [
        {
          "internalType": "address",
          "name": "",
          "type": "address"
        }
      ],
      "stateMutability": "view",
      "type": "function"
    },
    {
      "inputs": [
        {
          "internalType": "bytes32",
          "name": "_subgraphDeploymentID",
          "type": "bytes32"
        },
        {
          "internalType": "uint256",
          "name": "_signalIn",
          "type": "uint256"
        },
        {
          "internalType": "uint256",
          "name": "_tokensOutMin",
          "type": "uint256"
        }
      ],
      "name": "burn",
      "outputs": [
        {
          "internalType": "uint256",
          "name": "",
          "type": "uint256"
        }
      ],
      "stateMutability": "nonpayable",
      "type": "function"
    },
    {
      "inputs": [
        {
          "internalType": "bytes32",
          "name": "_subgraphDeploymentID",
          "type": "bytes32"
        },
        {
          "internalType": "uint256",
          "name": "_tokens",
          "type": "uint256"
        }
      ],
      "name": "collect",
      "outputs": [],
      "stateMutability": "nonpayable",
      "type": "function"
    },
    {
      "inputs": [],
      "name": "controller",
      "outputs": [
        {
          "internalType": "contract IController",
          "name": "",
          "type": "address"
        }
      ],
      "stateMutability": "view",
      "type": "function"
    },
    {
      "inputs": [],
      "name": "curationTaxPercentage",
      "outputs": [
        {
          "internalType": "uint32",
          "name": "",
          "type": "uint32"
        }
      ],
      "stateMutability": "view",
      "type": "function"
    },
    {
      "inputs": [],
      "name": "curationTokenMaster",
      "outputs": [
        {
          "internalType": "address",
          "name": "",
          "type": "address"
        }
      ],
      "stateMutability": "view",
      "type": "function"
    },
    {
      "inputs": [],
      "name": "defaultReserveRatio",
      "outputs": [
        {
          "internalType": "uint32",
          "name": "",
          "type": "uint32"
        }
      ],
      "stateMutability": "view",
      "type": "function"
    },
    {
      "inputs": [
        {
          "internalType": "bytes32",
          "name": "_subgraphDeploymentID",
          "type": "bytes32"
        }
      ],
      "name": "getCurationPoolSignal",
      "outputs": [
        {
          "internalType": "uint256",
          "name": "",
          "type": "uint256"
        }
      ],
      "stateMutability": "view",
      "type": "function"
    },
    {
      "inputs": [
        {
          "internalType": "bytes32",
          "name": "_subgraphDeploymentID",
          "type": "bytes32"
        }
      ],
      "name": "getCurationPoolTokens",
      "outputs": [
        {
          "internalType": "uint256",
          "name": "",
          "type": "uint256"
        }
      ],
      "stateMutability": "view",
      "type": "function"
    },
    {
      "inputs": [
        {
          "internalType": "address",
          "name": "_curator",
          "type": "address"
        },
        {
          "internalType": "bytes32",
          "name": "_subgraphDeploymentID",
          "type": "bytes32"
        }
      ],
      "name": "getCuratorSignal",
      "outputs": [
        {
          "internalType": "uint256",
          "name": "",
          "type": "uint256"
        }
      ],
      "stateMutability": "view",
      "type": "function"
    },
    {
      "inputs": [
        {
          "internalType": "address",
          "name": "_controller",
          "type": "address"
        },
        {
          "internalType": "address",
          "name": "_bondingCurve",
          "type": "address"
        },
        {
          "internalType": "address",
          "name": "_curationTokenMaster",
          "type": "address"
        },
        {
          "internalType": "uint32",
          "name": "_defaultReserveRatio",
          "type": "uint32"
        },
        {
          "internalType": "uint32",
          "name": "_curationTaxPercentage",
          "type": "uint32"
        },
        {
          "internalType": "uint256",
          "name": "_minimumCurationDeposit",
          "type": "uint256"
        }
      ],
      "name": "initialize",
      "outputs": [],
      "stateMutability": "nonpayable",
      "type": "function"
    },
    {
      "inputs": [
        {
          "internalType": "bytes32",
          "name": "_subgraphDeploymentID",
          "type": "bytes32"
        }
      ],
      "name": "isCurated",
      "outputs": [
        {
          "internalType": "bool",
          "name": "",
          "type": "bool"
        }
      ],
      "stateMutability": "view",
      "type": "function"
    },
    {
      "inputs": [],
      "name": "minimumCurationDeposit",
      "outputs": [
        {
          "internalType": "uint256",
          "name": "",
          "type": "uint256"
        }
      ],
      "stateMutability": "view",
      "type": "function"
    },
    {
      "inputs": [
        {
          "internalType": "bytes32",
          "name": "_subgraphDeploymentID",
          "type": "bytes32"
        },
        {
          "internalType": "uint256",
          "name": "_tokensIn",
          "type": "uint256"
        },
        {
          "internalType": "uint256",
          "name": "_signalOutMin",
          "type": "uint256"
        }
      ],
      "name": "mint",
      "outputs": [
        {
          "internalType": "uint256",
          "name": "",
          "type": "uint256"
        },
        {
          "internalType": "uint256",
          "name": "",
          "type": "uint256"
        }
      ],
      "stateMutability": "nonpayable",
      "type": "function"
    },
    {
      "inputs": [
        {
          "internalType": "bytes32",
          "name": "",
          "type": "bytes32"
        }
      ],
      "name": "pools",
      "outputs": [
        {
          "internalType": "uint256",
          "name": "tokens",
          "type": "uint256"
        },
        {
          "internalType": "uint32",
          "name": "reserveRatio",
          "type": "uint32"
        },
        {
          "internalType": "contract IGraphCurationToken",
          "name": "gcs",
          "type": "address"
        }
      ],
      "stateMutability": "view",
      "type": "function"
    },
    {
      "inputs": [
        {
          "internalType": "address",
          "name": "_controller",
          "type": "address"
        }
      ],
      "name": "setController",
      "outputs": [],
      "stateMutability": "nonpayable",
      "type": "function"
    },
    {
      "inputs": [
        {
          "internalType": "uint32",
          "name": "_percentage",
          "type": "uint32"
        }
      ],
      "name": "setCurationTaxPercentage",
      "outputs": [],
      "stateMutability": "nonpayable",
      "type": "function"
    },
    {
      "inputs": [
        {
          "internalType": "address",
          "name": "_curationTokenMaster",
          "type": "address"
        }
      ],
      "name": "setCurationTokenMaster",
      "outputs": [],
      "stateMutability": "nonpayable",
      "type": "function"
    },
    {
      "inputs": [
        {
          "internalType": "uint32",
          "name": "_defaultReserveRatio",
          "type": "uint32"
        }
      ],
      "name": "setDefaultReserveRatio",
      "outputs": [],
      "stateMutability": "nonpayable",
      "type": "function"
    },
    {
      "inputs": [
        {
          "internalType": "uint256",
          "name": "_minimumCurationDeposit",
          "type": "uint256"
        }
      ],
      "name": "setMinimumCurationDeposit",
      "outputs": [],
      "stateMutability": "nonpayable",
      "type": "function"
    },
    {
      "inputs": [
        {
          "internalType": "bytes32",
          "name": "_subgraphDeploymentID",
          "type": "bytes32"
        },
        {
          "internalType": "uint256",
          "name": "_signalIn",
          "type": "uint256"
        }
      ],
      "name": "signalToTokens",
      "outputs": [
        {
          "internalType": "uint256",
          "name": "",
          "type": "uint256"
        }
      ],
      "stateMutability": "view",
      "type": "function"
    },
    {
      "inputs": [],
      "name": "syncAllContracts",
      "outputs": [],
      "stateMutability": "nonpayable",
      "type": "function"
    },
    {
      "inputs": [
        {
          "internalType": "bytes32",
          "name": "_subgraphDeploymentID",
          "type": "bytes32"
        },
        {
          "internalType": "uint256",
          "name": "_tokensIn",
          "type": "uint256"
        }
      ],
      "name": "tokensToSignal",
      "outputs": [
        {
          "internalType": "uint256",
          "name": "",
          "type": "uint256"
        },
        {
          "internalType": "uint256",
          "name": "",
          "type": "uint256"
        }
      ],
      "stateMutability": "view",
      "type": "function"
    }
  ],
  "bytecode": "0x6101606040527fe6876326c1291dfcbbd3864a6816d698cd591defc7aa2153d7f9c4c04016c89f6080527fc713c3df6d14cdf946460395d09af88993ee2b948b1a808161494e32c5f6706360a0527f966f1e8d8d8014e05f6ec4a57138da9be1f7c5a7f802928a18072f7c5318076160c0527f1df41cd916959d1163dc8f0671a666ea8a3e434c13e40faef527133b5d16703460e0527f45fc200c7e4544e457d3c5709bfe0d520442c30bbcbdaede89e8d4a4bbc19247610100527fd362cac9cb75c10d67bcc0b7eeb0b1ef48bb5420b556c092d4fd7f758816fcf0610120527f39605a6c26a173774ca666c67ef70cf491880e5d3d6d0ca66ec0a31034f15ea36101405234801561011057600080fd5b5060805160a05160c05160e0516101005161012051610140516126b561017360003980610ec9525080610ea0525080610e775280611367525080610e4e528061171c525080610e255280611d82525080610dfc525080610dd352506126b56000f3fe608060405234801561001057600080fd5b50600436106101735760003560e01c80639f94c667116100de578063d6866ea511610097578063eff1d50e11610071578063eff1d50e14610337578063f049b9001461033f578063f115c42714610352578063f77c47911461035a57610173565b8063d6866ea514610307578063eba0c8a11461030f578063ebfdb70e1461032457610173565b80639f94c66714610284578063a2594d8214610297578063a25e62c7146102aa578063b5217bb4146102bf578063cd0ad4a2146102e1578063cd18119e146102f457610173565b80636536fe32116101305780636536fe3214610210578063815732881461022557806392eefe9b1461023857806399439fee1461024b5780639b4d9f331461025e5780639ce7abe51461027157610173565b80630faaf87f14610178578063185360f9146101a157806324bdeec7146101a9578063375a54ab146101bc57806346e855da146101dd5780634c4ea0ed146101f0575b600080fd5b61018b610186366004611f29565b610362565b604051610198919061205f565b60405180910390f35b61018b610490565b61018b6101b7366004611f4a565b610496565b6101cf6101ca366004611f4a565b610627565b604051610198929190612580565b61018b6101eb366004611f11565b610881565b6102036101fe366004611f11565b610896565b6040516101989190612054565b61022361021e366004611f11565b6108aa565b005b610223610233366004611f29565b6108be565b610223610246366004611e58565b610976565b61018b610259366004611f11565b610987565b61022361026c366004611e58565b610a2f565b61022361027f366004611f75565b610a40565b61018b610292366004611ee6565b610b96565b6102236102a5366004611e58565b610c4a565b6102b2610d65565b6040516101989190612027565b6102d26102cd366004611f11565b610d7b565b604051610198939291906125c5565b6102236102ef36600461200d565b610dac565b61022361030236600461200d565b610dbd565b610223610dce565b610317610eef565b60405161019891906125ea565b610223610332366004611e74565b610f02565b6102b261107b565b6101cf61034d366004611f29565b61108a565b6103176110db565b6102b26110e7565b6000828152600f6020908152604080832081516060810183528154815260019091015463ffffffff811693820193909352600160201b9092046001600160a01b031690820152816103b285610987565b82519091506103dc5760405162461bcd60e51b81526004016103d3906122d9565b60405180910390fd5b838110156103fc5760405162461bcd60e51b81526004016103d390612241565b600e54825160208401516040516349f9b0f760e01b81526001600160a01b03909316926349f9b0f7926104359286928a906004016125a4565b60206040518083038186803b15801561044d57600080fd5b505afa158015610461573d6000803e3d6000fd5b505050506040513d601f19601f820116820180604052508101906104859190611ff5565b925050505b92915050565b600d5481565b60006104a06110f6565b33836104be5760405162461bcd60e51b81526004016103d390612068565b836104c98287610b96565b10156104e75760405162461bcd60e51b81526004016103d3906121fd565b60006104f38686610362565b9050838110156105155760405162461bcd60e51b81526004016103d39061214d565b61051e86611264565b6000868152600f6020526040902080546105389083611303565b8155600181015460405163079cc67960e41b8152600160201b9091046001600160a01b0316906379cc6790906105749086908a9060040161203b565b600060405180830381600087803b15801561058e57600080fd5b505af11580156105a2573d6000803e3d6000fd5b505050506105af87610987565b6105c7576000815560018101805463ffffffff191690555b6105d96105d2611360565b8484611390565b86836001600160a01b03167fe14cd5e80f6821ded0538e85a537487acf10bb5e97a12176df56a099e90bfb348489604051610615929190612580565b60405180910390a35095945050505050565b6000806106326110f6565b8361064f5760405162461bcd60e51b81526004016103d3906124bf565b60008061065c878761108a565b91509150848210156106805760405162461bcd60e51b81526004016103d39061214d565b6000878152600f60205260409020339061069989610896565b61077e57600c5460018201805463ffffffff191663ffffffff600160201b93849004161790819055046001600160a01b031661077e57600c546000906106ee90600160401b90046001600160a01b0316611456565b60405163189acdbd60e31b81529091506001600160a01b0382169063c4d66de89061071d903090600401612027565b600060405180830381600087803b15801561073757600080fd5b505af115801561074b573d6000803e3d6000fd5b5050506001830180546001600160a01b03909316600160201b02640100000000600160c01b031990931692909217909155505b61078789611264565b6000610791611360565b905061079e81848b6114f3565b6107a88185611552565b6107bd6107b58a86611303565b83549061159e565b825560018201546040516340c10f1960e01b8152600160201b9091046001600160a01b0316906340c10f19906107f9908690899060040161203b565b600060405180830381600087803b15801561081357600080fd5b505af1158015610827573d6000803e3d6000fd5b5050505089836001600160a01b03167fb7bf5f4e5b23ef992df9875ecea572620d18dab0c1a5486a9b695d20d9ec50cf8b88886040516108699392919061258e565b60405180910390a35092989197509095505050505050565b6000818152600f60205260409020545b919050565b6000908152600f6020526040902054151590565b6108b26115f8565b6108bb816116cc565b50565b6108c6611715565b6001600160a01b0316336001600160a01b0316146108f65760405162461bcd60e51b81526004016103d39061247c565b6108ff82610896565b61091b5760405162461bcd60e51b81526004016103d3906121aa565b6000828152600f602052604090208054610935908361159e565b815560405183907ff17fdee613a92b35db6b7598eb43750b24d4072eb304e6eca80121e40402e34b9061096990859061205f565b60405180910390a2505050565b61097e611740565b6108bb8161179f565b6000818152600f6020526040812060010154600160201b90046001600160a01b03168015610a2557806001600160a01b03166318160ddd6040518163ffffffff1660e01b815260040160206040518083038186803b1580156109e857600080fd5b505afa1580156109fc573d6000803e3d6000fd5b505050506040513d601f19601f82011682018060405250810190610a209190611ff5565b610a28565b60005b9392505050565b610a376115f8565b6108bb81611847565b82806001600160a01b031663f851a4406040518163ffffffff1660e01b8152600401602060405180830381600087803b158015610a7c57600080fd5b505af1158015610a90573d6000803e3d6000fd5b505050506040513d6020811015610aa657600080fd5b50516001600160a01b03163314610b04576040805162461bcd60e51b815260206004820152601e60248201527f43616c6c6572206d757374206265207468652070726f78792061646d696e0000604482015290519081900360640190fd5b60405163623faf6160e01b8152602060048201908152602482018490526001600160a01b0386169163623faf619186918691908190604401848480828437600081840152601f19601f8201169050808301925050509350505050600060405180830381600087803b158015610b7857600080fd5b505af1158015610b8c573d6000803e3d6000fd5b5050505050505050565b6000818152600f6020526040812060010154600160201b90046001600160a01b03168015610c3f576040516370a0823160e01b81526001600160a01b038216906370a0823190610bea908790600401612027565b60206040518083038186803b158015610c0257600080fd5b505afa158015610c16573d6000803e3d6000fd5b505050506040513d601f19601f82011682018060405250810190610c3a9190611ff5565b610c42565b60005b949350505050565b80806001600160a01b031663f851a4406040518163ffffffff1660e01b8152600401602060405180830381600087803b158015610c8657600080fd5b505af1158015610c9a573d6000803e3d6000fd5b505050506040513d6020811015610cb057600080fd5b50516001600160a01b03163314610d0e576040805162461bcd60e51b815260206004820152601e60248201527f43616c6c6572206d757374206265207468652070726f78792061646d696e0000604482015290519081900360640190fd5b816001600160a01b03166359fc20bb6040518163ffffffff1660e01b8152600401600060405180830381600087803b158015610d4957600080fd5b505af1158015610d5d573d6000803e3d6000fd5b505050505050565b600c54600160401b90046001600160a01b031681565b600f602052600090815260409020805460019091015463ffffffff811690600160201b90046001600160a01b031683565b610db46115f8565b6108bb816118d7565b610dc56115f8565b6108bb8161195e565b610df77f00000000000000000000000000000000000000000000000000000000000000006119b8565b610e207f00000000000000000000000000000000000000000000000000000000000000006119b8565b610e497f00000000000000000000000000000000000000000000000000000000000000006119b8565b610e727f00000000000000000000000000000000000000000000000000000000000000006119b8565b610e9b7f00000000000000000000000000000000000000000000000000000000000000006119b8565b610ec47f00000000000000000000000000000000000000000000000000000000000000006119b8565b610eed7f00000000000000000000000000000000000000000000000000000000000000006119b8565b565b600c54600160201b900463ffffffff1681565b610f0a611ab9565b6001600160a01b0316336001600160a01b031614610f65576040805162461bcd60e51b815260206004820152601360248201527227b7363c9034b6b83632b6b2b73a30ba34b7b760691b604482015290519081900360640190fd5b601054610100900460ff1680610f7e5750610f7e611ade565b80610f8c575060105460ff16155b610fc75760405162461bcd60e51b815260040180806020018281038252602e815260200180612631602e913960400191505060405180910390fd5b601054610100900460ff16158015610ff2576010805460ff1961ff0019909116610100171660011790555b610ffb8761097e565b6001600160a01b0386166110215760405162461bcd60e51b81526004016103d39061237a565b600e80546001600160a01b0319166001600160a01b038816179055611045846118d7565b61104e8361195e565b611057826116cc565b61106085611847565b8015611072576010805461ff00191690555b50505050505050565b600e546001600160a01b031681565b600c54600090819081906110b890620f4240906110b290879063ffffffff90811690611aef16565b90611b48565b905060006110cf866110ca8785611303565b611baf565b96919550909350505050565b600c5463ffffffff1681565b6000546001600160a01b031681565b60008054906101000a90046001600160a01b03166001600160a01b0316635c975abb6040518163ffffffff1660e01b815260040160206040518083038186803b15801561114257600080fd5b505afa158015611156573d6000803e3d6000fd5b505050506040513d602081101561116c57600080fd5b5051156111a9576040805162461bcd60e51b815260206004820152600660248201526514185d5cd95960d21b604482015290519081900360640190fd5b60008054906101000a90046001600160a01b03166001600160a01b0316632e292fc76040518163ffffffff1660e01b815260040160206040518083038186803b1580156111f557600080fd5b505afa158015611209573d6000803e3d6000fd5b505050506040513d602081101561121f57600080fd5b505115610eed576040805162461bcd60e51b815260206004820152600e60248201526d14185c9d1a585b0b5c185d5cd95960921b604482015290519081900360640190fd5b600061126e611d7b565b90506001600160a01b038116156112ff576040516307470bfb60e21b81526001600160a01b03821690631d1c2fec906112ab90859060040161205f565b602060405180830381600087803b1580156112c557600080fd5b505af11580156112d9573d6000803e3d6000fd5b505050506040513d601f19601f820116820180604052508101906112fd9190611ff5565b505b5050565b60008282111561135a576040805162461bcd60e51b815260206004820152601e60248201527f536166654d6174683a207375627472616374696f6e206f766572666c6f770000604482015290519081900360640190fd5b50900390565b600061138b7f0000000000000000000000000000000000000000000000000000000000000000611da2565b905090565b80156112fd57826001600160a01b031663a9059cbb83836040518363ffffffff1660e01b815260040180836001600160a01b0316815260200182815260200192505050602060405180830381600087803b1580156113ed57600080fd5b505af1158015611401573d6000803e3d6000fd5b505050506040513d602081101561141757600080fd5b50516112fd576040805162461bcd60e51b815260206004820152600960248201526810ba3930b739b332b960b91b604482015290519081900360640190fd5b6000604051733d602d80600a3d3981f3363d3d373d3d3d363d7360601b81528260601b60148201526e5af43d82803e903d91602b57fd5bf360881b60288201526037816000f09150506001600160a01b038116610891576040805162461bcd60e51b8152602060048201526016602482015275115490cc4c4d8dce8818dc99585d194819985a5b195960521b604482015290519081900360640190fd5b80156112fd57604080516323b872dd60e01b81526001600160a01b038481166004830152306024830152604482018490529151918516916323b872dd916064808201926020929091908290030181600087803b1580156113ed57600080fd5b80156112ff57816001600160a01b03166342966c68826040518263ffffffff1660e01b815260040180828152602001915050600060405180830381600087803b158015610d4957600080fd5b600082820183811015610a28576040805162461bcd60e51b815260206004820152601b60248201527f536166654d6174683a206164646974696f6e206f766572666c6f770000000000604482015290519081900360640190fd5b60008054906101000a90046001600160a01b03166001600160a01b0316634fc07d756040518163ffffffff1660e01b815260040160206040518083038186803b15801561164457600080fd5b505afa158015611658573d6000803e3d6000fd5b505050506040513d602081101561166e57600080fd5b50516001600160a01b03163314610eed576040805162461bcd60e51b815260206004820152601860248201527f4f6e6c7920436f6e74726f6c6c657220676f7665726e6f720000000000000000604482015290519081900360640190fd5b806116e95760405162461bcd60e51b81526004016103d390612336565b600d8190556040516000805160206126118339815191529061170a9061217a565b60405180910390a150565b600061138b7f0000000000000000000000000000000000000000000000000000000000000000611da2565b6000546001600160a01b03163314610eed576040805162461bcd60e51b815260206004820152601960248201527f43616c6c6572206d75737420626520436f6e74726f6c6c657200000000000000604482015290519081900360640190fd5b6001600160a01b0381166117f3576040805162461bcd60e51b815260206004820152601660248201527510dbdb9d1c9bdb1b195c881b5d5cdd081899481cd95d60521b604482015290519081900360640190fd5b600080546001600160a01b0383166001600160a01b0319909116811790915560408051918252517f4ff638452bbf33c012645d18ae6f05515ff5f2d1dfb0cece8cbf018c60903f709181900360200190a150565b6001600160a01b03811661186d5760405162461bcd60e51b81526004016103d39061209f565b61187681611e3e565b6118925760405162461bcd60e51b81526004016103d390612445565b600c805468010000000000000000600160e01b031916600160401b6001600160a01b038416021790556040516000805160206126118339815191529061170a90612553565b63ffffffff81166118fa5760405162461bcd60e51b81526004016103d3906123b1565b620f424063ffffffff821611156119235760405162461bcd60e51b81526004016103d3906123f2565b600c805467ffffffff000000001916600160201b63ffffffff8416021790556040516000805160206126118339815191529061170a90612120565b620f424063ffffffff821611156119875760405162461bcd60e51b81526004016103d3906124f6565b600c805463ffffffff191663ffffffff83161790556040516000805160206126118339815191529061170a906122aa565b6000805460408051637bb20d2f60e11b81526004810185905290516001600160a01b039092169163f7641a5e91602480820192602092909190829003018186803b158015611a0557600080fd5b505afa158015611a19573d6000803e3d6000fd5b505050506040513d6020811015611a2f57600080fd5b50516000838152600160205260409020549091506001600160a01b038083169116146112ff5760008281526001602090815260409182902080546001600160a01b0319166001600160a01b0385169081179091558251908152915184927fd0e7a942b1fc38c411c4f53d153ba14fd24542a6a35ebacd9b6afca1a154e20692908290030190a25050565b7f360894a13ba1a3210667c828492db98dca3e2076cc3735a920a3ca505d382bbc5490565b6000611ae930611e3e565b15905090565b600082611afe5750600061048a565b82820282848281611b0b57fe5b0414610a285760405162461bcd60e51b815260040180806020018281038252602181526020018061265f6021913960400191505060405180910390fd5b6000808211611b9e576040805162461bcd60e51b815260206004820152601a60248201527f536166654d6174683a206469766973696f6e206279207a65726f000000000000604482015290519081900360640190fd5b818381611ba757fe5b049392505050565b6000828152600f602090815260408083208151606081018352815480825260019092015463ffffffff811694820194909452600160201b9093046001600160a01b031691830191909152611ce557600d54831015611c1f5760405162461bcd60e51b81526004016103d3906120d6565b600e54600d54600c54611cdd92670de0b6b3a7640000926001600160a01b03909116916329a00e7c91849163ffffffff600160201b909104811690611c68908b90849061130316565b6040518563ffffffff1660e01b8152600401611c8794939291906125a4565b60206040518083038186803b158015611c9f57600080fd5b505afa158015611cb3573d6000803e3d6000fd5b505050506040513d601f19601f82011682018060405250810190611cd79190611ff5565b9061159e565b91505061048a565b600e546001600160a01b03166329a00e7c611cff86610987565b835160208501516040516001600160e01b031960e086901b168152611d2b9392919089906004016125a4565b60206040518083038186803b158015611d4357600080fd5b505afa158015611d57573d6000803e3d6000fd5b505050506040513d601f19601f82011682018060405250810190610c429190611ff5565b600061138b7f00000000000000000000000000000000000000000000000000000000000000005b6000818152600160205260408120546001600160a01b03168061048a5760005460408051637bb20d2f60e11b81526004810186905290516001600160a01b039092169163f7641a5e91602480820192602092909190829003018186803b158015611e0b57600080fd5b505afa158015611e1f573d6000803e3d6000fd5b505050506040513d6020811015611e3557600080fd5b50519392505050565b3b151590565b803563ffffffff8116811461089157600080fd5b600060208284031215611e69578081fd5b8135610a28816125fb565b60008060008060008060c08789031215611e8c578182fd5b8635611e97816125fb565b95506020870135611ea7816125fb565b94506040870135611eb7816125fb565b9350611ec560608801611e44565b9250611ed360808801611e44565b915060a087013590509295509295509295565b60008060408385031215611ef8578182fd5b8235611f03816125fb565b946020939093013593505050565b600060208284031215611f22578081fd5b5035919050565b60008060408385031215611f3b578182fd5b50508035926020909101359150565b600080600060608486031215611f5e578283fd5b505081359360208301359350604090920135919050565b600080600060408486031215611f89578283fd5b8335611f94816125fb565b9250602084013567ffffffffffffffff80821115611fb0578384fd5b818601915086601f830112611fc3578384fd5b813581811115611fd1578485fd5b876020828501011115611fe2578485fd5b6020830194508093505050509250925092565b600060208284031215612006578081fd5b5051919050565b60006020828403121561201e578081fd5b610a2882611e44565b6001600160a01b0391909116815260200190565b6001600160a01b03929092168252602082015260400190565b901515815260200190565b90815260200190565b60208082526017908201527f43616e6e6f74206275726e207a65726f207369676e616c000000000000000000604082015260600190565b6020808252601e908201527f546f6b656e206d6173746572206d757374206265206e6f6e2d656d7074790000604082015260600190565b6020808252602a908201527f4375726174696f6e206465706f7369742069732062656c6f77206d696e696d756040820152691b481c995c5d5a5c995960b21b606082015260800190565b60208082526013908201527264656661756c7452657365727665526174696f60681b604082015260600190565b60208082526013908201527229b634b83830b3b290383937ba32b1ba34b7b760691b604082015260600190565b6020808252601690820152751b5a5b9a5b5d5b50dd5c985d1a5bdb91195c1bdcda5d60521b604082015260600190565b60208082526033908201527f5375626772617068206465706c6f796d656e74206d757374206265206375726160408201527274656420746f20636f6c6c656374206665657360681b606082015260800190565b60208082526024908201527f43616e6e6f74206275726e206d6f7265207369676e616c207468616e20796f756040820152631037bbb760e11b606082015260800190565b60208082526043908201527f5369676e616c206d7573742062652061626f7665206f7220657175616c20746f60408201527f207369676e616c2069737375656420696e20746865206375726174696f6e20706060820152621bdbdb60ea1b608082015260a00190565b6020808252601590820152746375726174696f6e54617850657263656e7461676560581b604082015260600190565b6020808252603b908201527f5375626772617068206465706c6f796d656e74206d757374206265206375726160408201527f74656420746f20706572666f726d2063616c63756c6174696f6e730000000000606082015260800190565b60208082526024908201527f4d696e696d756d206375726174696f6e206465706f7369742063616e6e6f74206040820152630626520360e41b606082015260800190565b60208082526019908201527f426f6e64696e67206375727665206d7573742062652073657400000000000000604082015260600190565b60208082526021908201527f44656661756c74207265736572766520726174696f206d757374206265203e206040820152600360fc1b606082015260800190565b60208082526033908201527f44656661756c74207265736572766520726174696f2063616e6e6f7420626520604082015272686967686572207468616e204d41585f50504d60681b606082015260800190565b6020808252601f908201527f546f6b656e206d6173746572206d757374206265206120636f6e747261637400604082015260600190565b60208082526023908201527f43616c6c6572206d75737420626520746865207374616b696e6720636f6e74726040820152621858dd60ea1b606082015260800190565b6020808252601a908201527f43616e6e6f74206465706f736974207a65726f20746f6b656e73000000000000604082015260600190565b60208082526039908201527f4375726174696f6e207461782070657263656e74616765206d7573742062652060408201527f62656c6f77206f7220657175616c20746f204d41585f50504d00000000000000606082015260800190565b60208082526013908201527231bab930ba34b7b72a37b5b2b726b0b9ba32b960691b604082015260600190565b918252602082015260400190565b9283526020830191909152604082015260600190565b938452602084019290925263ffffffff166040830152606082015260800190565b92835263ffffffff9190911660208301526001600160a01b0316604082015260600190565b63ffffffff91909116815260200190565b6001600160a01b03811681146108bb57600080fdfe96d5a4b4edf1cefd0900c166d64447f8da1d01d1861a6a60894b5b82a2c15c3c496e697469616c697a61626c653a20636f6e747261637420697320616c726561647920696e697469616c697a6564536166654d6174683a206d756c7469706c69636174696f6e206f766572666c6f77a26469706673582212203338d03d9bfac23efd8029c03e98b53cddc3ebefc6c887d02092ab7ba246a15464736f6c63430007060033",
  "linkReferences": {},
  "deployedLinkReferences": {}
}