{
  "_format": "hh-sol-artifact-1",
  "contractName": "OutboxMock",
  "sourceName": "contracts/tests/arbitrum/OutboxMock.sol",
  "abi": [
    {
      "anonymous": false,
      "inputs": [
        {
          "indexed": true,
          "internalType": "address",
          "name": "destAddr",
          "type": "address"
        },
        {
          "indexed": true,
          "internalType": "address",
          "name": "l2Sender",
          "type": "address"
        },
        {
          "indexed": true,
          "internalType": "uint256",
          "name": "outboxEntryIndex",
          "type": "uint256"
        },
        {
          "indexed": false,
          "internalType": "uint256",
          "name": "transactionIndex",
          "type": "uint256"
        }
      ],
      "name": "OutBoxTransactionExecuted",
      "type": "event"
    },
    {
      "anonymous": false,
      "inputs": [
        {
          "indexed": true,
          "internalType": "uint256",
          "name": "batchNum",
          "type": "uint256"
        },
        {
          "indexed": false,
          "internalType": "uint256",
          "name": "outboxEntryIndex",
          "type": "uint256"
        },
        {
          "indexed": false,
          "internalType": "bytes32",
          "name": "outputRoot",
          "type": "bytes32"
        },
        {
          "indexed": false,
          "internalType": "uint256",
          "name": "numInBatch",
          "type": "uint256"
        }
      ],
      "name": "OutboxEntryCreated",
      "type": "event"
    },
    {
      "inputs": [],
      "name": "bridge",
      "outputs": [
        {
          "internalType": "contract IBridge",
          "name": "",
          "type": "address"
        }
      ],
      "stateMutability": "view",
      "type": "function"
    },
    {
      "inputs": [
        {
          "internalType": "uint256",
          "name": "_batchNum",
          "type": "uint256"
        },
        {
          "internalType": "bytes32[]",
          "name": "",
          "type": "bytes32[]"
        },
        {
          "internalType": "uint256",
          "name": "",
          "type": "uint256"
        },
        {
          "internalType": "address",
          "name": "_l2Sender",
          "type": "address"
        },
        {
          "internalType": "address",
          "name": "_destAddr",
          "type": "address"
        },
        {
          "internalType": "uint256",
          "name": "_l2Block",
          "type": "uint256"
        },
        {
          "internalType": "uint256",
          "name": "_l1Block",
          "type": "uint256"
        },
        {
          "internalType": "uint256",
          "name": "_l2Timestamp",
          "type": "uint256"
        },
        {
          "internalType": "uint256",
          "name": "_amount",
          "type": "uint256"
        },
        {
          "internalType": "bytes",
          "name": "_calldataForL1",
          "type": "bytes"
        }
      ],
      "name": "executeTransaction",
      "outputs": [],
      "stateMutability": "nonpayable",
      "type": "function"
    },
    {
      "inputs": [],
      "name": "l2ToL1BatchNum",
      "outputs": [
        {
          "internalType": "uint256",
          "name": "",
          "type": "uint256"
        }
      ],
      "stateMutability": "view",
      "type": "function"
    },
    {
      "inputs": [],
      "name": "l2ToL1Block",
      "outputs": [
        {
          "internalType": "uint256",
          "name": "",
          "type": "uint256"
        }
      ],
      "stateMutability": "view",
      "type": "function"
    },
    {
      "inputs": [],
      "name": "l2ToL1EthBlock",
      "outputs": [
        {
          "internalType": "uint256",
          "name": "",
          "type": "uint256"
        }
      ],
      "stateMutability": "view",
      "type": "function"
    },
    {
      "inputs": [],
      "name": "l2ToL1OutputId",
      "outputs": [
        {
          "internalType": "bytes32",
          "name": "",
          "type": "bytes32"
        }
      ],
      "stateMutability": "view",
      "type": "function"
    },
    {
      "inputs": [],
      "name": "l2ToL1Sender",
      "outputs": [
        {
          "internalType": "address",
          "name": "",
          "type": "address"
        }
      ],
      "stateMutability": "view",
      "type": "function"
    },
    {
      "inputs": [],
      "name": "l2ToL1Timestamp",
      "outputs": [
        {
          "internalType": "uint256",
          "name": "",
          "type": "uint256"
        }
      ],
      "stateMutability": "view",
      "type": "function"
    },
    {
      "inputs": [
        {
          "internalType": "uint256",
          "name": "",
          "type": "uint256"
        }
      ],
      "name": "outboxEntryExists",
      "outputs": [
        {
          "internalType": "bool",
          "name": "",
          "type": "bool"
        }
      ],
      "stateMutability": "pure",
      "type": "function"
    },
    {
      "inputs": [
        {
          "internalType": "bytes",
          "name": "",
          "type": "bytes"
        },
        {
          "internalType": "uint256[]",
          "name": "",
          "type": "uint256[]"
        }
      ],
      "name": "processOutgoingMessages",
      "outputs": [],
      "stateMutability": "pure",
      "type": "function"
    },
    {
      "inputs": [
        {
          "internalType": "address",
          "name": "_bridge",
          "type": "address"
        }
      ],
      "name": "setBridge",
      "outputs": [],
      "stateMutability": "nonpayable",
      "type": "function"
    }
  ],
  "bytecode": "0x608060405234801561001057600080fd5b506107e4806100206000396000f3fe608060405234801561001057600080fd5b50600436106100a95760003560e01c80638515bc6a116100715780638515bc6a146101bc5780638dd14802146101c45780639c5cfe0b146101ea578063b0f30537146102e6578063e78cea92146102ee578063f1fd3a39146102f6576100a9565b80630c726847146100ae578063119852711461016e578063465477901461018857806372f2a8c71461019057806380648b0214610198575b600080fd5b61016c600480360360408110156100c457600080fd5b810190602081018135600160201b8111156100de57600080fd5b8201836020820111156100f057600080fd5b803590602001918460018302840111600160201b8311171561011157600080fd5b919390929091602081019035600160201b81111561012e57600080fd5b82018360208201111561014057600080fd5b803590602001918460208302840111600160201b8311171561016157600080fd5b509092509050610327565b005b610176610364565b60408051918252519081900360200190f35b61017661037a565b610176610389565b6101a061038f565b604080516001600160a01b039092168252519081900360200190f35b61017661039e565b61016c600480360360208110156101da57600080fd5b50356001600160a01b03166103b4565b61016c600480360361014081101561020157600080fd5b81359190810190604081016020820135600160201b81111561022257600080fd5b82018360208201111561023457600080fd5b803590602001918460208302840111600160201b8311171561025557600080fd5b919390928235926001600160a01b03602082013581169360408301359091169260608301359260808101359260a08201359260c08301359261010081019060e00135600160201b8111156102a857600080fd5b8201836020820111156102ba57600080fd5b803590602001918460018302840111600160201b831117156102db57600080fd5b5090925090506103d6565b610176610571565b6101a0610580565b6103136004803603602081101561030c57600080fd5b503561058f565b604080519115158252519081900360200190f35b6040805162461bcd60e51b815260206004820152600d60248201526c155b9a5b5c1b195b595b9d1959609a1b604482015290519081900360640190fd5b600154600160801b90046001600160801b031690565b6000546001600160801b031690565b60025490565b6003546001600160a01b031690565b600054600160801b90046001600160801b031690565b600480546001600160a01b0319166001600160a01b0392909216919091179055565b60006040518060c00160405280886001600160801b03168152602001876001600160801b03168152602001866001600160801b031681526020018e6001600160801b031681526020018281526020018a6001600160a01b03168152506000808201518160000160006101000a8154816001600160801b0302191690836001600160801b0316021790555060208201518160000160106101000a8154816001600160801b0302191690836001600160801b0316021790555060408201518160010160006101000a8154816001600160801b0302191690836001600160801b0316021790555060608201518160010160106101000a8154816001600160801b0302191690836001600160801b031602179055506080820151816002015560a08201518160030160006101000a8154816001600160a01b0302191690836001600160a01b03160217905550905050610562888585858080601f01602080910402602001604051908101604052809392919081815260200183838082843760009201919091525061059592505050565b50505050505050505050505050565b6001546001600160801b031690565b6004546001600160a01b031681565b50600190565b60048054604051639e5d4c4960e01b81526001600160a01b038681169382019384526024820186905260606044830190815285516064840152855160009586959390931693639e5d4c49938a938a938a936084019060208501908083838d5b8381101561060c5781810151838201526020016105f4565b50505050905090810190601f1680156106395780820380516001836020036101000a031916815260200191505b50945050505050600060405180830381600087803b15801561065a57600080fd5b505af115801561066e573d6000803e3d6000fd5b505050506040513d6000823e601f3d908101601f19168201604090815281101561069757600080fd5b815160208301805160405192949293830192919084600160201b8211156106bd57600080fd5b9083019060208201858111156106d257600080fd5b8251600160201b8111828201881017156106eb57600080fd5b82525081516020918201929091019080838360005b83811015610718578181015183820152602001610700565b50505050905090810190601f1680156107455780820380516001836020036101000a031916815260200191505b5060405250505091509150816107a7578051156107655780518082602001fd5b6040805162461bcd60e51b81526020600482015260126024820152711094925111d157d0d0531317d1905253115160721b604482015290519081900360640190fd5b505050505056fea264697066735822122094fac3edcc3007f4523e5609bef7fb9551d185875d552c1e6fe786a8b383fb7764736f6c63430007060033",
  "linkReferences": {},
  "deployedLinkReferences": {}
}