{
  "_format": "hh-sol-artifact-1",
  "contractName": "RewardsManagerV4Storage",
  "sourceName": "contracts/rewards/RewardsManagerStorage.sol",
  "abi": [
    {
      "anonymous": false,
      "inputs": [
        {
          "indexed": true,
          "internalType": "bytes32",
          "name": "nameHash",
          "type": "bytes32"
        },
        {
          "indexed": false,
          "internalType": "address",
          "name": "contractAddress",
          "type": "address"
        }
      ],
      "name": "ContractSynced",
      "type": "event"
    },
    {
      "anonymous": false,
      "inputs": [
        {
          "indexed": false,
          "internalType": "string",
          "name": "param",
          "type": "string"
        }
      ],
      "name": "ParameterUpdated",
      "type": "event"
    },
    {
      "anonymous": false,
      "inputs": [
        {
          "indexed": false,
          "internalType": "address",
          "name": "controller",
          "type": "address"
        }
      ],
      "name": "SetController",
      "type": "event"
    },
    {
      "inputs": [],
      "name": "accRewardsPerSignal",
      "outputs": [
        {
          "internalType": "uint256",
          "name": "",
          "type": "uint256"
        }
      ],
      "stateMutability": "view",
      "type": "function"
    },
    {
      "inputs": [],
      "name": "accRewardsPerSignalLastBlockUpdated",
      "outputs": [
        {
          "internalType": "uint256",
          "name": "",
          "type": "uint256"
        }
      ],
      "stateMutability": "view",
      "type": "function"
    },
    {
      "inputs": [],
      "name": "controller",
      "outputs": [
        {
          "internalType": "contract IController",
          "name": "",
          "type": "address"
        }
      ],
      "stateMutability": "view",
      "type": "function"
    },
    {
      "inputs": [
        {
          "internalType": "bytes32",
          "name": "",
          "type": "bytes32"
        }
      ],
      "name": "denylist",
      "outputs": [
        {
          "internalType": "uint256",
          "name": "",
          "type": "uint256"
        }
      ],
      "stateMutability": "view",
      "type": "function"
    },
    {
      "inputs": [],
      "name": "issuancePerBlock",
      "outputs": [
        {
          "internalType": "uint256",
          "name": "",
          "type": "uint256"
        }
      ],
      "stateMutability": "view",
      "type": "function"
    },
    {
      "inputs": [],
      "name": "minimumSubgraphSignal",
      "outputs": [
        {
          "internalType": "uint256",
          "name": "",
          "type": "uint256"
        }
      ],
      "stateMutability": "view",
      "type": "function"
    },
    {
      "inputs": [
        {
          "internalType": "address",
          "name": "_controller",
          "type": "address"
        }
      ],
      "name": "setController",
      "outputs": [],
      "stateMutability": "nonpayable",
      "type": "function"
    },
    {
      "inputs": [],
      "name": "subgraphAvailabilityOracle",
      "outputs": [
        {
          "internalType": "address",
          "name": "",
          "type": "address"
        }
      ],
      "stateMutability": "view",
      "type": "function"
    },
    {
      "inputs": [
        {
          "internalType": "bytes32",
          "name": "",
          "type": "bytes32"
        }
      ],
      "name": "subgraphs",
      "outputs": [
        {
          "internalType": "uint256",
          "name": "accRewardsForSubgraph",
          "type": "uint256"
        },
        {
          "internalType": "uint256",
          "name": "accRewardsForSubgraphSnapshot",
          "type": "uint256"
        },
        {
          "internalType": "uint256",
          "name": "accRewardsPerSignalSnapshot",
          "type": "uint256"
        },
        {
          "internalType": "uint256",
          "name": "accRewardsPerAllocatedToken",
          "type": "uint256"
        }
      ],
      "stateMutability": "view",
      "type": "function"
    },
    {
      "inputs": [],
      "name": "syncAllContracts",
      "outputs": [],
      "stateMutability": "nonpayable",
      "type": "function"
    }
  ],
  "bytecode": "0x6101606040527fe6876326c1291dfcbbd3864a6816d698cd591defc7aa2153d7f9c4c04016c89f6080527fc713c3df6d14cdf946460395d09af88993ee2b948b1a808161494e32c5f6706360a0527f966f1e8d8d8014e05f6ec4a57138da9be1f7c5a7f802928a18072f7c5318076160c0527f1df41cd916959d1163dc8f0671a666ea8a3e434c13e40faef527133b5d16703460e0527f45fc200c7e4544e457d3c5709bfe0d520442c30bbcbdaede89e8d4a4bbc19247610100527fd362cac9cb75c10d67bcc0b7eeb0b1ef48bb5420b556c092d4fd7f758816fcf0610120527f39605a6c26a173774ca666c67ef70cf491880e5d3d6d0ca66ec0a31034f15ea36101405234801561011057600080fd5b5060805160a05160c05160e051610100516101205161014051610574610164600039806102fa5250806102d15250806102a852508061027f52508061025652508061022d52508061020452506105746000f3fe608060405234801561001057600080fd5b506004361061009e5760003560e01c806392eefe9b1161006657806392eefe9b14610149578063b951acd714610171578063d6866ea514610179578063e242cf1e14610181578063f77c4791146101895761009e565b806305bb8c6b146100a357806316a84ab2146100c75780634986594f146100f65780636c080f18146101395780639006ce8b14610141575b600080fd5b6100ab610191565b604080516001600160a01b039092168252519081900360200190f35b6100e4600480360360208110156100dd57600080fd5b50356101a0565b60408051918252519081900360200190f35b6101136004803603602081101561010c57600080fd5b50356101b2565b604080519485526020850193909352838301919091526060830152519081900360800190f35b6100e46101d9565b6100e46101df565b61016f6004803603602081101561015f57600080fd5b50356001600160a01b03166101e5565b005b6100e46101f9565b61016f6101ff565b6100e4610320565b6100ab610326565b600f546001600160a01b031681565b60116020526000908152604090205481565b60106020526000908152604090208054600182015460028301546003909301549192909184565b60145481565b600e5481565b6101ed610335565b6101f681610394565b50565b60125481565b6102287f000000000000000000000000000000000000000000000000000000000000000061043c565b6102517f000000000000000000000000000000000000000000000000000000000000000061043c565b61027a7f000000000000000000000000000000000000000000000000000000000000000061043c565b6102a37f000000000000000000000000000000000000000000000000000000000000000061043c565b6102cc7f000000000000000000000000000000000000000000000000000000000000000061043c565b6102f57f000000000000000000000000000000000000000000000000000000000000000061043c565b61031e7f000000000000000000000000000000000000000000000000000000000000000061043c565b565b600d5481565b6000546001600160a01b031681565b6000546001600160a01b0316331461031e576040805162461bcd60e51b815260206004820152601960248201527f43616c6c6572206d75737420626520436f6e74726f6c6c657200000000000000604482015290519081900360640190fd5b6001600160a01b0381166103e8576040805162461bcd60e51b815260206004820152601660248201527510dbdb9d1c9bdb1b195c881b5d5cdd081899481cd95d60521b604482015290519081900360640190fd5b600080546001600160a01b0383166001600160a01b0319909116811790915560408051918252517f4ff638452bbf33c012645d18ae6f05515ff5f2d1dfb0cece8cbf018c60903f709181900360200190a150565b6000805460408051637bb20d2f60e11b81526004810185905290516001600160a01b039092169163f7641a5e91602480820192602092909190829003018186803b15801561048957600080fd5b505afa15801561049d573d6000803e3d6000fd5b505050506040513d60208110156104b357600080fd5b50516000838152600160205260409020549091506001600160a01b0380831691161461053a5760008281526001602090815260409182902080546001600160a01b0319166001600160a01b0385169081179091558251908152915184927fd0e7a942b1fc38c411c4f53d153ba14fd24542a6a35ebacd9b6afca1a154e20692908290030190a25b505056fea2646970667358221220f7653dc17d881d9643eb0b68f864259c04cea3e05d213a856c76103de11e7b6064736f6c63430007060033",
  "linkReferences": {},
  "deployedLinkReferences": {}
}