{
  "_format": "hh-sol-artifact-1",
  "contractName": "RewardsManagerV5Storage",
  "sourceName": "contracts/rewards/RewardsManagerStorage.sol",
  "abi": [
    {
      "anonymous": false,
      "inputs": [
        {
          "indexed": true,
          "internalType": "bytes32",
          "name": "nameHash",
          "type": "bytes32"
        },
        {
          "indexed": false,
          "internalType": "address",
          "name": "contractAddress",
          "type": "address"
        }
      ],
      "name": "ContractSynced",
      "type": "event"
    },
    {
      "anonymous": false,
      "inputs": [
        {
          "indexed": false,
          "internalType": "string",
          "name": "param",
          "type": "string"
        }
      ],
      "name": "ParameterUpdated",
      "type": "event"
    },
    {
      "anonymous": false,
      "inputs": [
        {
          "indexed": false,
          "internalType": "address",
          "name": "controller",
          "type": "address"
        }
      ],
      "name": "SetController",
      "type": "event"
    },
    {
      "inputs": [],
      "name": "accRewardsPerSignal",
      "outputs": [
        {
          "internalType": "uint256",
          "name": "",
          "type": "uint256"
        }
      ],
      "stateMutability": "view",
      "type": "function"
    },
    {
      "inputs": [],
      "name": "accRewardsPerSignalLastBlockUpdated",
      "outputs": [
        {
          "internalType": "uint256",
          "name": "",
          "type": "uint256"
        }
      ],
      "stateMutability": "view",
      "type": "function"
    },
    {
      "inputs": [],
      "name": "controller",
      "outputs": [
        {
          "internalType": "contract IController",
          "name": "",
          "type": "address"
        }
      ],
      "stateMutability": "view",
      "type": "function"
    },
    {
      "inputs": [
        {
          "internalType": "bytes32",
          "name": "",
          "type": "bytes32"
        }
      ],
      "name": "denylist",
      "outputs": [
        {
          "internalType": "uint256",
          "name": "",
          "type": "uint256"
        }
      ],
      "stateMutability": "view",
      "type": "function"
    },
    {
      "inputs": [],
      "name": "issuancePerBlock",
      "outputs": [
        {
          "internalType": "uint256",
          "name": "",
          "type": "uint256"
        }
      ],
      "stateMutability": "view",
      "type": "function"
    },
    {
      "inputs": [],
      "name": "minimumSubgraphSignal",
      "outputs": [
        {
          "internalType": "uint256",
          "name": "",
          "type": "uint256"
        }
      ],
      "stateMutability": "view",
      "type": "function"
    },
    {
      "inputs": [
        {
          "internalType": "address",
          "name": "_controller",
          "type": "address"
        }
      ],
      "name": "setController",
      "outputs": [],
      "stateMutability": "nonpayable",
      "type": "function"
    },
    {
      "inputs": [],
      "name": "subgraphAvailabilityOracle",
      "outputs": [
        {
          "internalType": "address",
          "name": "",
          "type": "address"
        }
      ],
      "stateMutability": "view",
      "type": "function"
    },
    {
      "inputs": [],
      "name": "subgraphService",
      "outputs": [
        {
          "internalType": "contract IRewardsIssuer",
          "name": "",
          "type": "address"
        }
      ],
      "stateMutability": "view",
      "type": "function"
    },
    {
      "inputs": [
        {
          "internalType": "bytes32",
          "name": "",
          "type": "bytes32"
        }
      ],
      "name": "subgraphs",
      "outputs": [
        {
          "internalType": "uint256",
          "name": "accRewardsForSubgraph",
          "type": "uint256"
        },
        {
          "internalType": "uint256",
          "name": "accRewardsForSubgraphSnapshot",
          "type": "uint256"
        },
        {
          "internalType": "uint256",
          "name": "accRewardsPerSignalSnapshot",
          "type": "uint256"
        },
        {
          "internalType": "uint256",
          "name": "accRewardsPerAllocatedToken",
          "type": "uint256"
        }
      ],
      "stateMutability": "view",
      "type": "function"
    },
    {
      "inputs": [],
      "name": "syncAllContracts",
      "outputs": [],
      "stateMutability": "nonpayable",
      "type": "function"
    }
  ],
  "bytecode": "0x6101606040527fe6876326c1291dfcbbd3864a6816d698cd591defc7aa2153d7f9c4c04016c89f6080527fc713c3df6d14cdf946460395d09af88993ee2b948b1a808161494e32c5f6706360a0527f966f1e8d8d8014e05f6ec4a57138da9be1f7c5a7f802928a18072f7c5318076160c0527f1df41cd916959d1163dc8f0671a666ea8a3e434c13e40faef527133b5d16703460e0527f45fc200c7e4544e457d3c5709bfe0d520442c30bbcbdaede89e8d4a4bbc19247610100527fd362cac9cb75c10d67bcc0b7eeb0b1ef48bb5420b556c092d4fd7f758816fcf0610120527f39605a6c26a173774ca666c67ef70cf491880e5d3d6d0ca66ec0a31034f15ea36101405234801561011057600080fd5b5060805160a05160c05160e0516101005161012051610140516105966101646000398061031c5250806102f35250806102ca5250806102a152508061027852508061024f52508061022652506105966000f3fe608060405234801561001057600080fd5b50600436106100a95760003560e01c80639006ce8b116100715780639006ce8b1461015457806392eefe9b1461015c578063b951acd714610184578063d6866ea51461018c578063e242cf1e14610194578063f77c47911461019c576100a9565b806305bb8c6b146100ae57806316a84ab2146100d257806326058249146101015780634986594f146101095780636c080f181461014c575b600080fd5b6100b66101a4565b604080516001600160a01b039092168252519081900360200190f35b6100ef600480360360208110156100e857600080fd5b50356101b3565b60408051918252519081900360200190f35b6100b66101c5565b6101266004803603602081101561011f57600080fd5b50356101d4565b604080519485526020850193909352838301919091526060830152519081900360800190f35b6100ef6101fb565b6100ef610201565b6101826004803603602081101561017257600080fd5b50356001600160a01b0316610207565b005b6100ef61021b565b610182610221565b6100ef610342565b6100b6610348565b600f546001600160a01b031681565b60116020526000908152604090205481565b6015546001600160a01b031681565b60106020526000908152604090208054600182015460028301546003909301549192909184565b60145481565b600e5481565b61020f610357565b610218816103b6565b50565b60125481565b61024a7f000000000000000000000000000000000000000000000000000000000000000061045e565b6102737f000000000000000000000000000000000000000000000000000000000000000061045e565b61029c7f000000000000000000000000000000000000000000000000000000000000000061045e565b6102c57f000000000000000000000000000000000000000000000000000000000000000061045e565b6102ee7f000000000000000000000000000000000000000000000000000000000000000061045e565b6103177f000000000000000000000000000000000000000000000000000000000000000061045e565b6103407f000000000000000000000000000000000000000000000000000000000000000061045e565b565b600d5481565b6000546001600160a01b031681565b6000546001600160a01b03163314610340576040805162461bcd60e51b815260206004820152601960248201527f43616c6c6572206d75737420626520436f6e74726f6c6c657200000000000000604482015290519081900360640190fd5b6001600160a01b03811661040a576040805162461bcd60e51b815260206004820152601660248201527510dbdb9d1c9bdb1b195c881b5d5cdd081899481cd95d60521b604482015290519081900360640190fd5b600080546001600160a01b0383166001600160a01b0319909116811790915560408051918252517f4ff638452bbf33c012645d18ae6f05515ff5f2d1dfb0cece8cbf018c60903f709181900360200190a150565b6000805460408051637bb20d2f60e11b81526004810185905290516001600160a01b039092169163f7641a5e91602480820192602092909190829003018186803b1580156104ab57600080fd5b505afa1580156104bf573d6000803e3d6000fd5b505050506040513d60208110156104d557600080fd5b50516000838152600160205260409020549091506001600160a01b0380831691161461055c5760008281526001602090815260409182902080546001600160a01b0319166001600160a01b0385169081179091558251908152915184927fd0e7a942b1fc38c411c4f53d153ba14fd24542a6a35ebacd9b6afca1a154e20692908290030190a25b505056fea264697066735822122081154afac68e027aa264efa8f57ab4fad92033dc429a491b7d76ce35aa58a4be64736f6c63430007060033",
  "linkReferences": {},
  "deployedLinkReferences": {}
}