{
  "_format": "hh-sol-artifact-1",
  "contractName": "LegacyGNSMock",
  "sourceName": "contracts/tests/LegacyGNSMock.sol",
  "abi": [
    {
      "anonymous": false,
      "inputs": [
        {
          "indexed": true,
          "internalType": "bytes32",
          "name": "nameHash",
          "type": "bytes32"
        },
        {
          "indexed": false,
          "internalType": "address",
          "name": "contractAddress",
          "type": "address"
        }
      ],
      "name": "ContractSynced",
      "type": "event"
    },
    {
      "anonymous": false,
      "inputs": [
        {
          "indexed": false,
          "internalType": "address",
          "name": "_counterpart",
          "type": "address"
        }
      ],
      "name": "CounterpartGNSAddressUpdated",
      "type": "event"
    },
    {
      "anonymous": false,
      "inputs": [
        {
          "indexed": true,
          "internalType": "uint256",
          "name": "_subgraphID",
          "type": "uint256"
        },
        {
          "indexed": true,
          "internalType": "address",
          "name": "_l1Curator",
          "type": "address"
        },
        {
          "indexed": true,
          "internalType": "address",
          "name": "_l2Beneficiary",
          "type": "address"
        },
        {
          "indexed": false,
          "internalType": "uint256",
          "name": "_tokens",
          "type": "uint256"
        }
      ],
      "name": "CuratorBalanceSentToL2",
      "type": "event"
    },
    {
      "anonymous": false,
      "inputs": [
        {
          "indexed": true,
          "internalType": "uint256",
          "name": "subgraphID",
          "type": "uint256"
        },
        {
          "indexed": true,
          "internalType": "address",
          "name": "curator",
          "type": "address"
        },
        {
          "indexed": false,
          "internalType": "uint256",
          "name": "nSignalBurnt",
          "type": "uint256"
        },
        {
          "indexed": false,
          "internalType": "uint256",
          "name": "withdrawnGRT",
          "type": "uint256"
        }
      ],
      "name": "GRTWithdrawn",
      "type": "event"
    },
    {
      "anonymous": false,
      "inputs": [
        {
          "indexed": true,
          "internalType": "address",
          "name": "graphAccount",
          "type": "address"
        },
        {
          "indexed": false,
          "internalType": "uint256",
          "name": "subgraphNumber",
          "type": "uint256"
        }
      ],
      "name": "LegacySubgraphClaimed",
      "type": "event"
    },
    {
      "anonymous": false,
      "inputs": [
        {
          "indexed": false,
          "internalType": "string",
          "name": "param",
          "type": "string"
        }
      ],
      "name": "ParameterUpdated",
      "type": "event"
    },
    {
      "anonymous": false,
      "inputs": [
        {
          "indexed": false,
          "internalType": "address",
          "name": "controller",
          "type": "address"
        }
      ],
      "name": "SetController",
      "type": "event"
    },
    {
      "anonymous": false,
      "inputs": [
        {
          "indexed": true,
          "internalType": "address",
          "name": "graphAccount",
          "type": "address"
        },
        {
          "indexed": false,
          "internalType": "uint256",
          "name": "nameSystem",
          "type": "uint256"
        },
        {
          "indexed": false,
          "internalType": "bytes32",
          "name": "nameIdentifier",
          "type": "bytes32"
        },
        {
          "indexed": false,
          "internalType": "string",
          "name": "name",
          "type": "string"
        }
      ],
      "name": "SetDefaultName",
      "type": "event"
    },
    {
      "anonymous": false,
      "inputs": [
        {
          "indexed": true,
          "internalType": "uint256",
          "name": "subgraphID",
          "type": "uint256"
        },
        {
          "indexed": true,
          "internalType": "address",
          "name": "curator",
          "type": "address"
        },
        {
          "indexed": false,
          "internalType": "uint256",
          "name": "nSignalBurnt",
          "type": "uint256"
        },
        {
          "indexed": false,
          "internalType": "uint256",
          "name": "vSignalBurnt",
          "type": "uint256"
        },
        {
          "indexed": false,
          "internalType": "uint256",
          "name": "tokensReceived",
          "type": "uint256"
        }
      ],
      "name": "SignalBurned",
      "type": "event"
    },
    {
      "anonymous": false,
      "inputs": [
        {
          "indexed": true,
          "internalType": "uint256",
          "name": "subgraphID",
          "type": "uint256"
        },
        {
          "indexed": true,
          "internalType": "address",
          "name": "curator",
          "type": "address"
        },
        {
          "indexed": false,
          "internalType": "uint256",
          "name": "nSignalCreated",
          "type": "uint256"
        },
        {
          "indexed": false,
          "internalType": "uint256",
          "name": "vSignalCreated",
          "type": "uint256"
        },
        {
          "indexed": false,
          "internalType": "uint256",
          "name": "tokensDeposited",
          "type": "uint256"
        }
      ],
      "name": "SignalMinted",
      "type": "event"
    },
    {
      "anonymous": false,
      "inputs": [
        {
          "indexed": true,
          "internalType": "uint256",
          "name": "subgraphID",
          "type": "uint256"
        },
        {
          "indexed": true,
          "internalType": "address",
          "name": "from",
          "type": "address"
        },
        {
          "indexed": true,
          "internalType": "address",
          "name": "to",
          "type": "address"
        },
        {
          "indexed": false,
          "internalType": "uint256",
          "name": "nSignalTransferred",
          "type": "uint256"
        }
      ],
      "name": "SignalTransferred",
      "type": "event"
    },
    {
      "anonymous": false,
      "inputs": [
        {
          "indexed": true,
          "internalType": "uint256",
          "name": "subgraphID",
          "type": "uint256"
        },
        {
          "indexed": false,
          "internalType": "uint256",
          "name": "withdrawableGRT",
          "type": "uint256"
        }
      ],
      "name": "SubgraphDeprecated",
      "type": "event"
    },
    {
      "anonymous": false,
      "inputs": [
        {
          "indexed": true,
          "internalType": "uint256",
          "name": "subgraphID",
          "type": "uint256"
        },
        {
          "indexed": false,
          "internalType": "bytes32",
          "name": "subgraphMetadata",
          "type": "bytes32"
        }
      ],
      "name": "SubgraphMetadataUpdated",
      "type": "event"
    },
    {
      "anonymous": false,
      "inputs": [
        {
          "indexed": false,
          "internalType": "address",
          "name": "subgraphNFT",
          "type": "address"
        }
      ],
      "name": "SubgraphNFTUpdated",
      "type": "event"
    },
    {
      "anonymous": false,
      "inputs": [
        {
          "indexed": true,
          "internalType": "uint256",
          "name": "subgraphID",
          "type": "uint256"
        },
        {
          "indexed": true,
          "internalType": "bytes32",
          "name": "subgraphDeploymentID",
          "type": "bytes32"
        },
        {
          "indexed": false,
          "internalType": "uint32",
          "name": "reserveRatio",
          "type": "uint32"
        }
      ],
      "name": "SubgraphPublished",
      "type": "event"
    },
    {
      "anonymous": false,
      "inputs": [
        {
          "indexed": true,
          "internalType": "uint256",
          "name": "_subgraphID",
          "type": "uint256"
        },
        {
          "indexed": true,
          "internalType": "address",
          "name": "_l1Owner",
          "type": "address"
        },
        {
          "indexed": true,
          "internalType": "address",
          "name": "_l2Owner",
          "type": "address"
        },
        {
          "indexed": false,
          "internalType": "uint256",
          "name": "_tokens",
          "type": "uint256"
        }
      ],
      "name": "SubgraphSentToL2",
      "type": "event"
    },
    {
      "anonymous": false,
      "inputs": [
        {
          "indexed": true,
          "internalType": "uint256",
          "name": "subgraphID",
          "type": "uint256"
        },
        {
          "indexed": false,
          "internalType": "uint256",
          "name": "vSignalCreated",
          "type": "uint256"
        },
        {
          "indexed": false,
          "internalType": "uint256",
          "name": "tokensSignalled",
          "type": "uint256"
        },
        {
          "indexed": true,
          "internalType": "bytes32",
          "name": "subgraphDeploymentID",
          "type": "bytes32"
        }
      ],
      "name": "SubgraphUpgraded",
      "type": "event"
    },
    {
      "anonymous": false,
      "inputs": [
        {
          "indexed": true,
          "internalType": "uint256",
          "name": "subgraphID",
          "type": "uint256"
        },
        {
          "indexed": true,
          "internalType": "bytes32",
          "name": "subgraphDeploymentID",
          "type": "bytes32"
        },
        {
          "indexed": false,
          "internalType": "bytes32",
          "name": "versionMetadata",
          "type": "bytes32"
        }
      ],
      "name": "SubgraphVersionUpdated",
      "type": "event"
    },
    {
      "inputs": [
        {
          "internalType": "contract IGraphProxy",
          "name": "_proxy",
          "type": "address"
        }
      ],
      "name": "acceptProxy",
      "outputs": [],
      "stateMutability": "nonpayable",
      "type": "function"
    },
    {
      "inputs": [
        {
          "internalType": "contract IGraphProxy",
          "name": "_proxy",
          "type": "address"
        },
        {
          "internalType": "bytes",
          "name": "_data",
          "type": "bytes"
        }
      ],
      "name": "acceptProxyAndCall",
      "outputs": [],
      "stateMutability": "nonpayable",
      "type": "function"
    },
    {
      "inputs": [],
      "name": "approveAll",
      "outputs": [],
      "stateMutability": "nonpayable",
      "type": "function"
    },
    {
      "inputs": [
        {
          "internalType": "uint256",
          "name": "_subgraphID",
          "type": "uint256"
        },
        {
          "internalType": "uint256",
          "name": "_nSignal",
          "type": "uint256"
        },
        {
          "internalType": "uint256",
          "name": "_tokensOutMin",
          "type": "uint256"
        }
      ],
      "name": "burnSignal",
      "outputs": [],
      "stateMutability": "nonpayable",
      "type": "function"
    },
    {
      "inputs": [],
      "name": "controller",
      "outputs": [
        {
          "internalType": "contract IController",
          "name": "",
          "type": "address"
        }
      ],
      "stateMutability": "view",
      "type": "function"
    },
    {
      "inputs": [],
      "name": "counterpartGNSAddress",
      "outputs": [
        {
          "internalType": "address",
          "name": "",
          "type": "address"
        }
      ],
      "stateMutability": "view",
      "type": "function"
    },
    {
      "inputs": [
        {
          "internalType": "uint256",
          "name": "subgraphNumber",
          "type": "uint256"
        },
        {
          "internalType": "bytes32",
          "name": "subgraphDeploymentID",
          "type": "bytes32"
        }
      ],
      "name": "createLegacySubgraph",
      "outputs": [],
      "stateMutability": "nonpayable",
      "type": "function"
    },
    {
      "inputs": [
        {
          "internalType": "uint256",
          "name": "_subgraphID",
          "type": "uint256"
        }
      ],
      "name": "deprecateSubgraph",
      "outputs": [],
      "stateMutability": "nonpayable",
      "type": "function"
    },
    {
      "inputs": [
        {
          "internalType": "uint256",
          "name": "_subgraphID",
          "type": "uint256"
        },
        {
          "internalType": "address",
          "name": "_curator",
          "type": "address"
        }
      ],
      "name": "getCuratorSignal",
      "outputs": [
        {
          "internalType": "uint256",
          "name": "",
          "type": "uint256"
        }
      ],
      "stateMutability": "view",
      "type": "function"
    },
    {
      "inputs": [
        {
          "internalType": "uint256",
          "name": "_subgraphID",
          "type": "uint256"
        }
      ],
      "name": "getLegacySubgraphKey",
      "outputs": [
        {
          "internalType": "address",
          "name": "account",
          "type": "address"
        },
        {
          "internalType": "uint256",
          "name": "seqID",
          "type": "uint256"
        }
      ],
      "stateMutability": "view",
      "type": "function"
    },
    {
      "inputs": [
        {
          "internalType": "uint256",
          "name": "subgraphID",
          "type": "uint256"
        }
      ],
      "name": "getSubgraphDeploymentID",
      "outputs": [
        {
          "internalType": "bytes32",
          "name": "subgraphDeploymentID",
          "type": "bytes32"
        }
      ],
      "stateMutability": "view",
      "type": "function"
    },
    {
      "inputs": [
        {
          "internalType": "uint256",
          "name": "subgraphID",
          "type": "uint256"
        }
      ],
      "name": "getSubgraphNSignal",
      "outputs": [
        {
          "internalType": "uint256",
          "name": "nSignal",
          "type": "uint256"
        }
      ],
      "stateMutability": "view",
      "type": "function"
    },
    {
      "inputs": [
        {
          "internalType": "address",
          "name": "_controller",
          "type": "address"
        },
        {
          "internalType": "address",
          "name": "_subgraphNFT",
          "type": "address"
        }
      ],
      "name": "initialize",
      "outputs": [],
      "stateMutability": "nonpayable",
      "type": "function"
    },
    {
      "inputs": [
        {
          "internalType": "uint256",
          "name": "_subgraphID",
          "type": "uint256"
        }
      ],
      "name": "isLegacySubgraph",
      "outputs": [
        {
          "internalType": "bool",
          "name": "",
          "type": "bool"
        }
      ],
      "stateMutability": "view",
      "type": "function"
    },
    {
      "inputs": [
        {
          "internalType": "uint256",
          "name": "_subgraphID",
          "type": "uint256"
        }
      ],
      "name": "isPublished",
      "outputs": [
        {
          "internalType": "bool",
          "name": "",
          "type": "bool"
        }
      ],
      "stateMutability": "view",
      "type": "function"
    },
    {
      "inputs": [
        {
          "internalType": "address",
          "name": "",
          "type": "address"
        },
        {
          "internalType": "uint256",
          "name": "",
          "type": "uint256"
        }
      ],
      "name": "legacySubgraphData",
      "outputs": [
        {
          "internalType": "uint256",
          "name": "vSignal",
          "type": "uint256"
        },
        {
          "internalType": "uint256",
          "name": "nSignal",
          "type": "uint256"
        },
        {
          "internalType": "bytes32",
          "name": "subgraphDeploymentID",
          "type": "bytes32"
        },
        {
          "internalType": "uint32",
          "name": "__DEPRECATED_reserveRatio",
          "type": "uint32"
        },
        {
          "internalType": "bool",
          "name": "disabled",
          "type": "bool"
        },
        {
          "internalType": "uint256",
          "name": "withdrawableGRT",
          "type": "uint256"
        }
      ],
      "stateMutability": "view",
      "type": "function"
    },
    {
      "inputs": [
        {
          "internalType": "uint256",
          "name": "",
          "type": "uint256"
        }
      ],
      "name": "legacySubgraphKeys",
      "outputs": [
        {
          "internalType": "address",
          "name": "account",
          "type": "address"
        },
        {
          "internalType": "uint256",
          "name": "accountSeqID",
          "type": "uint256"
        }
      ],
      "stateMutability": "view",
      "type": "function"
    },
    {
      "inputs": [
        {
          "internalType": "address",
          "name": "_graphAccount",
          "type": "address"
        },
        {
          "internalType": "uint256",
          "name": "_subgraphNumber",
          "type": "uint256"
        },
        {
          "internalType": "bytes32",
          "name": "_subgraphMetadata",
          "type": "bytes32"
        }
      ],
      "name": "migrateLegacySubgraph",
      "outputs": [],
      "stateMutability": "nonpayable",
      "type": "function"
    },
    {
      "inputs": [
        {
          "internalType": "uint256",
          "name": "_subgraphID",
          "type": "uint256"
        },
        {
          "internalType": "uint256",
          "name": "_tokensIn",
          "type": "uint256"
        },
        {
          "internalType": "uint256",
          "name": "_nSignalOutMin",
          "type": "uint256"
        }
      ],
      "name": "mintSignal",
      "outputs": [],
      "stateMutability": "nonpayable",
      "type": "function"
    },
    {
      "inputs": [
        {
          "internalType": "bytes[]",
          "name": "data",
          "type": "bytes[]"
        }
      ],
      "name": "multicall",
      "outputs": [
        {
          "internalType": "bytes[]",
          "name": "results",
          "type": "bytes[]"
        }
      ],
      "stateMutability": "nonpayable",
      "type": "function"
    },
    {
      "inputs": [
        {
          "internalType": "uint256",
          "name": "_subgraphID",
          "type": "uint256"
        },
        {
          "internalType": "uint256",
          "name": "_nSignalIn",
          "type": "uint256"
        }
      ],
      "name": "nSignalToTokens",
      "outputs": [
        {
          "internalType": "uint256",
          "name": "",
          "type": "uint256"
        },
        {
          "internalType": "uint256",
          "name": "",
          "type": "uint256"
        }
      ],
      "stateMutability": "view",
      "type": "function"
    },
    {
      "inputs": [
        {
          "internalType": "uint256",
          "name": "_subgraphID",
          "type": "uint256"
        },
        {
          "internalType": "uint256",
          "name": "_nSignalIn",
          "type": "uint256"
        }
      ],
      "name": "nSignalToVSignal",
      "outputs": [
        {
          "internalType": "uint256",
          "name": "",
          "type": "uint256"
        }
      ],
      "stateMutability": "view",
      "type": "function"
    },
    {
      "inputs": [
        {
          "internalType": "address",
          "name": "",
          "type": "address"
        }
      ],
      "name": "nextAccountSeqID",
      "outputs": [
        {
          "internalType": "uint256",
          "name": "",
          "type": "uint256"
        }
      ],
      "stateMutability": "view",
      "type": "function"
    },
    {
      "inputs": [
        {
          "internalType": "uint256",
          "name": "_tokenID",
          "type": "uint256"
        }
      ],
      "name": "ownerOf",
      "outputs": [
        {
          "internalType": "address",
          "name": "",
          "type": "address"
        }
      ],
      "stateMutability": "view",
      "type": "function"
    },
    {
      "inputs": [],
      "name": "ownerTaxPercentage",
      "outputs": [
        {
          "internalType": "uint32",
          "name": "",
          "type": "uint32"
        }
      ],
      "stateMutability": "view",
      "type": "function"
    },
    {
      "inputs": [
        {
          "internalType": "bytes32",
          "name": "_subgraphDeploymentID",
          "type": "bytes32"
        },
        {
          "internalType": "bytes32",
          "name": "_versionMetadata",
          "type": "bytes32"
        },
        {
          "internalType": "bytes32",
          "name": "_subgraphMetadata",
          "type": "bytes32"
        }
      ],
      "name": "publishNewSubgraph",
      "outputs": [],
      "stateMutability": "nonpayable",
      "type": "function"
    },
    {
      "inputs": [
        {
          "internalType": "uint256",
          "name": "_subgraphID",
          "type": "uint256"
        },
        {
          "internalType": "bytes32",
          "name": "_subgraphDeploymentID",
          "type": "bytes32"
        },
        {
          "internalType": "bytes32",
          "name": "_versionMetadata",
          "type": "bytes32"
        }
      ],
      "name": "publishNewVersion",
      "outputs": [],
      "stateMutability": "nonpayable",
      "type": "function"
    },
    {
      "inputs": [
        {
          "internalType": "uint256",
          "name": "_subgraphID",
          "type": "uint256"
        },
        {
          "internalType": "address",
          "name": "_beneficiary",
          "type": "address"
        },
        {
          "internalType": "uint256",
          "name": "_maxGas",
          "type": "uint256"
        },
        {
          "internalType": "uint256",
          "name": "_gasPriceBid",
          "type": "uint256"
        },
        {
          "internalType": "uint256",
          "name": "_maxSubmissionCost",
          "type": "uint256"
        }
      ],
      "name": "sendCuratorBalanceToBeneficiaryOnL2",
      "outputs": [],
      "stateMutability": "payable",
      "type": "function"
    },
    {
      "inputs": [
        {
          "internalType": "uint256",
          "name": "_subgraphID",
          "type": "uint256"
        },
        {
          "internalType": "address",
          "name": "_l2Owner",
          "type": "address"
        },
        {
          "internalType": "uint256",
          "name": "_maxGas",
          "type": "uint256"
        },
        {
          "internalType": "uint256",
          "name": "_gasPriceBid",
          "type": "uint256"
        },
        {
          "internalType": "uint256",
          "name": "_maxSubmissionCost",
          "type": "uint256"
        }
      ],
      "name": "sendSubgraphToL2",
      "outputs": [],
      "stateMutability": "payable",
      "type": "function"
    },
    {
      "inputs": [
        {
          "internalType": "address",
          "name": "_controller",
          "type": "address"
        }
      ],
      "name": "setController",
      "outputs": [],
      "stateMutability": "nonpayable",
      "type": "function"
    },
    {
      "inputs": [
        {
          "internalType": "address",
          "name": "_counterpart",
          "type": "address"
        }
      ],
      "name": "setCounterpartGNSAddress",
      "outputs": [],
      "stateMutability": "nonpayable",
      "type": "function"
    },
    {
      "inputs": [
        {
          "internalType": "address",
          "name": "_graphAccount",
          "type": "address"
        },
        {
          "internalType": "uint8",
          "name": "_nameSystem",
          "type": "uint8"
        },
        {
          "internalType": "bytes32",
          "name": "_nameIdentifier",
          "type": "bytes32"
        },
        {
          "internalType": "string",
          "name": "_name",
          "type": "string"
        }
      ],
      "name": "setDefaultName",
      "outputs": [],
      "stateMutability": "nonpayable",
      "type": "function"
    },
    {
      "inputs": [
        {
          "internalType": "uint32",
          "name": "_ownerTaxPercentage",
          "type": "uint32"
        }
      ],
      "name": "setOwnerTaxPercentage",
      "outputs": [],
      "stateMutability": "nonpayable",
      "type": "function"
    },
    {
      "inputs": [
        {
          "internalType": "address",
          "name": "_subgraphNFT",
          "type": "address"
        }
      ],
      "name": "setSubgraphNFT",
      "outputs": [],
      "stateMutability": "nonpayable",
      "type": "function"
    },
    {
      "inputs": [],
      "name": "subgraphNFT",
      "outputs": [
        {
          "internalType": "contract ISubgraphNFT",
          "name": "",
          "type": "address"
        }
      ],
      "stateMutability": "view",
      "type": "function"
    },
    {
      "inputs": [
        {
          "internalType": "uint256",
          "name": "_subgraphID",
          "type": "uint256"
        }
      ],
      "name": "subgraphSignal",
      "outputs": [
        {
          "internalType": "uint256",
          "name": "",
          "type": "uint256"
        }
      ],
      "stateMutability": "view",
      "type": "function"
    },
    {
      "inputs": [
        {
          "internalType": "uint256",
          "name": "_subgraphID",
          "type": "uint256"
        }
      ],
      "name": "subgraphTokens",
      "outputs": [
        {
          "internalType": "uint256",
          "name": "",
          "type": "uint256"
        }
      ],
      "stateMutability": "view",
      "type": "function"
    },
    {
      "inputs": [
        {
          "internalType": "uint256",
          "name": "",
          "type": "uint256"
        }
      ],
      "name": "subgraphTransferredToL2",
      "outputs": [
        {
          "internalType": "bool",
          "name": "",
          "type": "bool"
        }
      ],
      "stateMutability": "view",
      "type": "function"
    },
    {
      "inputs": [
        {
          "internalType": "uint256",
          "name": "",
          "type": "uint256"
        }
      ],
      "name": "subgraphs",
      "outputs": [
        {
          "internalType": "uint256",
          "name": "vSignal",
          "type": "uint256"
        },
        {
          "internalType": "uint256",
          "name": "nSignal",
          "type": "uint256"
        },
        {
          "internalType": "bytes32",
          "name": "subgraphDeploymentID",
          "type": "bytes32"
        },
        {
          "internalType": "uint32",
          "name": "__DEPRECATED_reserveRatio",
          "type": "uint32"
        },
        {
          "internalType": "bool",
          "name": "disabled",
          "type": "bool"
        },
        {
          "internalType": "uint256",
          "name": "withdrawableGRT",
          "type": "uint256"
        }
      ],
      "stateMutability": "view",
      "type": "function"
    },
    {
      "inputs": [],
      "name": "syncAllContracts",
      "outputs": [],
      "stateMutability": "nonpayable",
      "type": "function"
    },
    {
      "inputs": [
        {
          "internalType": "uint256",
          "name": "_subgraphID",
          "type": "uint256"
        },
        {
          "internalType": "uint256",
          "name": "_tokensIn",
          "type": "uint256"
        }
      ],
      "name": "tokensToNSignal",
      "outputs": [
        {
          "internalType": "uint256",
          "name": "",
          "type": "uint256"
        },
        {
          "internalType": "uint256",
          "name": "",
          "type": "uint256"
        },
        {
          "internalType": "uint256",
          "name": "",
          "type": "uint256"
        }
      ],
      "stateMutability": "view",
      "type": "function"
    },
    {
      "inputs": [
        {
          "internalType": "uint256",
          "name": "_subgraphID",
          "type": "uint256"
        },
        {
          "internalType": "address",
          "name": "_recipient",
          "type": "address"
        },
        {
          "internalType": "uint256",
          "name": "_amount",
          "type": "uint256"
        }
      ],
      "name": "transferSignal",
      "outputs": [],
      "stateMutability": "nonpayable",
      "type": "function"
    },
    {
      "inputs": [
        {
          "internalType": "uint256",
          "name": "_subgraphID",
          "type": "uint256"
        },
        {
          "internalType": "bytes32",
          "name": "_subgraphMetadata",
          "type": "bytes32"
        }
      ],
      "name": "updateSubgraphMetadata",
      "outputs": [],
      "stateMutability": "nonpayable",
      "type": "function"
    },
    {
      "inputs": [
        {
          "internalType": "uint256",
          "name": "_subgraphID",
          "type": "uint256"
        },
        {
          "internalType": "uint256",
          "name": "_vSignalIn",
          "type": "uint256"
        }
      ],
      "name": "vSignalToNSignal",
      "outputs": [
        {
          "internalType": "uint256",
          "name": "",
          "type": "uint256"
        }
      ],
      "stateMutability": "view",
      "type": "function"
    },
    {
      "inputs": [
        {
          "internalType": "uint256",
          "name": "_subgraphID",
          "type": "uint256"
        }
      ],
      "name": "withdraw",
      "outputs": [],
      "stateMutability": "nonpayable",
      "type": "function"
    }
  ],
  "bytecode": "0x6101806040527fe6876326c1291dfcbbd3864a6816d698cd591defc7aa2153d7f9c4c04016c89f6080527fc713c3df6d14cdf946460395d09af88993ee2b948b1a808161494e32c5f6706360a0527f966f1e8d8d8014e05f6ec4a57138da9be1f7c5a7f802928a18072f7c5318076160c0527f1df41cd916959d1163dc8f0671a666ea8a3e434c13e40faef527133b5d16703460e0527f45fc200c7e4544e457d3c5709bfe0d520442c30bbcbdaede89e8d4a4bbc19247610100527fd362cac9cb75c10d67bcc0b7eeb0b1ef48bb5420b556c092d4fd7f758816fcf0610120527f39605a6c26a173774ca666c67ef70cf491880e5d3d6d0ca66ec0a31034f15ea361014052613d0960e61b6101605234801561011a57600080fd5b5060805160a05160c05160e0516101005161012051610140516101605160e01c61438c61018f60003980611306528061135f5250806120cc5250806120a352806134c752508061207a5280612957525080612051525080612028525080611fff525080611fd65280612a4d525061438c6000f3fe6080604052600436106102725760003560e01c80639f0f22b71161014f578063cc2d23c7116100c1578063d88253861161007a578063d88253861461079a578063d916f277146107ba578063e1329732146107da578063e47ae80b146107fa578063eec16b0e1461081a578063f77c47911461082f57610272565b8063cc2d23c7146106f2578063cc4f679514610712578063d2a8a9ae14610732578063d495f9a714610745578063d6866ea514610765578063d797f4bb1461077a57610272565b8063ac9650d811610113578063ac9650d814610617578063b223505614610644578063b22ff4e814610664578063b43f6a0214610684578063b78edf70146106b2578063be8f4920146106d257610272565b80639f0f22b714610582578063a2594d82146105a2578063a32571ee146105c2578063a49a15f1146105d7578063a5143f02146105f757610272565b806353f615c9116101e8578063721eb08b116101ac578063721eb08b146104b55780637b156fb5146104e25780637ba95862146105025780637bd1b0bf1461052257806392eefe9b146105425780639ce7abe51461056257610272565b806353f615c9146103f957806356ee0a85146104285780636352211e1461044857806363bd3abe146104755780636a464ac21461049557610272565b8063380d0c081161023a578063380d0c081461034f578063428e593614610364578063485cc955146103865780634ca94ed5146103a65780634dbecf2f146103c65780634e8eb59b146103e657610272565b806314a76fdb14610277578063186722fa146102ae5780632d8fcdc1146102db5780632e1a7d4d146102fd5780633710652c1461031d575b600080fd5b34801561028357600080fd5b506102976102923660046138a3565b610844565b6040516102a5929190613aea565b60405180910390f35b3480156102ba57600080fd5b506102ce6102c93660046138d3565b610868565b6040516102a59190613b6e565b3480156102e757600080fd5b506102fb6102f6366004613975565b610899565b005b34801561030957600080fd5b506102fb6103183660046138a3565b6108da565b34801561032957600080fd5b5061033d61033836600461367b565b610a44565b6040516102a5969594939291906141c6565b34801561035b57600080fd5b506102fb610a92565b34801561037057600080fd5b50610379610b25565b6040516102a591906141f6565b34801561039257600080fd5b506102fb6103a1366004613643565b610b31565b3480156103b257600080fd5b506102976103c13660046138a3565b610c6d565b3480156103d257600080fd5b506102ce6103e13660046138a3565b610c92565b6102fb6103f436600461392e565b610ccc565b34801561040557600080fd5b50610419610414366004613975565b610e86565b6040516102a593929190613b85565b34801561043457600080fd5b506102fb6104433660046138a3565b610f43565b34801561045457600080fd5b506104686104633660046138a3565b61109b565b6040516102a59190613a8d565b34801561048157600080fd5b506102fb6104903660046138f7565b61111c565b3480156104a157600080fd5b5061033d6104b03660046138a3565b611247565b3480156104c157600080fd5b506104d56104d03660046138a3565b61128a565b6040516102a59190613b63565b3480156104ee57600080fd5b506104d56104fd3660046138a3565b61129f565b34801561050e57600080fd5b506102fb61051d3660046137df565b6112b2565b34801561052e57600080fd5b506102fb61053d366004613996565b6113de565b34801561054e57600080fd5b506102fb61055d36600461360b565b61161c565b34801561056e57600080fd5b506102fb61057d366004613850565b61162d565b34801561058e57600080fd5b506102fb61059d36600461360b565b611783565b3480156105ae57600080fd5b506102fb6105bd36600461360b565b6117e1565b3480156105ce57600080fd5b506104686118fc565b3480156105e357600080fd5b506102ce6105f2366004613975565b61190b565b34801561060357600080fd5b506102fb61061236600461360b565b611947565b34801561062357600080fd5b50610637610632366004613750565b611958565b6040516102a59190613b03565b34801561065057600080fd5b506102ce61065f36600461360b565b611a98565b34801561067057600080fd5b506102fb61067f3660046136a6565b611aaa565b34801561069057600080fd5b506106a461069f366004613975565b611bf1565b6040516102a5929190613b77565b3480156106be57600080fd5b506102fb6106cd3660046139cd565b611caa565b3480156106de57600080fd5b506102ce6106ed3660046138a3565b611cbb565b3480156106fe57600080fd5b506102fb61070d3660046136da565b611cd0565b34801561071e57600080fd5b506102ce61072d3660046138a3565b611d46565b6102fb61074036600461392e565b611d5d565b34801561075157600080fd5b506102ce610760366004613975565b611fad565b34801561077157600080fd5b506102fb611fd1565b34801561078657600080fd5b506104d56107953660046138a3565b6120f2565b3480156107a657600080fd5b506102fb6107b5366004613996565b612111565b3480156107c657600080fd5b506102fb6107d5366004613975565b6122a6565b3480156107e657600080fd5b506102fb6107f5366004613996565b6122e1565b34801561080657600080fd5b506102ce6108153660046138a3565b612629565b34801561082657600080fd5b50610468612640565b34801561083b57600080fd5b5061046861264f565b600090815260116020526040902080546001909101546001600160a01b0390911691565b60006108738361265e565b6001600160a01b0383166000908152600291909101602052604090205490505b92915050565b336000818152600f602090815260408083208684528252808320938352600d82528083209583529490529290922081905560038201556103e8600190910155565b6108e26126be565b60006108ed8261265e565b6004810154909150640100000000900460ff16151560011461092a5760405162461bcd60e51b815260040161092190614077565b60405180910390fd5b600581015461094b5760405162461bcd60e51b815260040161092190613c5c565b3360008181526002830160205260409020548061097a5760405162461bcd60e51b815260040161092190613f26565b60006109a1846001015461099b86600501548561282c90919063ffffffff16565b9061288c565b6001600160a01b038416600090815260028601602052604081205560018501549091506109ce90836128f3565b600185015560058401546109e290826128f3565b60058501556109f96109f2612950565b8483612980565b826001600160a01b0316857f701e7dc86c5934137b4568fac9400bdf22f13b5ec2f228b65353c5d9e3faed9a8484604051610a35929190613b77565b60405180910390a35050505050565b600f6020908152600092835260408084209091529082529020805460018201546003830154600484015460059094015492939192909163ffffffff81169164010000000090910460ff169086565b610a9a612950565b6001600160a01b031663095ea7b3610ab0612a46565b6000196040518363ffffffff1660e01b8152600401610ad0929190613aea565b602060405180830381600087803b158015610aea57600080fd5b505af1158015610afe573d6000803e3d6000fd5b505050506040513d601f19601f82011682018060405250810190610b2291906137bf565b50565b600c5463ffffffff1681565b610b39612a71565b6001600160a01b0316336001600160a01b031614610b94576040805162461bcd60e51b815260206004820152601360248201527227b7363c9034b6b83632b6b2b73a30ba34b7b760691b604482015290519081900360640190fd5b601354600160a81b900460ff1680610baf5750610baf612a96565b80610bc45750601354600160a01b900460ff16155b610bff5760405162461bcd60e51b815260040180806020018281038252602e815260200180614308602e913960400191505060405180910390fd5b601354600160a81b900460ff16158015610c36576013805460ff60a01b1960ff60a81b19909116600160a81b1716600160a01b1790555b610c3f83611624565b610c4b6207a120612aa7565b610c5482612b13565b8015610c68576013805460ff60a81b191690555b505050565b601160205260009081526040902080546001909101546001600160a01b039091169082565b600080610c9e8361265e565b6001015490508015610cc1576000610cb68483611bf1565b9350610cc792505050565b60009150505b919050565b610cd46126be565b60008581526047602052604090205460ff16610d025760405162461bcd60e51b815260040161092190613e53565b610d16610d0f848461282c565b8290612ba9565b3414610d345760405162461bcd60e51b8152600401610921906140da565b80610d515760405162461bcd60e51b815260040161092190613d01565b6000610d5c8661265e565b33600090815260028201602052604090205490915080610d8e5760405162461bcd60e51b815260040161092190614054565b600182015480610db05760405162461bcd60e51b815260040161092190614002565b60058301546000610dc58361099b868561282c565b9050600060018b8b604051602001610ddf93929190614247565b60408051601f1981840301815291815233600090815260028901602052908120559050610e0c84866128f3565b6001870155610e1b83836128f3565b6005870155610e2d828a8a8a85612c03565b896001600160a01b0316336001600160a01b03168c7fd6383ec977aa990dcf95328dfe34720fddeb10f1f0f95d26323f2aeb45acfcc485604051610e719190613b6e565b60405180910390a45050505050505050505050565b600080600080610e958661265e565b9050600080610ea2612a46565b6001600160a01b031663f049b9008460030154896040518363ffffffff1660e01b8152600401610ed3929190613b77565b604080518083038186803b158015610eea57600080fd5b505afa158015610efe573d6000803e3d6000fd5b505050506040513d601f19601f82011682018060405250810190610f2291906139aa565b915091506000610f32898461190b565b929650919450925050509250925092565b610f4b612d61565b8033610f568261109b565b6001600160a01b031614610f7c5760405162461bcd60e51b815260040161092190613e1c565b6000610f8783612e14565b9050806001015460001461102d57610f9d612a46565b600382015482546040516324bdeec760e01b81526001600160a01b0393909316926324bdeec792610fd5929091600090600401613b85565b602060405180830381600087803b158015610fef57600080fd5b505af1158015611003573d6000803e3d6000fd5b505050506040513d601f19601f8201168201806040525081019061102791906138bb565b60058201555b6004810180546000835563ffffffff1964ff00000000199091166401000000001716905561105a83612e4c565b827f905d48df574e150b8a08750819de0ccc5cd215a93b9ec0a345cf59687987bba1826005015460405161108e9190613b6e565b60405180910390a2505050565b6013546040516331a9108f60e11b81526000916001600160a01b031690636352211e906110cc908590600401613b6e565b60206040518083038186803b1580156110e457600080fd5b505afa1580156110f8573d6000803e3d6000fd5b505050506040513d601f19601f820116820180604052508101906108939190613627565b6111246126be565b6001600160a01b03821661114a5760405162461bcd60e51b815260040161092190613ed6565b600061115584612e14565b336000818152600283016020526040902054919250908381101561118b5760405162461bcd60e51b815260040161092190613bd9565b6001600160a01b03821660009081526002840160205260409020546111b090856128f3565b6001600160a01b03808416600090815260028601602052604080822093909355908716815220546111e19085612ba9565b6001600160a01b038087166000818152600287016020526040908190209390935591519084169088907fd19c405bc04c469894f477d64318c38f5020a981b28f807b826a870e9364d38490611237908990613b6e565b60405180910390a4505050505050565b6012602052600090815260409020805460018201546003830154600484015460059094015492939192909163ffffffff81169164010000000090910460ff169086565b60476020526000908152604090205460ff1681565b60006108936112ad8361265e565b612eaa565b6112ba612d61565b826112d75760405162461bcd60e51b815260040161092190613d2d565b3360006112e382612ecf565b905060006112f08261265e565b6003810187905560048101805463ffffffff19167f000000000000000000000000000000000000000000000000000000000000000063ffffffff16179055905061133a8383612ee3565b85827f42a544925af95c7d50835f669fa06cc226acbf9eea3d0cb552b1b09bc89014267f000000000000000000000000000000000000000000000000000000000000000060405161138b91906141f6565b60405180910390a361139d8285612f2f565b85827f71d6df5ad69625753de8b2afc150d9b8acb2d12befb0f4709a75a18e3f7bd4bc876040516113ce9190613b6e565b60405180910390a3505050505050565b6113e66126be565b60006113f184612e14565b33600081815260028301602052604090205491925090808511156114275760405162461bcd60e51b815260040161092190613e79565b60006114338787611fad565b9050600061143f612a46565b6001600160a01b03166324bdeec7866003015484896040518463ffffffff1660e01b815260040161147293929190613b85565b602060405180830381600087803b15801561148c57600080fd5b505af11580156114a0573d6000803e3d6000fd5b505050506040513d601f19601f820116820180604052508101906114c491906138bb565b85549091506114d390836128f3565b855560018501546114e490886128f3565b60018601556001600160a01b038416600090815260028601602052604090205461150e90886128f3565b6001600160a01b0385166000908152600287016020526040902055611531612950565b6001600160a01b031663a9059cbb85836040518363ffffffff1660e01b815260040161155e929190613aea565b602060405180830381600087803b15801561157857600080fd5b505af115801561158c573d6000803e3d6000fd5b505050506040513d601f19601f820116820180604052508101906115b091906137bf565b6115cc5760405162461bcd60e51b815260040161092190613c25565b836001600160a01b0316887fdb086805544ba7be72d282e47b7953d4cef0437f386b8a704f65304c9076e49289858560405161160a93929190613b85565b60405180910390a35050505050505050565b611624612fcf565b610b228161302e565b82806001600160a01b031663f851a4406040518163ffffffff1660e01b8152600401602060405180830381600087803b15801561166957600080fd5b505af115801561167d573d6000803e3d6000fd5b505050506040513d602081101561169357600080fd5b50516001600160a01b031633146116f1576040805162461bcd60e51b815260206004820152601e60248201527f43616c6c6572206d757374206265207468652070726f78792061646d696e0000604482015290519081900360640190fd5b60405163623faf6160e01b8152602060048201908152602482018490526001600160a01b0386169163623faf619186918691908190604401848480828437600081840152601f19601f8201169050808301925050509350505050600060405180830381600087803b15801561176557600080fd5b505af1158015611779573d6000803e3d6000fd5b5050505050505050565b61178b6130d6565b601480546001600160a01b0319166001600160a01b0383161790556040517f4ce4c2262a11970f8ffd6d6d1ff56c1524511bcc3c7fdeacc617cac4ea32f941906117d6908390613a8d565b60405180910390a150565b80806001600160a01b031663f851a4406040518163ffffffff1660e01b8152600401602060405180830381600087803b15801561181d57600080fd5b505af1158015611831573d6000803e3d6000fd5b505050506040513d602081101561184757600080fd5b50516001600160a01b031633146118a5576040805162461bcd60e51b815260206004820152601e60248201527f43616c6c6572206d757374206265207468652070726f78792061646d696e0000604482015290519081900360640190fd5b816001600160a01b03166359fc20bb6040518163ffffffff1660e01b8152600401600060405180830381600087803b1580156118e057600080fd5b505af11580156118f4573d6000803e3d6000fd5b505050505050565b6014546001600160a01b031681565b6000806119178461265e565b80549091506119295782915050610893565b8054600182015461193f919061099b908661282c565b949350505050565b61194f6130d6565b610b2281612b13565b60608167ffffffffffffffff8111801561197157600080fd5b506040519080825280602002602001820160405280156119a557816020015b60608152602001906001900390816119905790505b50905060005b82811015611a9157600080308686858181106119c357fe5b90506020028101906119d5919061426b565b6040516119e3929190613a7d565b600060405180830381855af49150503d8060008114611a1e576040519150601f19603f3d011682016040523d82523d6000602084013e611a23565b606091505b509150915081611a6f57604481511015611a3c57600080fd5b60048101905080806020019051810190611a56919061380a565b60405162461bcd60e51b81526004016109219190613b9b565b80848481518110611a7c57fe5b602090810291909101015250506001016119ab565b5092915050565b600e6020526000908152604090205481565b6001600160a01b0383166000908152600f60209081526040808320858452909152902060030154151560018114611af35760405162461bcd60e51b815260040161092190613cca565b6000611aff85856131aa565b6000818152601160205260409020549091506001600160a01b031615611b375760405162461bcd60e51b815260040161092190614105565b6040805180820182526001600160a01b038781168083526020808401898152600087815260118352868120955186546001600160a01b0319169516949094178555516001909401939093558152600d825282812087825290915290812055611b9f8582612ee3565b846001600160a01b03167f1590ec92d5ae8bf80e189f72f046f321fd1b70e45e90d132efbeca8ccea6b58785604051611bd89190613b6e565b60405180910390a2611bea8184612f2f565b5050505050565b6000806000611bff85612e14565b90506000611c0d8686611fad565b90506000611c19612a46565b6001600160a01b0316630faaf87f8460030154846040518363ffffffff1660e01b8152600401611c4a929190613b77565b60206040518083038186803b158015611c6257600080fd5b505afa158015611c76573d6000803e3d6000fd5b505050506040513d601f19601f82011682018060405250810190611c9a91906138bb565b91945090925050505b9250929050565b611cb26130d6565b610b2281612aa7565b6000611cc68261265e565b6001015492915050565b6001600160a01b0385163314611cf85760405162461bcd60e51b815260040161092190613c93565b846001600160a01b03167f753d0210fc6efd1598dc3e8bd4ffb0b4e53c5d869213e7a0fa846271cd6b54b185858585604051611d379493929190614207565b60405180910390a25050505050565b600080611d528361265e565b600101549392505050565b611d656126be565b60008581526047602052604090205460ff1615611d945760405162461bcd60e51b81526004016109219061402e565b611da1610d0f848461282c565b3414611dbf5760405162461bcd60e51b8152600401610921906140da565b6000611dca86612e14565b905033611dd68761109b565b6001600160a01b031614611dfc5760405162461bcd60e51b815260040161092190613e1c565b6000868152604760205260408120805460ff19166001179055611e1d612a46565b600383015483546040516324bdeec760e01b81526001600160a01b0393909316926324bdeec792611e55929091600090600401613b85565b602060405180830381600087803b158015611e6f57600080fd5b505af1158015611e83573d6000803e3d6000fd5b505050506040513d601f19601f82011682018060405250810190611ea791906138bb565b60048301805464ff000000001916640100000000179055600080845533815260028401602052604081205460018501549293509190611eea8261099b858761282c565b3360009081526002870160205260408120559050611f0882846128f3565b6001860155611f1784826128f3565b60058601556000808b8b604051602001611f3393929190614247565b6040516020818303038152906040529050611f51828a8a8a85612c03565b60048601805463ffffffff19169055611f698b612e4c565b896001600160a01b0316336001600160a01b03168c7f5b5010c0f6a4bed182c1050c02e3b010581be95cb8e03fefe48b4207c11cc6fa85604051610e719190613b6e565b600080611fb98461265e565b6001810154815491925061193f9161099b908661282c565b611ffa7f00000000000000000000000000000000000000000000000000000000000000006131de565b6120237f00000000000000000000000000000000000000000000000000000000000000006131de565b61204c7f00000000000000000000000000000000000000000000000000000000000000006131de565b6120757f00000000000000000000000000000000000000000000000000000000000000006131de565b61209e7f00000000000000000000000000000000000000000000000000000000000000006131de565b6120c77f00000000000000000000000000000000000000000000000000000000000000006131de565b6120f07f00000000000000000000000000000000000000000000000000000000000000006131de565b565b6000806120fe83610844565b506001600160a01b031615159392505050565b6121196126be565b600061212484612e14565b905033612139612132612950565b82866132e0565b6000612143612a46565b6001600160a01b031663375a54ab84600301548760006040518463ffffffff1660e01b815260040161217793929190613b85565b6040805180830381600087803b15801561219057600080fd5b505af11580156121a4573d6000803e3d6000fd5b505050506040513d601f19601f820116820180604052508101906121c891906139aa565b50905060006121d7878361190b565b9050848110156121f95760405162461bcd60e51b815260040161092190613de5565b83546122059083612ba9565b845560018401546122169082612ba9565b60018501556001600160a01b03831660009081526002850160205260409020546122409082612ba9565b6001600160a01b03841660008181526002870160205260409081902092909255905188907fcd0609c8b7f9b3819c451a09420d1961056e219696df999be49338469b11b28a9061229590859087908c90613b85565b60405180910390a350505050505050565b81336122b18261109b565b6001600160a01b0316146122d75760405162461bcd60e51b815260040161092190613e1c565b610c688383612f2f565b6122e9612d61565b82336122f48261109b565b6001600160a01b03161461231a5760405162461bcd60e51b815260040161092190613e1c565b600061232585612e14565b9050836123445760405162461bcd60e51b815260040161092190613d2d565b80600301548414156123685760405162461bcd60e51b815260040161092190613d79565b6000612372612a46565b604051634c4ea0ed60e01b81529091506001600160a01b03821690634c4ea0ed906123a1908890600401613b6e565b60206040518083038186803b1580156123b957600080fd5b505afa1580156123cd573d6000803e3d6000fd5b505050506040513d601f19601f820116820180604052508101906123f191906137bf565b1561240e5760405162461bcd60e51b815260040161092190614146565b6001820154156125ef57600382015482546040516324bdeec760e01b81526000926001600160a01b038516926324bdeec7926124509291908690600401613b85565b602060405180830381600087803b15801561246a57600080fd5b505af115801561247e573d6000803e3d6000fd5b505050506040513d601f19601f820116820180604052508101906124a291906138bb565b9050600033905060006125268383866001600160a01b031663f115c4276040518163ffffffff1660e01b815260040160206040518083038186803b1580156124e957600080fd5b505afa1580156124fd573d6000803e3d6000fd5b505050506040513d601f19601f8201168201806040525081019061252191906139e9565b61333f565b60405163375a54ab60e01b81529091506001600160a01b0385169063375a54ab9061255a908b908590600090600401613b85565b6040805180830381600087803b15801561257357600080fd5b505af1158015612587573d6000803e3d6000fd5b505050506040513d601f19601f820116820180604052508101906125ab91906139aa565b5080865560405189918b917f4620aaedd9a7226ee6b84a89cb97fabff415eb1723fce6c87c41635cc8350896916125e3918690613b77565b60405180910390a35050505b84826003018190555084867f71d6df5ad69625753de8b2afc150d9b8acb2d12befb0f4709a75a18e3f7bd4bc866040516113ce9190613b6e565b6000806126358361265e565b600301549392505050565b6013546001600160a01b031681565b6000546001600160a01b031681565b600081815260116020526040812080546001600160a01b0316156126ab5780546001600160a01b03166000908152600f602090815260408083206001909401548352929052209050610cc7565b5050600090815260126020526040902090565b60008054906101000a90046001600160a01b03166001600160a01b0316635c975abb6040518163ffffffff1660e01b815260040160206040518083038186803b15801561270a57600080fd5b505afa15801561271e573d6000803e3d6000fd5b505050506040513d602081101561273457600080fd5b505115612771576040805162461bcd60e51b815260206004820152600660248201526514185d5cd95960d21b604482015290519081900360640190fd5b60008054906101000a90046001600160a01b03166001600160a01b0316632e292fc76040518163ffffffff1660e01b815260040160206040518083038186803b1580156127bd57600080fd5b505afa1580156127d1573d6000803e3d6000fd5b505050506040513d60208110156127e757600080fd5b5051156120f0576040805162461bcd60e51b815260206004820152600e60248201526d14185c9d1a585b0b5c185d5cd95960921b604482015290519081900360640190fd5b60008261283b57506000610893565b8282028284828161284857fe5b04146128855760405162461bcd60e51b81526004018080602001828103825260218152602001806143366021913960400191505060405180910390fd5b9392505050565b60008082116128e2576040805162461bcd60e51b815260206004820152601a60248201527f536166654d6174683a206469766973696f6e206279207a65726f000000000000604482015290519081900360640190fd5b8183816128eb57fe5b049392505050565b60008282111561294a576040805162461bcd60e51b815260206004820152601e60248201527f536166654d6174683a207375627472616374696f6e206f766572666c6f770000604482015290519081900360640190fd5b50900390565b600061297b7f000000000000000000000000000000000000000000000000000000000000000061341e565b905090565b8015610c6857826001600160a01b031663a9059cbb83836040518363ffffffff1660e01b815260040180836001600160a01b0316815260200182815260200192505050602060405180830381600087803b1580156129dd57600080fd5b505af11580156129f1573d6000803e3d6000fd5b505050506040513d6020811015612a0757600080fd5b5051610c68576040805162461bcd60e51b815260206004820152600960248201526810ba3930b739b332b960b91b604482015290519081900360640190fd5b600061297b7f000000000000000000000000000000000000000000000000000000000000000061341e565b7f360894a13ba1a3210667c828492db98dca3e2076cc3735a920a3ca505d382bbc5490565b6000612aa1306134ba565b15905090565b620f424063ffffffff82161115612ad05760405162461bcd60e51b815260040161092190613f5d565b600c805463ffffffff191663ffffffff83161790556040517f96d5a4b4edf1cefd0900c166d64447f8da1d01d1861a6a60894b5b82a2c15c3c906117d6906140ae565b6001600160a01b038116612b395760405162461bcd60e51b815260040161092190613f9e565b612b42816134ba565b612b5e5760405162461bcd60e51b815260040161092190613bae565b601380546001600160a01b0319166001600160a01b0383161790556040517f032c2d7eb1a395e5e65ff56b78c8b75f3925d2c0a30c6a9134f4f9f643e223ee906117d6908390613a8d565b600082820183811015612885576040805162461bcd60e51b815260206004820152601b60248201527f536166654d6174683a206164646974696f6e206f766572666c6f770000000000604482015290519081900360640190fd5b60008282604051602001612c189291906141ad565b60405160208183030381529060405290506000612c33612950565b90506000612c3f6134c0565b60405163095ea7b360e01b81529091506001600160a01b0383169063095ea7b390612c709084908c90600401613aea565b602060405180830381600087803b158015612c8a57600080fd5b505af1158015612c9e573d6000803e3d6000fd5b505050506040513d601f19601f82011682018060405250810190612cc291906137bf565b5060145460405163d2ce7d6560e01b81526001600160a01b038084169263d2ce7d65923492612d009288929116908e908e908e908c90600401613aa1565b6000604051808303818588803b158015612d1957600080fd5b505af1158015612d2d573d6000803e3d6000fd5b50505050506040513d6000823e601f3d908101601f19168201604052612d56919081019061380a565b505050505050505050565b60008054906101000a90046001600160a01b03166001600160a01b0316635c975abb6040518163ffffffff1660e01b815260040160206040518083038186803b158015612dad57600080fd5b505afa158015612dc1573d6000803e3d6000fd5b505050506040513d6020811015612dd757600080fd5b5051156120f0576040805162461bcd60e51b815260206004820152600660248201526514185d5cd95960d21b604482015290519081900360640190fd5b600080612e208361265e565b9050612e2b81612eaa565b15156001146108935760405162461bcd60e51b815260040161092190613fd5565b601354604051630852cd8d60e31b81526001600160a01b03909116906342966c6890612e7c908490600401613b6e565b600060405180830381600087803b158015612e9657600080fd5b505af1158015611bea573d6000803e3d6000fd5b60038101546000901580159061089357505060040154640100000000900460ff161590565b600061089382612ede846134eb565b61352f565b6013546040516340c10f1960e01b81526001600160a01b03909116906340c10f1990612f159085908590600401613aea565b600060405180830381600087803b1580156118e057600080fd5b601354604051631cc5946960e11b81526001600160a01b039091169063398b28d290612f619085908590600401613b77565b600060405180830381600087803b158015612f7b57600080fd5b505af1158015612f8f573d6000803e3d6000fd5b50505050817fd0348d353ba9da6b560ddf6465c3faf849b78869806be8900a829c064b8d4b2182604051612fc39190613b6e565b60405180910390a25050565b6000546001600160a01b031633146120f0576040805162461bcd60e51b815260206004820152601960248201527f43616c6c6572206d75737420626520436f6e74726f6c6c657200000000000000604482015290519081900360640190fd5b6001600160a01b038116613082576040805162461bcd60e51b815260206004820152601660248201527510dbdb9d1c9bdb1b195c881b5d5cdd081899481cd95d60521b604482015290519081900360640190fd5b600080546001600160a01b0383166001600160a01b0319909116811790915560408051918252517f4ff638452bbf33c012645d18ae6f05515ff5f2d1dfb0cece8cbf018c60903f709181900360200190a150565b60008054906101000a90046001600160a01b03166001600160a01b0316634fc07d756040518163ffffffff1660e01b815260040160206040518083038186803b15801561312257600080fd5b505afa158015613136573d6000803e3d6000fd5b505050506040513d602081101561314c57600080fd5b50516001600160a01b031633146120f0576040805162461bcd60e51b815260206004820152601860248201527f4f6e6c7920436f6e74726f6c6c657220676f7665726e6f720000000000000000604482015290519081900360640190fd5b600082826040516020016131bf929190613a31565b60408051601f1981840301815291905280516020909101209392505050565b6000805460408051637bb20d2f60e11b81526004810185905290516001600160a01b039092169163f7641a5e91602480820192602092909190829003018186803b15801561322b57600080fd5b505afa15801561323f573d6000803e3d6000fd5b505050506040513d602081101561325557600080fd5b50516000838152600160205260409020549091506001600160a01b038083169116146132dc5760008281526001602090815260409182902080546001600160a01b0319166001600160a01b0385169081179091558251908152915184927fd0e7a942b1fc38c411c4f53d153ba14fd24542a6a35ebacd9b6afca1a154e20692908290030190a25b5050565b8015610c6857604080516323b872dd60e01b81526001600160a01b038481166004830152306024830152604482018490529151918516916323b872dd916064808201926020929091908290030181600087803b1580156129dd57600080fd5b600063ffffffff8216158061335a5750600c5463ffffffff16155b15613366575082612885565b6000613382620f424061099b8763ffffffff8781169061282c16565b9050600061339086836128f3565b600c549091506000906133b790620f42409061099b90869063ffffffff9081169061282c16565b905060006133c58383612ba9565b905060006133ef6133e2620f424063ffffffff808b16906128f316565b61099b84620f424061282c565b905060006133fd828b6128f3565b905061341161340a612950565b8a836132e0565b5098975050505050505050565b6000818152600160205260408120546001600160a01b0316806108935760005460408051637bb20d2f60e11b81526004810186905290516001600160a01b039092169163f7641a5e91602480820192602092909190829003018186803b15801561348757600080fd5b505afa15801561349b573d6000803e3d6000fd5b505050506040513d60208110156134b157600080fd5b50519392505050565b3b151590565b600061297b7f000000000000000000000000000000000000000000000000000000000000000061341e565b6001600160a01b0381166000908152600e602052604081205461350f816001612ba9565b6001600160a01b0384166000908152600e60205260409020559050919050565b604051600090469061354990859085908490602001613a53565b60408051601f198184030181529190528051602090910120949350505050565b600067ffffffffffffffff8084111561357e57fe5b604051601f8501601f19168101602001828111828210171561359c57fe5b6040528481529150818385018610156135b457600080fd5b6135c28560208301866142b0565b50509392505050565b60008083601f8401126135dc578182fd5b50813567ffffffffffffffff8111156135f3578182fd5b602083019150836020828501011115611ca357600080fd5b60006020828403121561361c578081fd5b8135612885816142e0565b600060208284031215613638578081fd5b8151612885816142e0565b60008060408385031215613655578081fd5b8235613660816142e0565b91506020830135613670816142e0565b809150509250929050565b6000806040838503121561368d578182fd5b8235613698816142e0565b946020939093013593505050565b6000806000606084860312156136ba578081fd5b83356136c5816142e0565b95602085013595506040909401359392505050565b6000806000806000608086880312156136f1578081fd5b85356136fc816142e0565b9450602086013560ff81168114613711578182fd5b935060408601359250606086013567ffffffffffffffff811115613733578182fd5b61373f888289016135cb565b969995985093965092949392505050565b60008060208385031215613762578182fd5b823567ffffffffffffffff80821115613779578384fd5b818501915085601f83011261378c578384fd5b81358181111561379a578485fd5b86602080830285010111156137ad578485fd5b60209290920196919550909350505050565b6000602082840312156137d0578081fd5b81518015158114612885578182fd5b6000806000606084860312156137f3578283fd5b505081359360208301359350604090920135919050565b60006020828403121561381b578081fd5b815167ffffffffffffffff811115613831578182fd5b8201601f81018413613841578182fd5b61193f84825160208401613569565b600080600060408486031215613864578081fd5b833561386f816142e0565b9250602084013567ffffffffffffffff81111561388a578182fd5b613896868287016135cb565b9497909650939450505050565b6000602082840312156138b4578081fd5b5035919050565b6000602082840312156138cc578081fd5b5051919050565b600080604083850312156138e5578182fd5b823591506020830135613670816142e0565b60008060006060848603121561390b578081fd5b83359250602084013561391d816142e0565b929592945050506040919091013590565b600080600080600060a08688031215613945578283fd5b853594506020860135613957816142e0565b94979496505050506040830135926060810135926080909101359150565b60008060408385031215613987578182fd5b50508035926020909101359150565b6000806000606084860312156137f3578081fd5b600080604083850312156139bc578182fd5b505080516020909101519092909150565b6000602082840312156139de578081fd5b8135612885816142f5565b6000602082840312156139fa578081fd5b8151612885816142f5565b60008151808452613a1d8160208601602086016142b0565b601f01601f19169290920160200192915050565b60609290921b6bffffffffffffffffffffffff19168252601482015260340190565b60609390931b6bffffffffffffffffffffffff191683526014830191909152603482015260540190565b6000828483379101908152919050565b6001600160a01b0391909116815260200190565b600060018060a01b03808916835280881660208401525085604083015284606083015283608083015260c060a0830152613ade60c0830184613a05565b98975050505050505050565b6001600160a01b03929092168252602082015260400190565b6000602080830181845280855180835260408601915060408482028701019250838701855b82811015613b5657603f19888603018452613b44858351613a05565b94509285019290850190600101613b28565b5092979650505050505050565b901515815260200190565b90815260200190565b918252602082015260400190565b9283526020830191909152604082015260600190565b6000602082526128856020830184613a05565b602080825260119082015270139195081b5d5cdd081899481d985b1a59607a1b604082015260600190565b6020808252602c908201527f474e533a2043757261746f72207472616e7366657220616d6f756e742065786360408201526b656564732062616c616e636560a01b606082015260800190565b60208082526019908201527f474e533a204572726f722073656e64696e6720746f6b656e7300000000000000604082015260600190565b6020808252601c908201527f474e533a204e6f206d6f72652047525420746f20776974686472617700000000604082015260600190565b6020808252601f908201527f474e533a204f6e6c7920796f752063616e2073657420796f7572206e616d6500604082015260600190565b6020808252601c908201527f474e533a20537562677261706820646f6573206e6f7420657869737400000000604082015260600190565b6020808252601290820152711393d7d4d550935254d4d253d397d0d3d4d560721b604082015260600190565b6020808252602c908201527f474e533a2043616e6e6f7420736574206465706c6f796d656e74494420746f2060408201526b06040d2dc40e0eac4d8d2e6d60a31b606082015260800190565b60208082526046908201527f474e533a2043616e6e6f74207075626c6973682061206e65772076657273696f60408201527f6e2077697468207468652073616d65207375626772617068206465706c6f796d606082015265195b9d08125160d21b608082015260a00190565b60208082526018908201527f474e533a20536c6970706167652070726f74656374696f6e0000000000000000604082015260600190565b60208082526017908201527f474e533a204d75737420626520617574686f72697a6564000000000000000000604082015260600190565b6020808252600c908201526b085514905394d1915494915160a21b604082015260600190565b60208082526038908201527f474e533a2043757261746f722063616e6e6f74207769746864726177206d6f7260408201527f65206e5369676e616c207468616e207468657920686176650000000000000000606082015260800190565b60208082526030908201527f474e533a2043757261746f722063616e6e6f74207472616e7366657220746f2060408201526f746865207a65726f206164647265737360801b606082015260800190565b6020808252601e908201527f474e533a204e6f207369676e616c20746f207769746864726177204752540000604082015260600190565b60208082526021908201527f4f776e657220746178206d757374206265204d41585f50504d206f72206c65736040820152607360f81b606082015260800190565b60208082526018908201527f4e465420616464726573732063616e74206265207a65726f0000000000000000604082015260600190565b602080825260139082015272474e533a204d7573742062652061637469766560681b604082015260600190565b6020808252601290820152711393d7d4d55091d490541217d4d251d3905360721b604082015260600190565b6020808252600c908201526b414c52454144595f444f4e4560a01b604082015260600190565b6020808252600990820152681393d7d4d251d3905360ba1b604082015260600190565b6020808252601b908201527f474e533a204d7573742062652064697361626c65642066697273740000000000604082015260600190565b6020808252601290820152716f776e657254617850657263656e7461676560701b604082015260600190565b602080825260119082015270494e56414c49445f4554485f56414c554560781b604082015260600190565b60208082526021908201527f474e533a2053756267726170682077617320616c726561647920636c61696d656040820152601960fa1b606082015260800190565b60208082526041908201527f474e533a204f776e65722063616e6e6f7420706f696e7420746f20612073756260408201527f67726170684944207468617420686173206265656e207072652d6375726174656060820152601960fa1b608082015260a00190565b60008382526040602083015261193f6040830184613a05565b9586526020860194909452604085019290925263ffffffff1660608401521515608083015260a082015260c00190565b63ffffffff91909116815260200190565b600060ff861682528460208301526060604083015282606083015282846080840137818301608090810191909152601f909201601f191601019392505050565b60ff93909316835260208301919091526001600160a01b0316604082015260600190565b6000808335601e19843603018112614281578283fd5b83018035915067ffffffffffffffff82111561429b578283fd5b602001915036819003821315611ca357600080fd5b60005b838110156142cb5781810151838201526020016142b3565b838111156142da576000848401525b50505050565b6001600160a01b0381168114610b2257600080fd5b63ffffffff81168114610b2257600080fdfe496e697469616c697a61626c653a20636f6e747261637420697320616c726561647920696e697469616c697a6564536166654d6174683a206d756c7469706c69636174696f6e206f766572666c6f77a264697066735822122099ac78740adbc056d0f92bf13f3e91cfe4921adf5587c3924598667ccc9c97c764736f6c63430007060033",
  "linkReferences": {},
  "deployedLinkReferences": {}
}