{
  "_format": "hh-sol-artifact-1",
  "contractName": "ArbSysMock",
  "sourceName": "contracts/tests/arbitrum/ArbSysMock.sol",
  "abi": [
    {
      "anonymous": false,
      "inputs": [
        {
          "indexed": true,
          "internalType": "address",
          "name": "from",
          "type": "address"
        },
        {
          "indexed": true,
          "internalType": "address",
          "name": "to",
          "type": "address"
        },
        {
          "indexed": true,
          "internalType": "uint256",
          "name": "id",
          "type": "uint256"
        },
        {
          "indexed": false,
          "internalType": "bytes",
          "name": "data",
          "type": "bytes"
        }
      ],
      "name": "L2ToL1Tx",
      "type": "event"
    },
    {
      "inputs": [
        {
          "internalType": "address",
          "name": "destination",
          "type": "address"
        },
        {
          "internalType": "bytes",
          "name": "calldataForL1",
          "type": "bytes"
        }
      ],
      "name": "sendTxToL1",
      "outputs": [
        {
          "internalType": "uint256",
          "name": "",
          "type": "uint256"
        }
      ],
      "stateMutability": "nonpayable",
      "type": "function"
    }
  ],
  "bytecode": "0x608060405234801561001057600080fd5b5061017c806100206000396000f3fe608060405234801561001057600080fd5b506004361061002b5760003560e01c8063928c169a14610030575b600080fd5b6100b06004803603604081101561004657600080fd5b6001600160a01b03823516919081019060408101602082013564010000000081111561007157600080fd5b82018360208201111561008357600080fd5b803590602001918460018302840111640100000000831117156100a557600080fd5b5090925090506100c2565b60408051918252519081900360200190f35b6000806001905080856001600160a01b0316336001600160a01b03167ff72ab6922d1f99274ba44fd3c0b22c8c3a9526235a962f52ed197f0795fd8677878760405180806020018281038252848482818152602001925080828437600083820152604051601f909101601f19169092018290039550909350505050a494935050505056fea2646970667358221220728bdf67e8e4a1b14e96eec7c7396b88b8465d9d616aa43bf50b282d39fc7fb864736f6c63430007060033",
  "linkReferences": {},
  "deployedLinkReferences": {}
}