{
  "_format": "hh-sol-artifact-1",
  "contractName": "BridgeMock",
  "sourceName": "contracts/tests/arbitrum/BridgeMock.sol",
  "abi": [
    {
      "anonymous": false,
      "inputs": [
        {
          "indexed": true,
          "internalType": "address",
          "name": "outbox",
          "type": "address"
        },
        {
          "indexed": true,
          "internalType": "address",
          "name": "destAddr",
          "type": "address"
        },
        {
          "indexed": false,
          "internalType": "uint256",
          "name": "amount",
          "type": "uint256"
        },
        {
          "indexed": false,
          "internalType": "bytes",
          "name": "data",
          "type": "bytes"
        }
      ],
      "name": "BridgeCallTriggered",
      "type": "event"
    },
    {
      "anonymous": false,
      "inputs": [
        {
          "indexed": true,
          "internalType": "address",
          "name": "inbox",
          "type": "address"
        },
        {
          "indexed": false,
          "internalType": "bool",
          "name": "enabled",
          "type": "bool"
        }
      ],
      "name": "InboxToggle",
      "type": "event"
    },
    {
      "anonymous": false,
      "inputs": [
        {
          "indexed": true,
          "internalType": "uint256",
          "name": "messageIndex",
          "type": "uint256"
        },
        {
          "indexed": true,
          "internalType": "bytes32",
          "name": "beforeInboxAcc",
          "type": "bytes32"
        },
        {
          "indexed": false,
          "internalType": "address",
          "name": "inbox",
          "type": "address"
        },
        {
          "indexed": false,
          "internalType": "uint8",
          "name": "kind",
          "type": "uint8"
        },
        {
          "indexed": false,
          "internalType": "address",
          "name": "sender",
          "type": "address"
        },
        {
          "indexed": false,
          "internalType": "bytes32",
          "name": "messageDataHash",
          "type": "bytes32"
        }
      ],
      "name": "MessageDelivered",
      "type": "event"
    },
    {
      "anonymous": false,
      "inputs": [
        {
          "indexed": true,
          "internalType": "address",
          "name": "outbox",
          "type": "address"
        },
        {
          "indexed": false,
          "internalType": "bool",
          "name": "enabled",
          "type": "bool"
        }
      ],
      "name": "OutboxToggle",
      "type": "event"
    },
    {
      "inputs": [],
      "name": "activeOutbox",
      "outputs": [
        {
          "internalType": "address",
          "name": "",
          "type": "address"
        }
      ],
      "stateMutability": "view",
      "type": "function"
    },
    {
      "inputs": [
        {
          "internalType": "address",
          "name": "_inbox",
          "type": "address"
        }
      ],
      "name": "allowedInboxes",
      "outputs": [
        {
          "internalType": "bool",
          "name": "",
          "type": "bool"
        }
      ],
      "stateMutability": "view",
      "type": "function"
    },
    {
      "inputs": [
        {
          "internalType": "address",
          "name": "_outbox",
          "type": "address"
        }
      ],
      "name": "allowedOutboxes",
      "outputs": [
        {
          "internalType": "bool",
          "name": "",
          "type": "bool"
        }
      ],
      "stateMutability": "view",
      "type": "function"
    },
    {
      "inputs": [
        {
          "internalType": "uint8",
          "name": "_kind",
          "type": "uint8"
        },
        {
          "internalType": "address",
          "name": "_sender",
          "type": "address"
        },
        {
          "internalType": "bytes32",
          "name": "_messageDataHash",
          "type": "bytes32"
        }
      ],
      "name": "deliverMessageToInbox",
      "outputs": [
        {
          "internalType": "uint256",
          "name": "",
          "type": "uint256"
        }
      ],
      "stateMutability": "payable",
      "type": "function"
    },
    {
      "inputs": [
        {
          "internalType": "address",
          "name": "_destAddr",
          "type": "address"
        },
        {
          "internalType": "uint256",
          "name": "_amount",
          "type": "uint256"
        },
        {
          "internalType": "bytes",
          "name": "_data",
          "type": "bytes"
        }
      ],
      "name": "executeCall",
      "outputs": [
        {
          "internalType": "bool",
          "name": "",
          "type": "bool"
        },
        {
          "internalType": "bytes",
          "name": "",
          "type": "bytes"
        }
      ],
      "stateMutability": "nonpayable",
      "type": "function"
    },
    {
      "inputs": [],
      "name": "inbox",
      "outputs": [
        {
          "internalType": "address",
          "name": "",
          "type": "address"
        }
      ],
      "stateMutability": "view",
      "type": "function"
    },
    {
      "inputs": [
        {
          "internalType": "uint256",
          "name": "",
          "type": "uint256"
        }
      ],
      "name": "inboxAccs",
      "outputs": [
        {
          "internalType": "bytes32",
          "name": "",
          "type": "bytes32"
        }
      ],
      "stateMutability": "view",
      "type": "function"
    },
    {
      "inputs": [],
      "name": "messageCount",
      "outputs": [
        {
          "internalType": "uint256",
          "name": "",
          "type": "uint256"
        }
      ],
      "stateMutability": "view",
      "type": "function"
    },
    {
      "inputs": [],
      "name": "messageIndex",
      "outputs": [
        {
          "internalType": "uint256",
          "name": "",
          "type": "uint256"
        }
      ],
      "stateMutability": "view",
      "type": "function"
    },
    {
      "inputs": [],
      "name": "outbox",
      "outputs": [
        {
          "internalType": "address",
          "name": "",
          "type": "address"
        }
      ],
      "stateMutability": "view",
      "type": "function"
    },
    {
      "inputs": [
        {
          "internalType": "address",
          "name": "_inbox",
          "type": "address"
        },
        {
          "internalType": "bool",
          "name": "_enabled",
          "type": "bool"
        }
      ],
      "name": "setInbox",
      "outputs": [],
      "stateMutability": "nonpayable",
      "type": "function"
    },
    {
      "inputs": [
        {
          "internalType": "address",
          "name": "_outbox",
          "type": "address"
        },
        {
          "internalType": "bool",
          "name": "_enabled",
          "type": "bool"
        }
      ],
      "name": "setOutbox",
      "outputs": [],
      "stateMutability": "nonpayable",
      "type": "function"
    }
  ],
  "bytecode": "0x608060405234801561001057600080fd5b5061078a806100206000396000f3fe6080604052600436106100a75760003560e01c8063c29372de11610064578063c29372de146102a8578063ce11e6ab146102db578063cee3d728146102f0578063d9dd67ab1461032d578063e45b7ce614610357578063fb0e722b14610392576100a7565b806302bbfad1146100ac5780633dbcc8d1146100f35780633e784e6314610108578063413b35bd1461011d5780639e5d4c4914610164578063ab5d894314610277575b600080fd5b6100e1600480360360608110156100c257600080fd5b5060ff813516906001600160a01b0360208201351690604001356103a7565b60408051918252519081900360200190f35b3480156100ff57600080fd5b506100e16104cb565b34801561011457600080fd5b506100e16104d1565b34801561012957600080fd5b506101506004803603602081101561014057600080fd5b50356001600160a01b03166104d7565b604080519115158252519081900360200190f35b34801561017057600080fd5b506101f66004803603606081101561018757600080fd5b6001600160a01b03823516916020810135918101906060810160408201356401000000008111156101b757600080fd5b8201836020820111156101c957600080fd5b803590602001918460018302840111640100000000831117156101eb57600080fd5b5090925090506104eb565b60405180831515815260200180602001828103825283818151815260200191508051906020019080838360005b8381101561023b578181015183820152602001610223565b50505050905090810190601f1680156102685780820380516001836020036101000a031916815260200191505b50935050505060405180910390f35b34801561028357600080fd5b5061028c610632565b604080516001600160a01b039092168252519081900360200190f35b3480156102b457600080fd5b50610150600480360360208110156102cb57600080fd5b50356001600160a01b0316610641565b3480156102e757600080fd5b5061028c610655565b3480156102fc57600080fd5b5061032b6004803603604081101561031357600080fd5b506001600160a01b0381351690602001351515610664565b005b34801561033957600080fd5b506100e16004803603602081101561035057600080fd5b50356106c4565b34801561036357600080fd5b5061032b6004803603604081101561037a57600080fd5b506001600160a01b03813516906020013515156106e5565b34801561039e57600080fd5b5061028c610745565b600280546001908101825560008054604080516bffffffffffffffffffffffff19606093841b81166020808401919091526001600160f81b031960f88c901b1660348401529389901b166035820152604980820188905282518083039091018152606990910190915280519101206003805493840181558083527fc2575a0e9e593c00f959f8c92f12db2869c3395a3b0502d05e2516446f71f85b90930155915481546000199190910190811061045a57fe5b600091825260209182902001546002546040805133815260ff8916948101949094526001600160a01b038716848201526060840186905251919290917f23be8e12e420b5da9fb98d8102572f640fb3c11a0085060472dfc0ed194b3cf79181900360800190a3506002549392505050565b60035490565b60025481565b6001546001600160a01b0390811691161490565b6001546000906060906001600160a01b03163314610542576040805162461bcd60e51b815260206004820152600f60248201526e09c9ea8be8ca49e9abe9eaaa8849eb608b1b604482015290519081900360640190fd5b60006060876001600160a01b0316878787604051808383808284376040519201945060009350909150508083038185875af1925050503d80600081146105a4576040519150601f19603f3d011682016040523d82523d6000602084013e6105a9565b606091505b50604080518a8152602081018281529181018990529294509092506001600160a01b038a169133917f2d9d115ef3e4a606d698913b1eae831a3cdfe20d9a83d48007b0526749c3d466918b918b918b9160608201848480828437600083820152604051601f909101601f1916909201829003965090945050505050a39097909650945050505050565b6001546001600160a01b031690565b6000546001600160a01b0390811691161490565b6001546001600160a01b031681565b600180546001600160a01b0319166001600160a01b038481169190911791829055604080518415158152905192909116917f49477e7356dbcb654ab85d7534b50126772d938130d1350e23e2540370c8dffa916020908290030190a25050565b600381815481106106d457600080fd5b600091825260209091200154905081565b600080546001600160a01b0319166001600160a01b038481169190911791829055604080518415158152905192909116917f6675ce8882cb71637de5903a193d218cc0544be9c0650cb83e0955f6aa2bf521916020908290030190a25050565b6000546001600160a01b03168156fea264697066735822122041bf7fc80909923761b2ea7756c424755bfc175fa86ab91b1841490a528a585864736f6c63430007060033",
  "linkReferences": {},
  "deployedLinkReferences": {}
}