{
  "_format": "hh-sol-artifact-1",
  "contractName": "StakingV2Storage",
  "sourceName": "contracts/staking/StakingStorage.sol",
  "abi": [
    {
      "anonymous": false,
      "inputs": [
        {
          "indexed": true,
          "internalType": "bytes32",
          "name": "nameHash",
          "type": "bytes32"
        },
        {
          "indexed": false,
          "internalType": "address",
          "name": "contractAddress",
          "type": "address"
        }
      ],
      "name": "ContractSynced",
      "type": "event"
    },
    {
      "anonymous": false,
      "inputs": [
        {
          "indexed": false,
          "internalType": "string",
          "name": "param",
          "type": "string"
        }
      ],
      "name": "ParameterUpdated",
      "type": "event"
    },
    {
      "anonymous": false,
      "inputs": [
        {
          "indexed": false,
          "internalType": "address",
          "name": "controller",
          "type": "address"
        }
      ],
      "name": "SetController",
      "type": "event"
    },
    {
      "inputs": [],
      "name": "controller",
      "outputs": [
        {
          "internalType": "contract IController",
          "name": "",
          "type": "address"
        }
      ],
      "stateMutability": "view",
      "type": "function"
    },
    {
      "inputs": [
        {
          "internalType": "address",
          "name": "_controller",
          "type": "address"
        }
      ],
      "name": "setController",
      "outputs": [],
      "stateMutability": "nonpayable",
      "type": "function"
    },
    {
      "inputs": [],
      "name": "syncAllContracts",
      "outputs": [],
      "stateMutability": "nonpayable",
      "type": "function"
    }
  ],
  "bytecode": "0x6101606040527fe6876326c1291dfcbbd3864a6816d698cd591defc7aa2153d7f9c4c04016c89f6080527fc713c3df6d14cdf946460395d09af88993ee2b948b1a808161494e32c5f6706360a0527f966f1e8d8d8014e05f6ec4a57138da9be1f7c5a7f802928a18072f7c5318076160c0527f1df41cd916959d1163dc8f0671a666ea8a3e434c13e40faef527133b5d16703460e0527f45fc200c7e4544e457d3c5709bfe0d520442c30bbcbdaede89e8d4a4bbc19247610100527fd362cac9cb75c10d67bcc0b7eeb0b1ef48bb5420b556c092d4fd7f758816fcf0610120527f39605a6c26a173774ca666c67ef70cf491880e5d3d6d0ca66ec0a31034f15ea36101405234801561011057600080fd5b5060805160a05160c05160e05161010051610120516101405161041d610162600039806101a952508061018052508061015752508061012e52508061010552508060dc52508060b3525061041d6000f3fe608060405234801561001057600080fd5b50600436106100415760003560e01c806392eefe9b14610046578063d6866ea51461006e578063f77c479114610076575b600080fd5b61006c6004803603602081101561005c57600080fd5b50356001600160a01b031661009a565b005b61006c6100ae565b61007e6101cf565b604080516001600160a01b039092168252519081900360200190f35b6100a26101de565b6100ab8161023d565b50565b6100d77f00000000000000000000000000000000000000000000000000000000000000006102e5565b6101007f00000000000000000000000000000000000000000000000000000000000000006102e5565b6101297f00000000000000000000000000000000000000000000000000000000000000006102e5565b6101527f00000000000000000000000000000000000000000000000000000000000000006102e5565b61017b7f00000000000000000000000000000000000000000000000000000000000000006102e5565b6101a47f00000000000000000000000000000000000000000000000000000000000000006102e5565b6101cd7f00000000000000000000000000000000000000000000000000000000000000006102e5565b565b6000546001600160a01b031681565b6000546001600160a01b031633146101cd576040805162461bcd60e51b815260206004820152601960248201527f43616c6c6572206d75737420626520436f6e74726f6c6c657200000000000000604482015290519081900360640190fd5b6001600160a01b038116610291576040805162461bcd60e51b815260206004820152601660248201527510dbdb9d1c9bdb1b195c881b5d5cdd081899481cd95d60521b604482015290519081900360640190fd5b600080546001600160a01b0383166001600160a01b0319909116811790915560408051918252517f4ff638452bbf33c012645d18ae6f05515ff5f2d1dfb0cece8cbf018c60903f709181900360200190a150565b6000805460408051637bb20d2f60e11b81526004810185905290516001600160a01b039092169163f7641a5e91602480820192602092909190829003018186803b15801561033257600080fd5b505afa158015610346573d6000803e3d6000fd5b505050506040513d602081101561035c57600080fd5b50516000838152600160205260409020549091506001600160a01b038083169116146103e35760008281526001602090815260409182902080546001600160a01b0319166001600160a01b0385169081179091558251908152915184927fd0e7a942b1fc38c411c4f53d153ba14fd24542a6a35ebacd9b6afca1a154e20692908290030190a25b505056fea2646970667358221220c3fbfa75f1e2704d709b978f6628bb8890b445ffaa167671c97cabb84ce9b2c864736f6c63430007060033",
  "linkReferences": {},
  "deployedLinkReferences": {}
}