{
  "_format": "hh-sol-artifact-1",
  "contractName": "StakingExtension",
  "sourceName": "contracts/staking/StakingExtension.sol",
  "abi": [
    {
      "anonymous": false,
      "inputs": [
        {
          "indexed": true,
          "internalType": "bytes32",
          "name": "nameHash",
          "type": "bytes32"
        },
        {
          "indexed": false,
          "internalType": "address",
          "name": "contractAddress",
          "type": "address"
        }
      ],
      "name": "ContractSynced",
      "type": "event"
    },
    {
      "anonymous": false,
      "inputs": [
        {
          "indexed": false,
          "internalType": "string",
          "name": "param",
          "type": "string"
        }
      ],
      "name": "ParameterUpdated",
      "type": "event"
    },
    {
      "anonymous": false,
      "inputs": [
        {
          "indexed": false,
          "internalType": "address",
          "name": "controller",
          "type": "address"
        }
      ],
      "name": "SetController",
      "type": "event"
    },
    {
      "anonymous": false,
      "inputs": [
        {
          "indexed": true,
          "internalType": "address",
          "name": "caller",
          "type": "address"
        },
        {
          "indexed": true,
          "internalType": "address",
          "name": "slasher",
          "type": "address"
        },
        {
          "indexed": false,
          "internalType": "bool",
          "name": "allowed",
          "type": "bool"
        }
      ],
      "name": "SlasherUpdate",
      "type": "event"
    },
    {
      "anonymous": false,
      "inputs": [
        {
          "indexed": true,
          "internalType": "address",
          "name": "indexer",
          "type": "address"
        },
        {
          "indexed": true,
          "internalType": "address",
          "name": "delegator",
          "type": "address"
        },
        {
          "indexed": false,
          "internalType": "uint256",
          "name": "tokens",
          "type": "uint256"
        },
        {
          "indexed": false,
          "internalType": "uint256",
          "name": "shares",
          "type": "uint256"
        }
      ],
      "name": "StakeDelegated",
      "type": "event"
    },
    {
      "anonymous": false,
      "inputs": [
        {
          "indexed": true,
          "internalType": "address",
          "name": "indexer",
          "type": "address"
        },
        {
          "indexed": true,
          "internalType": "address",
          "name": "delegator",
          "type": "address"
        },
        {
          "indexed": false,
          "internalType": "uint256",
          "name": "tokens",
          "type": "uint256"
        },
        {
          "indexed": false,
          "internalType": "uint256",
          "name": "shares",
          "type": "uint256"
        },
        {
          "indexed": false,
          "internalType": "uint256",
          "name": "until",
          "type": "uint256"
        }
      ],
      "name": "StakeDelegatedLocked",
      "type": "event"
    },
    {
      "anonymous": false,
      "inputs": [
        {
          "indexed": true,
          "internalType": "address",
          "name": "indexer",
          "type": "address"
        },
        {
          "indexed": true,
          "internalType": "address",
          "name": "delegator",
          "type": "address"
        },
        {
          "indexed": false,
          "internalType": "uint256",
          "name": "tokens",
          "type": "uint256"
        }
      ],
      "name": "StakeDelegatedWithdrawn",
      "type": "event"
    },
    {
      "anonymous": false,
      "inputs": [
        {
          "indexed": true,
          "internalType": "address",
          "name": "indexer",
          "type": "address"
        },
        {
          "indexed": false,
          "internalType": "uint256",
          "name": "tokens",
          "type": "uint256"
        },
        {
          "indexed": false,
          "internalType": "uint256",
          "name": "reward",
          "type": "uint256"
        },
        {
          "indexed": false,
          "internalType": "address",
          "name": "beneficiary",
          "type": "address"
        }
      ],
      "name": "StakeSlashed",
      "type": "event"
    },
    {
      "inputs": [
        {
          "internalType": "contract IGraphProxy",
          "name": "_proxy",
          "type": "address"
        }
      ],
      "name": "acceptProxy",
      "outputs": [],
      "stateMutability": "nonpayable",
      "type": "function"
    },
    {
      "inputs": [
        {
          "internalType": "contract IGraphProxy",
          "name": "_proxy",
          "type": "address"
        },
        {
          "internalType": "bytes",
          "name": "_data",
          "type": "bytes"
        }
      ],
      "name": "acceptProxyAndCall",
      "outputs": [],
      "stateMutability": "nonpayable",
      "type": "function"
    },
    {
      "inputs": [
        {
          "internalType": "address",
          "name": "_allocationID",
          "type": "address"
        }
      ],
      "name": "allocations",
      "outputs": [
        {
          "components": [
            {
              "internalType": "address",
              "name": "indexer",
              "type": "address"
            },
            {
              "internalType": "bytes32",
              "name": "subgraphDeploymentID",
              "type": "bytes32"
            },
            {
              "internalType": "uint256",
              "name": "tokens",
              "type": "uint256"
            },
            {
              "internalType": "uint256",
              "name": "createdAtEpoch",
              "type": "uint256"
            },
            {
              "internalType": "uint256",
              "name": "closedAtEpoch",
              "type": "uint256"
            },
            {
              "internalType": "uint256",
              "name": "collectedFees",
              "type": "uint256"
            },
            {
              "internalType": "uint256",
              "name": "__DEPRECATED_effectiveAllocation",
              "type": "uint256"
            },
            {
              "internalType": "uint256",
              "name": "accRewardsPerAllocatedToken",
              "type": "uint256"
            },
            {
              "internalType": "uint256",
              "name": "distributedRebates",
              "type": "uint256"
            }
          ],
          "internalType": "struct IStakingData.Allocation",
          "name": "",
          "type": "tuple"
        }
      ],
      "stateMutability": "view",
      "type": "function"
    },
    {
      "inputs": [],
      "name": "alphaDenominator",
      "outputs": [
        {
          "internalType": "uint32",
          "name": "",
          "type": "uint32"
        }
      ],
      "stateMutability": "view",
      "type": "function"
    },
    {
      "inputs": [],
      "name": "alphaNumerator",
      "outputs": [
        {
          "internalType": "uint32",
          "name": "",
          "type": "uint32"
        }
      ],
      "stateMutability": "view",
      "type": "function"
    },
    {
      "inputs": [],
      "name": "controller",
      "outputs": [
        {
          "internalType": "contract IController",
          "name": "",
          "type": "address"
        }
      ],
      "stateMutability": "view",
      "type": "function"
    },
    {
      "inputs": [],
      "name": "curationPercentage",
      "outputs": [
        {
          "internalType": "uint32",
          "name": "",
          "type": "uint32"
        }
      ],
      "stateMutability": "view",
      "type": "function"
    },
    {
      "inputs": [
        {
          "internalType": "address",
          "name": "_indexer",
          "type": "address"
        },
        {
          "internalType": "uint256",
          "name": "_tokens",
          "type": "uint256"
        }
      ],
      "name": "delegate",
      "outputs": [
        {
          "internalType": "uint256",
          "name": "",
          "type": "uint256"
        }
      ],
      "stateMutability": "nonpayable",
      "type": "function"
    },
    {
      "inputs": [
        {
          "internalType": "address",
          "name": "_indexer",
          "type": "address"
        }
      ],
      "name": "delegationPools",
      "outputs": [
        {
          "components": [
            {
              "internalType": "uint32",
              "name": "__DEPRECATED_cooldownBlocks",
              "type": "uint32"
            },
            {
              "internalType": "uint32",
              "name": "indexingRewardCut",
              "type": "uint32"
            },
            {
              "internalType": "uint32",
              "name": "queryFeeCut",
              "type": "uint32"
            },
            {
              "internalType": "uint256",
              "name": "updatedAtBlock",
              "type": "uint256"
            },
            {
              "internalType": "uint256",
              "name": "tokens",
              "type": "uint256"
            },
            {
              "internalType": "uint256",
              "name": "shares",
              "type": "uint256"
            }
          ],
          "internalType": "struct IStakingExtension.DelegationPoolReturn",
          "name": "",
          "type": "tuple"
        }
      ],
      "stateMutability": "view",
      "type": "function"
    },
    {
      "inputs": [],
      "name": "delegationRatio",
      "outputs": [
        {
          "internalType": "uint32",
          "name": "",
          "type": "uint32"
        }
      ],
      "stateMutability": "view",
      "type": "function"
    },
    {
      "inputs": [],
      "name": "delegationTaxPercentage",
      "outputs": [
        {
          "internalType": "uint32",
          "name": "",
          "type": "uint32"
        }
      ],
      "stateMutability": "view",
      "type": "function"
    },
    {
      "inputs": [],
      "name": "delegationUnbondingPeriod",
      "outputs": [
        {
          "internalType": "uint32",
          "name": "",
          "type": "uint32"
        }
      ],
      "stateMutability": "view",
      "type": "function"
    },
    {
      "inputs": [
        {
          "internalType": "address",
          "name": "_indexer",
          "type": "address"
        },
        {
          "internalType": "address",
          "name": "_delegator",
          "type": "address"
        }
      ],
      "name": "getDelegation",
      "outputs": [
        {
          "components": [
            {
              "internalType": "uint256",
              "name": "shares",
              "type": "uint256"
            },
            {
              "internalType": "uint256",
              "name": "tokensLocked",
              "type": "uint256"
            },
            {
              "internalType": "uint256",
              "name": "tokensLockedUntil",
              "type": "uint256"
            }
          ],
          "internalType": "struct IStakingData.Delegation",
          "name": "",
          "type": "tuple"
        }
      ],
      "stateMutability": "view",
      "type": "function"
    },
    {
      "inputs": [
        {
          "components": [
            {
              "internalType": "uint256",
              "name": "shares",
              "type": "uint256"
            },
            {
              "internalType": "uint256",
              "name": "tokensLocked",
              "type": "uint256"
            },
            {
              "internalType": "uint256",
              "name": "tokensLockedUntil",
              "type": "uint256"
            }
          ],
          "internalType": "struct IStakingData.Delegation",
          "name": "_delegation",
          "type": "tuple"
        }
      ],
      "name": "getWithdraweableDelegatedTokens",
      "outputs": [
        {
          "internalType": "uint256",
          "name": "",
          "type": "uint256"
        }
      ],
      "stateMutability": "view",
      "type": "function"
    },
    {
      "inputs": [
        {
          "internalType": "uint32",
          "name": "_delegationUnbondingPeriod",
          "type": "uint32"
        },
        {
          "internalType": "uint32",
          "name": "",
          "type": "uint32"
        },
        {
          "internalType": "uint32",
          "name": "_delegationRatio",
          "type": "uint32"
        },
        {
          "internalType": "uint32",
          "name": "_delegationTaxPercentage",
          "type": "uint32"
        }
      ],
      "name": "initialize",
      "outputs": [],
      "stateMutability": "nonpayable",
      "type": "function"
    },
    {
      "inputs": [
        {
          "internalType": "address",
          "name": "_indexer",
          "type": "address"
        },
        {
          "internalType": "address",
          "name": "_delegator",
          "type": "address"
        }
      ],
      "name": "isDelegator",
      "outputs": [
        {
          "internalType": "bool",
          "name": "",
          "type": "bool"
        }
      ],
      "stateMutability": "view",
      "type": "function"
    },
    {
      "inputs": [],
      "name": "lambdaDenominator",
      "outputs": [
        {
          "internalType": "uint32",
          "name": "",
          "type": "uint32"
        }
      ],
      "stateMutability": "view",
      "type": "function"
    },
    {
      "inputs": [],
      "name": "lambdaNumerator",
      "outputs": [
        {
          "internalType": "uint32",
          "name": "",
          "type": "uint32"
        }
      ],
      "stateMutability": "view",
      "type": "function"
    },
    {
      "inputs": [],
      "name": "maxAllocationEpochs",
      "outputs": [
        {
          "internalType": "uint32",
          "name": "",
          "type": "uint32"
        }
      ],
      "stateMutability": "view",
      "type": "function"
    },
    {
      "inputs": [],
      "name": "minimumIndexerStake",
      "outputs": [
        {
          "internalType": "uint256",
          "name": "",
          "type": "uint256"
        }
      ],
      "stateMutability": "view",
      "type": "function"
    },
    {
      "inputs": [
        {
          "internalType": "address",
          "name": "_indexer",
          "type": "address"
        },
        {
          "internalType": "address",
          "name": "_maybeOperator",
          "type": "address"
        }
      ],
      "name": "operatorAuth",
      "outputs": [
        {
          "internalType": "bool",
          "name": "",
          "type": "bool"
        }
      ],
      "stateMutability": "view",
      "type": "function"
    },
    {
      "inputs": [],
      "name": "protocolPercentage",
      "outputs": [
        {
          "internalType": "uint32",
          "name": "",
          "type": "uint32"
        }
      ],
      "stateMutability": "view",
      "type": "function"
    },
    {
      "inputs": [
        {
          "internalType": "address",
          "name": "_indexer",
          "type": "address"
        }
      ],
      "name": "rewardsDestination",
      "outputs": [
        {
          "internalType": "address",
          "name": "",
          "type": "address"
        }
      ],
      "stateMutability": "view",
      "type": "function"
    },
    {
      "inputs": [
        {
          "internalType": "address",
          "name": "_controller",
          "type": "address"
        }
      ],
      "name": "setController",
      "outputs": [],
      "stateMutability": "nonpayable",
      "type": "function"
    },
    {
      "inputs": [
        {
          "internalType": "uint32",
          "name": "_delegationRatio",
          "type": "uint32"
        }
      ],
      "name": "setDelegationRatio",
      "outputs": [],
      "stateMutability": "nonpayable",
      "type": "function"
    },
    {
      "inputs": [
        {
          "internalType": "uint32",
          "name": "_percentage",
          "type": "uint32"
        }
      ],
      "name": "setDelegationTaxPercentage",
      "outputs": [],
      "stateMutability": "nonpayable",
      "type": "function"
    },
    {
      "inputs": [
        {
          "internalType": "uint32",
          "name": "_delegationUnbondingPeriod",
          "type": "uint32"
        }
      ],
      "name": "setDelegationUnbondingPeriod",
      "outputs": [],
      "stateMutability": "nonpayable",
      "type": "function"
    },
    {
      "inputs": [
        {
          "internalType": "address",
          "name": "_slasher",
          "type": "address"
        },
        {
          "internalType": "bool",
          "name": "_allowed",
          "type": "bool"
        }
      ],
      "name": "setSlasher",
      "outputs": [],
      "stateMutability": "nonpayable",
      "type": "function"
    },
    {
      "inputs": [
        {
          "internalType": "address",
          "name": "_indexer",
          "type": "address"
        },
        {
          "internalType": "uint256",
          "name": "_tokens",
          "type": "uint256"
        },
        {
          "internalType": "uint256",
          "name": "_reward",
          "type": "uint256"
        },
        {
          "internalType": "address",
          "name": "_beneficiary",
          "type": "address"
        }
      ],
      "name": "slash",
      "outputs": [],
      "stateMutability": "nonpayable",
      "type": "function"
    },
    {
      "inputs": [
        {
          "internalType": "address",
          "name": "_maybeSlasher",
          "type": "address"
        }
      ],
      "name": "slashers",
      "outputs": [
        {
          "internalType": "bool",
          "name": "",
          "type": "bool"
        }
      ],
      "stateMutability": "view",
      "type": "function"
    },
    {
      "inputs": [
        {
          "internalType": "address",
          "name": "_indexer",
          "type": "address"
        }
      ],
      "name": "stakes",
      "outputs": [
        {
          "components": [
            {
              "internalType": "uint256",
              "name": "tokensStaked",
              "type": "uint256"
            },
            {
              "internalType": "uint256",
              "name": "tokensAllocated",
              "type": "uint256"
            },
            {
              "internalType": "uint256",
              "name": "tokensLocked",
              "type": "uint256"
            },
            {
              "internalType": "uint256",
              "name": "tokensLockedUntil",
              "type": "uint256"
            }
          ],
          "internalType": "struct IStakes.Indexer",
          "name": "",
          "type": "tuple"
        }
      ],
      "stateMutability": "view",
      "type": "function"
    },
    {
      "inputs": [
        {
          "internalType": "bytes32",
          "name": "_subgraphDeploymentId",
          "type": "bytes32"
        }
      ],
      "name": "subgraphAllocations",
      "outputs": [
        {
          "internalType": "uint256",
          "name": "",
          "type": "uint256"
        }
      ],
      "stateMutability": "view",
      "type": "function"
    },
    {
      "inputs": [],
      "name": "syncAllContracts",
      "outputs": [],
      "stateMutability": "nonpayable",
      "type": "function"
    },
    {
      "inputs": [],
      "name": "thawingPeriod",
      "outputs": [
        {
          "internalType": "uint32",
          "name": "",
          "type": "uint32"
        }
      ],
      "stateMutability": "view",
      "type": "function"
    },
    {
      "inputs": [
        {
          "internalType": "address",
          "name": "_indexer",
          "type": "address"
        },
        {
          "internalType": "uint256",
          "name": "_shares",
          "type": "uint256"
        }
      ],
      "name": "undelegate",
      "outputs": [
        {
          "internalType": "uint256",
          "name": "",
          "type": "uint256"
        }
      ],
      "stateMutability": "nonpayable",
      "type": "function"
    },
    {
      "inputs": [
        {
          "internalType": "address",
          "name": "_indexer",
          "type": "address"
        },
        {
          "internalType": "address",
          "name": "_newIndexer",
          "type": "address"
        }
      ],
      "name": "withdrawDelegated",
      "outputs": [
        {
          "internalType": "uint256",
          "name": "",
          "type": "uint256"
        }
      ],
      "stateMutability": "nonpayable",
      "type": "function"
    }
  ],
  "bytecode": "0x6101606040527fe6876326c1291dfcbbd3864a6816d698cd591defc7aa2153d7f9c4c04016c89f6080527fc713c3df6d14cdf946460395d09af88993ee2b948b1a808161494e32c5f6706360a0527f966f1e8d8d8014e05f6ec4a57138da9be1f7c5a7f802928a18072f7c5318076160c0527f1df41cd916959d1163dc8f0671a666ea8a3e434c13e40faef527133b5d16703460e0527f45fc200c7e4544e457d3c5709bfe0d520442c30bbcbdaede89e8d4a4bbc19247610100527fd362cac9cb75c10d67bcc0b7eeb0b1ef48bb5420b556c092d4fd7f758816fcf0610120527f39605a6c26a173774ca666c67ef70cf491880e5d3d6d0ca66ec0a31034f15ea36101405234801561011057600080fd5b5060805160a05160c05160e05161010051610120516101405161280161016e60003980610d48525080610d1f525080610cf6528061118b525080610ccd525080610ca4525080610c7b5280611452525080610c5252506128016000f3fe608060405234801561001057600080fd5b506004361061021c5760003560e01c80639ce7abe511610125578063ce853613116100ad578063e6dc5a1c1161007c578063e6dc5a1c14610468578063e76fede61461047b578063f2485bf21461048e578063f77c479114610496578063fb7659381461049e5761021c565b8063ce8536131461043d578063d6866ea514610445578063e2e946561461044d578063e6aeb796146104605761021c565b8063b1468f52116100f4578063b1468f52146103ff578063b6846e4714610412578063b87fcbff1461041a578063bfdfa7af1461042d578063cdc747dd146104355761021c565b80639ce7abe5146103b1578063a0e11929146103c4578063a2594d82146103e4578063a26b90f2146103f75761021c565b806352348080116101a85780637203ca78116101775780637203ca781461034e5780637ef820701461036e57806385b52ad01461037657806392511c8f1461037e57806392eefe9b1461039e5761021c565b806352348080146102f557806352a9039c146103085780635e9a63921461032857806369d33c2f1461033b5761021c565b806316934fc4116101ef57806316934fc4146102925780631dd42f60146102b25780634b8a9b8e146102c75780634d99dd16146102cf57806351a60b02146102e25761021c565b8063026e402b1461022157806309da07f71461024a578063130bea571461025f57806315049a5a14610272575b600080fd5b61023461022f3660046121d0565b6104a6565b6040516102419190612738565b60405180910390f35b6102526104d8565b6040516102419190612784565b61023461026d3660046122dc565b6104eb565b610285610280366004612167565b61059c565b60405161024191906126ec565b6102a56102a036600461214b565b6105f7565b604051610241919061270d565b6102c56102c0366004612349565b61064d565b005b610252610661565b6102346102dd3660046121d0565b610674565b6102346102f0366004612167565b610690565b6102c561030336600461219f565b6106a5565b61031b61031636600461214b565b61073e565b6040516102419190612634565b6102c5610336366004612349565b6107cb565b6102c5610349366004612363565b6107dc565b61036161035c36600461214b565b610860565b60405161024191906123b6565b61025261087e565b610252610891565b61039161038c36600461214b565b6108a5565b604051610241919061269c565b6102c56103ac36600461214b565b610919565b6102c56103bf36600461225c565b61092a565b6103d76103d2366004612167565b610a80565b60405161024191906123ca565b6102c56103f236600461214b565b610ab1565b610252610bcc565b61023461040d366004612244565b610bdf565b610252610bf1565b6103d761042836600461214b565b610c04565b610252610c22565b610252610c2e565b610252610c3a565b6102c5610c4d565b6103d761045b366004612167565b610d6e565b610252610d9c565b6102c5610476366004612349565b610daf565b6102c56104893660046121fb565b610dc0565b610234610fee565b610361610ff4565b610252611003565b60006104b0611016565b336104c36104bc611184565b82856111b4565b6104ce818585611281565b9150505b92915050565b601954600160a01b900463ffffffff1690565b6000806104f661144b565b6001600160a01b031663766718086040518163ffffffff1660e01b815260040160206040518083038186803b15801561052e57600080fd5b505afa158015610542573d6000803e3d6000fd5b505050506040513d601f19601f820116820180604052508101906105669190612331565b905060008360400151118015610580575082604001518110155b156105915750506020810151610597565b60009150505b919050565b6105a461204e565b506001600160a01b03918216600090815260146020908152604080832093909416825260049092018252829020825160608101845281548152600182015492810192909252600201549181019190915290565b6105ff61206f565b506001600160a01b03166000908152600e6020908152604091829020825160808101845281548152600182015492810192909252600281015492820192909252600390910154606082015290565b610655611476565b61065e8161154a565b50565b601954600160c01b900463ffffffff1690565b600061067e611016565b610689338484611598565b9392505050565b600061069a6117cf565b610689338484611882565b6106ad611476565b6001600160a01b0382166106dc5760405162461bcd60e51b81526004016106d3906123d5565b60405180910390fd5b6001600160a01b03821660008181526012602052604090819020805460ff19168415151790555133907f87ea6771e87d96ce16dbe8eda64da9473733e4c1c568baf8ae47256c5bd765e9906107329085906123ca565b60405180910390a35050565b610746612097565b506001600160a01b039081166000908152600f6020908152604091829020825161012081018452815490941684526001810154918401919091526002810154918301919091526003810154606083015260048101546080830152600581015460a0830152600681015460c0830152600781015460e08301526008015461010082015290565b6107d3611476565b61065e81611993565b6107e4611a0a565b6001600160a01b0316336001600160a01b03161461083f576040805162461bcd60e51b815260206004820152601360248201527227b7363c9034b6b83632b6b2b73a30ba34b7b760691b604482015290519081900360640190fd5b61084884611993565b6108518261154a565b61085a81611a2f565b50505050565b6001600160a01b039081166000908152601760205260409020541690565b600d54600160a01b900463ffffffff1690565b600d54640100000000900463ffffffff1690565b6108ad6120ef565b506001600160a01b03166000908152601460209081526040808320815160c081018352938452805463ffffffff6401000000008204811694860194909452600160401b90049092169083015260018101546060830152600281015460808301526003015460a082015290565b610921611aa4565b61065e81611b03565b82806001600160a01b031663f851a4406040518163ffffffff1660e01b8152600401602060405180830381600087803b15801561096657600080fd5b505af115801561097a573d6000803e3d6000fd5b505050506040513d602081101561099057600080fd5b50516001600160a01b031633146109ee576040805162461bcd60e51b815260206004820152601e60248201527f43616c6c6572206d757374206265207468652070726f78792061646d696e0000604482015290519081900360640190fd5b60405163623faf6160e01b8152602060048201908152602482018490526001600160a01b0386169163623faf619186918691908190604401848480828437600081840152601f19601f8201169050808301925050509350505050600060405180830381600087803b158015610a6257600080fd5b505af1158015610a76573d6000803e3d6000fd5b5050505050505050565b6001600160a01b03918216600090815260146020908152604080832093909416825260049092019091522054151590565b80806001600160a01b031663f851a4406040518163ffffffff1660e01b8152600401602060405180830381600087803b158015610aed57600080fd5b505af1158015610b01573d6000803e3d6000fd5b505050506040513d6020811015610b1757600080fd5b50516001600160a01b03163314610b75576040805162461bcd60e51b815260206004820152601e60248201527f43616c6c6572206d757374206265207468652070726f78792061646d696e0000604482015290519081900360640190fd5b816001600160a01b03166359fc20bb6040518163ffffffff1660e01b8152600401600060405180830381600087803b158015610bb057600080fd5b505af1158015610bc4573d6000803e3d6000fd5b505050505050565b600d54600160401b900463ffffffff1690565b60009081526010602052604090205490565b601354600160401b900463ffffffff1690565b6001600160a01b031660009081526012602052604090205460ff1690565b60135463ffffffff1690565b600d5463ffffffff1690565b600d54600160c01b900463ffffffff1690565b610c767f0000000000000000000000000000000000000000000000000000000000000000611bab565b610c9f7f0000000000000000000000000000000000000000000000000000000000000000611bab565b610cc87f0000000000000000000000000000000000000000000000000000000000000000611bab565b610cf17f0000000000000000000000000000000000000000000000000000000000000000611bab565b610d1a7f0000000000000000000000000000000000000000000000000000000000000000611bab565b610d437f0000000000000000000000000000000000000000000000000000000000000000611bab565b610d6c7f0000000000000000000000000000000000000000000000000000000000000000611bab565b565b6001600160a01b03918216600090815260156020908152604080832093909416825291909152205460ff1690565b601354600160601b900463ffffffff1690565b610db7611476565b61065e81611a2f565b3360009081526012602052604090205460ff161515600114610df45760405162461bcd60e51b81526004016106d3906123d5565b610dfc611016565b6001600160a01b0384166000908152600e6020526040902083610e315760405162461bcd60e51b81526004016106d3906124d4565b82841015610e515760405162461bcd60e51b81526004016106d39061260d565b8054610e6f5760405162461bcd60e51b81526004016106d3906125ed565b8054841115610e905760405162461bcd60e51b81526004016106d39061254b565b6001600160a01b038216610eb65760405162461bcd60e51b81526004016106d3906123f7565b60408051608081018252825481526001830154602082015260028301549181019190915260038201546060820152610eed90611cad565b84118015610eff575060008160020154115b15610f6d576000610f4c610f4583604051806080016040529081600082015481526020016001820154815260200160028201548152602001600382015481525050611cad565b8690611cb9565b90506000610f5e828460020154611d16565b9050610f6a8382611d2d565b50505b610f778185611d52565b6000610f81611184565b9050610f9681610f918787611cb9565b611d64565b610fa1818486611db0565b856001600160a01b03167ff2717be2f27d9d2d7d265e42dc556e40d2d9aeaba02f49c5286030f30c0571f3868686604051610fde9392919061274f565b60405180910390a2505050505050565b600c5490565b6000546001600160a01b031681565b600d54600160801b900463ffffffff1690565b60008054906101000a90046001600160a01b03166001600160a01b0316635c975abb6040518163ffffffff1660e01b815260040160206040518083038186803b15801561106257600080fd5b505afa158015611076573d6000803e3d6000fd5b505050506040513d602081101561108c57600080fd5b5051156110c9576040805162461bcd60e51b815260206004820152600660248201526514185d5cd95960d21b604482015290519081900360640190fd5b60008054906101000a90046001600160a01b03166001600160a01b0316632e292fc76040518163ffffffff1660e01b815260040160206040518083038186803b15801561111557600080fd5b505afa158015611129573d6000803e3d6000fd5b505050506040513d602081101561113f57600080fd5b505115610d6c576040805162461bcd60e51b815260206004820152600e60248201526d14185c9d1a585b0b5c185d5cd95960921b604482015290519081900360640190fd5b60006111af7f0000000000000000000000000000000000000000000000000000000000000000611e0d565b905090565b801561127c57604080516323b872dd60e01b81526001600160a01b038481166004830152306024830152604482018490529151918516916323b872dd916064808201926020929091908290030181600087803b15801561121357600080fd5b505af1158015611227573d6000803e3d6000fd5b505050506040513d602081101561123d57600080fd5b505161127c576040805162461bcd60e51b815260206004820152600960248201526810ba3930b739b332b960b91b604482015290519081900360640190fd5b505050565b6000670de0b6b3a76400008210156112ab5760405162461bcd60e51b81526004016106d3906124f5565b6001600160a01b0383166112d15760405162461bcd60e51b81526004016106d390612454565b6001600160a01b0383166000908152600e60205260409020546113065760405162461bcd60e51b81526004016106d3906125ed565b6001600160a01b03808416600090815260146020908152604080832093881683526004840190915281209061135361133c611184565b6013548790600160601b900463ffffffff16611ea9565b905060006113618683611cb9565b90506000846002015460001461139b576113968560020154611390876003015485611ed190919063ffffffff16565b90611f2a565b61139d565b815b9050600081116113bf5760405162461bcd60e51b81526004016106d3906125a7565b60028501546113ce9083611f91565b600286015560038501546113e29082611f91565b600386015583546113f39082611f91565b84556040516001600160a01b03808b1691908a16907fcd0366dce5247d874ffc60a762aa7abbb82c1695bbb171609c1b8861e279eb73906114379086908690612741565b60405180910390a398975050505050505050565b60006111af7f0000000000000000000000000000000000000000000000000000000000000000611e0d565b60008054906101000a90046001600160a01b03166001600160a01b0316634fc07d756040518163ffffffff1660e01b815260040160206040518083038186803b1580156114c257600080fd5b505afa1580156114d6573d6000803e3d6000fd5b505050506040513d60208110156114ec57600080fd5b50516001600160a01b03163314610d6c576040805162461bcd60e51b815260206004820152601860248201527f4f6e6c7920436f6e74726f6c6c657220676f7665726e6f720000000000000000604482015290519081900360640190fd5b6013805463ffffffff191663ffffffff83161790556040517f96d5a4b4edf1cefd0900c166d64447f8da1d01d1861a6a60894b5b82a2c15c3c9061158d90612522565b60405180910390a150565b60008082116115b95760405162461bcd60e51b81526004016106d3906125a7565b6001600160a01b038084166000908152601460209081526040808320938816835260048401909152902080548411156116045760405162461bcd60e51b81526004016106d390612476565b604080516060810182528254815260018301546020820152600283015491810191909152600090611634906104eb565b11156116485761164686866000611882565b505b600282015460038301546000611662826113908986611ed1565b905061166e8382611cb9565b925061167a8288611cb9565b600286018490556003860181905584549092506116979088611cb9565b808555156116e05783546000906116b49084906113909087611ed1565b9050670de0b6b3a76400008110156116de5760405162461bcd60e51b81526004016106d3906124f5565b505b60018401546116ef9082611f91565b600185015560135461178690600160401b900463ffffffff1661171061144b565b6001600160a01b031663766718086040518163ffffffff1660e01b815260040160206040518083038186803b15801561174857600080fd5b505afa15801561175c573d6000803e3d6000fd5b505050506040513d601f19601f820116820180604052508101906117809190612331565b90611f91565b600285018190556040516001600160a01b03808c1692908b16917f0430183f84d9c4502386d499da806543dee1d9de83c08b01e39a6d2116c43b25916114379186918d9161276e565b60008054906101000a90046001600160a01b03166001600160a01b0316635c975abb6040518163ffffffff1660e01b815260040160206040518083038186803b15801561181b57600080fd5b505afa15801561182f573d6000803e3d6000fd5b505050506040513d602081101561184557600080fd5b505115610d6c576040805162461bcd60e51b815260206004820152600660248201526514185d5cd95960d21b604482015290519081900360640190fd5b6001600160a01b03808316600090815260146020908152604080832093871683526004840182528083208151606081018352815481526001820154938101939093526002810154918301919091529192919083906118df906104eb565b9050600081116119015760405162461bcd60e51b81526004016106d3906124d4565b60006001830181905560028301556040516001600160a01b0380891691908816907f1b2e7737e043c5cf1b587ceb4daeb7ae00148b9bda8f79f1093eead08f1419529061194f908590612738565b60405180910390a36001600160a01b0385161561197757611971878683611281565b50611989565b611989611982611184565b8883611db0565b9695505050505050565b60008163ffffffff16116119b95760405162461bcd60e51b81526004016106d390612570565b601380546bffffffff00000000000000001916600160401b63ffffffff8416021790556040517f96d5a4b4edf1cefd0900c166d64447f8da1d01d1861a6a60894b5b82a2c15c3c9061158d9061249d565b7f360894a13ba1a3210667c828492db98dca3e2076cc3735a920a3ca505d382bbc5490565b620f424063ffffffff82161115611a585760405162461bcd60e51b81526004016106d3906125c8565b6013805463ffffffff60601b1916600160601b63ffffffff8416021790556040517f96d5a4b4edf1cefd0900c166d64447f8da1d01d1861a6a60894b5b82a2c15c3c9061158d9061241d565b6000546001600160a01b03163314610d6c576040805162461bcd60e51b815260206004820152601960248201527f43616c6c6572206d75737420626520436f6e74726f6c6c657200000000000000604482015290519081900360640190fd5b6001600160a01b038116611b57576040805162461bcd60e51b815260206004820152601660248201527510dbdb9d1c9bdb1b195c881b5d5cdd081899481cd95d60521b604482015290519081900360640190fd5b600080546001600160a01b0383166001600160a01b0319909116811790915560408051918252517f4ff638452bbf33c012645d18ae6f05515ff5f2d1dfb0cece8cbf018c60903f709181900360200190a150565b6000805460408051637bb20d2f60e11b81526004810185905290516001600160a01b039092169163f7641a5e91602480820192602092909190829003018186803b158015611bf857600080fd5b505afa158015611c0c573d6000803e3d6000fd5b505050506040513d6020811015611c2257600080fd5b50516000838152600160205260409020549091506001600160a01b03808316911614611ca95760008281526001602090815260409182902080546001600160a01b0319166001600160a01b0385169081179091558251908152915184927fd0e7a942b1fc38c411c4f53d153ba14fd24542a6a35ebacd9b6afca1a154e20692908290030190a25b5050565b60006104d28282611feb565b600082821115611d10576040805162461bcd60e51b815260206004820152601e60248201527f536166654d6174683a207375627472616374696f6e206f766572666c6f770000604482015290519081900360640190fd5b50900390565b600081831115611d265781610689565b5090919050565b6002820154611d3c9082611cb9565b60028301819055611ca957600060038301555050565b8154611d5e9082611cb9565b90915550565b8015611ca957816001600160a01b03166342966c68826040518263ffffffff1660e01b815260040180828152602001915050600060405180830381600087803b158015610bb057600080fd5b801561127c57826001600160a01b031663a9059cbb83836040518363ffffffff1660e01b815260040180836001600160a01b0316815260200182815260200192505050602060405180830381600087803b15801561121357600080fd5b6000818152600160205260408120546001600160a01b0316806104d25760005460408051637bb20d2f60e11b81526004810186905290516001600160a01b039092169163f7641a5e91602480820192602092909190829003018186803b158015611e7657600080fd5b505afa158015611e8a573d6000803e3d6000fd5b505050506040513d6020811015611ea057600080fd5b50519392505050565b600080611ebd620f42406113908587611ed1565b9050611ec98582611d64565b949350505050565b600082611ee0575060006104d2565b82820282848281611eed57fe5b04146106895760405162461bcd60e51b81526004018080602001828103825260218152602001806127ab6021913960400191505060405180910390fd5b6000808211611f80576040805162461bcd60e51b815260206004820152601a60248201527f536166654d6174683a206469766973696f6e206279207a65726f000000000000604482015290519081900360640190fd5b818381611f8957fe5b049392505050565b600082820183811015610689576040805162461bcd60e51b815260206004820152601b60248201527f536166654d6174683a206164646974696f6e206f766572666c6f770000000000604482015290519081900360640190fd5b81516000908190611ffc9084611f91565b9050600061200985612031565b90508181111561201e576000925050506104d2565b6120288282611cb9565b95945050505050565b60006104d282604001518360200151611f9190919063ffffffff16565b60405180606001604052806000815260200160008152602001600081525090565b6040518060800160405280600081526020016000815260200160008152602001600081525090565b60405180610120016040528060006001600160a01b0316815260200160008019168152602001600081526020016000815260200160008152602001600081526020016000815260200160008152602001600081525090565b6040518060c00160405280600063ffffffff168152602001600063ffffffff168152602001600063ffffffff1681526020016000815260200160008152602001600081525090565b803563ffffffff8116811461059757600080fd5b60006020828403121561215c578081fd5b813561068981612795565b60008060408385031215612179578081fd5b823561218481612795565b9150602083013561219481612795565b809150509250929050565b600080604083850312156121b1578182fd5b82356121bc81612795565b915060208301358015158114612194578182fd5b600080604083850312156121e2578182fd5b82356121ed81612795565b946020939093013593505050565b60008060008060808587031215612210578182fd5b843561221b81612795565b93506020850135925060408501359150606085013561223981612795565b939692955090935050565b600060208284031215612255578081fd5b5035919050565b600080600060408486031215612270578283fd5b833561227b81612795565b9250602084013567ffffffffffffffff80821115612297578384fd5b818601915086601f8301126122aa578384fd5b8135818111156122b8578485fd5b8760208285010111156122c9578485fd5b6020830194508093505050509250925092565b6000606082840312156122ed578081fd5b6040516060810181811067ffffffffffffffff8211171561230a57fe5b80604052508235815260208301356020820152604083013560408201528091505092915050565b600060208284031215612342578081fd5b5051919050565b60006020828403121561235a578081fd5b61068982612137565b60008060008060808587031215612378578384fd5b61238185612137565b935061238f60208601612137565b925061239d60408601612137565b91506123ab60608601612137565b905092959194509250565b6001600160a01b0391909116815260200190565b901515815260200190565b60208082526008908201526710b9b630b9b432b960c11b604082015260600190565b6020808252600c908201526b2162656e656669636961727960a01b604082015260600190565b60208082526017908201527f64656c65676174696f6e54617850657263656e74616765000000000000000000604082015260600190565b60208082526008908201526710b4b73232bc32b960c11b604082015260600190565b6020808252600d908201526c085cda185c995ccb585d985a5b609a1b604082015260600190565b60208082526019908201527f64656c65676174696f6e556e626f6e64696e67506572696f6400000000000000604082015260600190565b60208082526007908201526621746f6b656e7360c81b604082015260600190565b60208082526013908201527210b6b4b734b6bab696b232b632b3b0ba34b7b760691b604082015260600190565b6020808252600f908201526e64656c65676174696f6e526174696f60881b604082015260600190565b6020808252600b908201526a736c6173683e7374616b6560a81b604082015260600190565b6020808252601a908201527f2164656c65676174696f6e556e626f6e64696e67506572696f64000000000000604082015260600190565b6020808252600790820152662173686172657360c81b604082015260600190565b6020808252600b908201526a3e70657263656e7461676560a81b604082015260600190565b602080825260069082015265217374616b6560d01b604082015260600190565b6020808252600d908201526c0e4caeec2e4c8e67ce6d8c2e6d609b1b604082015260600190565b81516001600160a01b031681526020808301519082015260408083015190820152606080830151908201526080808301519082015260a0828101519082015260c0808301519082015260e0808301519082015261010091820151918101919091526101200190565b600060c08201905063ffffffff80845116835280602085015116602084015280604085015116604084015250606083015160608301526080830151608083015260a083015160a083015292915050565b81518152602080830151908201526040918201519181019190915260600190565b8151815260208083015190820152604080830151908201526060918201519181019190915260800190565b90815260200190565b918252602082015260400190565b92835260208301919091526001600160a01b0316604082015260600190565b9283526020830191909152604082015260600190565b63ffffffff91909116815260200190565b6001600160a01b038116811461065e57600080fdfe536166654d6174683a206d756c7469706c69636174696f6e206f766572666c6f77a2646970667358221220c8d8a8cb8b5f17df62ec3294c3c540504a597a58b3978b237bac831e66b6585964736f6c63430007060033",
  "linkReferences": {},
  "deployedLinkReferences": {}
}