{
  "_format": "hh-sol-artifact-1",
  "contractName": "EpochManagerV1Storage",
  "sourceName": "contracts/epochs/EpochManagerStorage.sol",
  "abi": [
    {
      "anonymous": false,
      "inputs": [
        {
          "indexed": true,
          "internalType": "bytes32",
          "name": "nameHash",
          "type": "bytes32"
        },
        {
          "indexed": false,
          "internalType": "address",
          "name": "contractAddress",
          "type": "address"
        }
      ],
      "name": "ContractSynced",
      "type": "event"
    },
    {
      "anonymous": false,
      "inputs": [
        {
          "indexed": false,
          "internalType": "string",
          "name": "param",
          "type": "string"
        }
      ],
      "name": "ParameterUpdated",
      "type": "event"
    },
    {
      "anonymous": false,
      "inputs": [
        {
          "indexed": false,
          "internalType": "address",
          "name": "controller",
          "type": "address"
        }
      ],
      "name": "SetController",
      "type": "event"
    },
    {
      "inputs": [],
      "name": "controller",
      "outputs": [
        {
          "internalType": "contract IController",
          "name": "",
          "type": "address"
        }
      ],
      "stateMutability": "view",
      "type": "function"
    },
    {
      "inputs": [],
      "name": "epochLength",
      "outputs": [
        {
          "internalType": "uint256",
          "name": "",
          "type": "uint256"
        }
      ],
      "stateMutability": "view",
      "type": "function"
    },
    {
      "inputs": [],
      "name": "lastLengthUpdateBlock",
      "outputs": [
        {
          "internalType": "uint256",
          "name": "",
          "type": "uint256"
        }
      ],
      "stateMutability": "view",
      "type": "function"
    },
    {
      "inputs": [],
      "name": "lastLengthUpdateEpoch",
      "outputs": [
        {
          "internalType": "uint256",
          "name": "",
          "type": "uint256"
        }
      ],
      "stateMutability": "view",
      "type": "function"
    },
    {
      "inputs": [],
      "name": "lastRunEpoch",
      "outputs": [
        {
          "internalType": "uint256",
          "name": "",
          "type": "uint256"
        }
      ],
      "stateMutability": "view",
      "type": "function"
    },
    {
      "inputs": [
        {
          "internalType": "address",
          "name": "_controller",
          "type": "address"
        }
      ],
      "name": "setController",
      "outputs": [],
      "stateMutability": "nonpayable",
      "type": "function"
    },
    {
      "inputs": [],
      "name": "syncAllContracts",
      "outputs": [],
      "stateMutability": "nonpayable",
      "type": "function"
    }
  ],
  "bytecode": "0x6101606040527fe6876326c1291dfcbbd3864a6816d698cd591defc7aa2153d7f9c4c04016c89f6080527fc713c3df6d14cdf946460395d09af88993ee2b948b1a808161494e32c5f6706360a0527f966f1e8d8d8014e05f6ec4a57138da9be1f7c5a7f802928a18072f7c5318076160c0527f1df41cd916959d1163dc8f0671a666ea8a3e434c13e40faef527133b5d16703460e0527f45fc200c7e4544e457d3c5709bfe0d520442c30bbcbdaede89e8d4a4bbc19247610100527fd362cac9cb75c10d67bcc0b7eeb0b1ef48bb5420b556c092d4fd7f758816fcf0610120527f39605a6c26a173774ca666c67ef70cf491880e5d3d6d0ca66ec0a31034f15ea36101405234801561011057600080fd5b5060805160a05160c05160e0516101005161012051610140516104a3610164600039806102295250806102005250806101d75250806101ae52508061018552508061015c52508061013352506104a36000f3fe608060405234801561001057600080fd5b506004361061007d5760003560e01c8063cc65149b1161005b578063cc65149b146100cc578063d6866ea5146100d4578063f77c4791146100dc578063faa1a23c146101005761007d565b806357d775f81461008257806392eefe9b1461009c578063b4146a0b146100c4575b600080fd5b61008a610108565b60408051918252519081900360200190f35b6100c2600480360360208110156100b257600080fd5b50356001600160a01b031661010e565b005b61008a610122565b61008a610128565b6100c261012e565b6100e461024f565b604080516001600160a01b039092168252519081900360200190f35b61008a61025e565b600c5481565b610116610264565b61011f816102c3565b50565b600e5481565b600f5481565b6101577f000000000000000000000000000000000000000000000000000000000000000061036b565b6101807f000000000000000000000000000000000000000000000000000000000000000061036b565b6101a97f000000000000000000000000000000000000000000000000000000000000000061036b565b6101d27f000000000000000000000000000000000000000000000000000000000000000061036b565b6101fb7f000000000000000000000000000000000000000000000000000000000000000061036b565b6102247f000000000000000000000000000000000000000000000000000000000000000061036b565b61024d7f000000000000000000000000000000000000000000000000000000000000000061036b565b565b6000546001600160a01b031681565b600d5481565b6000546001600160a01b0316331461024d576040805162461bcd60e51b815260206004820152601960248201527f43616c6c6572206d75737420626520436f6e74726f6c6c657200000000000000604482015290519081900360640190fd5b6001600160a01b038116610317576040805162461bcd60e51b815260206004820152601660248201527510dbdb9d1c9bdb1b195c881b5d5cdd081899481cd95d60521b604482015290519081900360640190fd5b600080546001600160a01b0383166001600160a01b0319909116811790915560408051918252517f4ff638452bbf33c012645d18ae6f05515ff5f2d1dfb0cece8cbf018c60903f709181900360200190a150565b6000805460408051637bb20d2f60e11b81526004810185905290516001600160a01b039092169163f7641a5e91602480820192602092909190829003018186803b1580156103b857600080fd5b505afa1580156103cc573d6000803e3d6000fd5b505050506040513d60208110156103e257600080fd5b50516000838152600160205260409020549091506001600160a01b038083169116146104695760008281526001602090815260409182902080546001600160a01b0319166001600160a01b0385169081179091558251908152915184927fd0e7a942b1fc38c411c4f53d153ba14fd24542a6a35ebacd9b6afca1a154e20692908290030190a25b505056fea26469706673582212201a9e59ec45229855330fc3343fc41b3b52f4bf11b24c77906550bdc0cb7fc15b64736f6c63430007060033",
  "linkReferences": {},
  "deployedLinkReferences": {}
}