{
  "_format": "hh-sol-artifact-1",
  "contractName": "InboxMock",
  "sourceName": "contracts/tests/arbitrum/InboxMock.sol",
  "abi": [
    {
      "anonymous": false,
      "inputs": [
        {
          "indexed": true,
          "internalType": "uint256",
          "name": "messageNum",
          "type": "uint256"
        },
        {
          "indexed": false,
          "internalType": "bytes",
          "name": "data",
          "type": "bytes"
        }
      ],
      "name": "InboxMessageDelivered",
      "type": "event"
    },
    {
      "anonymous": false,
      "inputs": [
        {
          "indexed": true,
          "internalType": "uint256",
          "name": "messageNum",
          "type": "uint256"
        }
      ],
      "name": "InboxMessageDeliveredFromOrigin",
      "type": "event"
    },
    {
      "inputs": [],
      "name": "bridge",
      "outputs": [
        {
          "internalType": "contract IBridge",
          "name": "",
          "type": "address"
        }
      ],
      "stateMutability": "view",
      "type": "function"
    },
    {
      "inputs": [
        {
          "internalType": "address",
          "name": "_destAddr",
          "type": "address"
        },
        {
          "internalType": "uint256",
          "name": "_arbTxCallValue",
          "type": "uint256"
        },
        {
          "internalType": "uint256",
          "name": "_maxSubmissionCost",
          "type": "uint256"
        },
        {
          "internalType": "address",
          "name": "_submissionRefundAddress",
          "type": "address"
        },
        {
          "internalType": "address",
          "name": "_valueRefundAddress",
          "type": "address"
        },
        {
          "internalType": "uint256",
          "name": "_maxGas",
          "type": "uint256"
        },
        {
          "internalType": "uint256",
          "name": "_gasPriceBid",
          "type": "uint256"
        },
        {
          "internalType": "bytes",
          "name": "_data",
          "type": "bytes"
        }
      ],
      "name": "createRetryableTicket",
      "outputs": [
        {
          "internalType": "uint256",
          "name": "",
          "type": "uint256"
        }
      ],
      "stateMutability": "payable",
      "type": "function"
    },
    {
      "inputs": [
        {
          "internalType": "uint256",
          "name": "",
          "type": "uint256"
        }
      ],
      "name": "depositEth",
      "outputs": [
        {
          "internalType": "uint256",
          "name": "",
          "type": "uint256"
        }
      ],
      "stateMutability": "payable",
      "type": "function"
    },
    {
      "inputs": [],
      "name": "pauseCreateRetryables",
      "outputs": [],
      "stateMutability": "pure",
      "type": "function"
    },
    {
      "inputs": [
        {
          "internalType": "uint256",
          "name": "",
          "type": "uint256"
        },
        {
          "internalType": "uint256",
          "name": "",
          "type": "uint256"
        },
        {
          "internalType": "address",
          "name": "",
          "type": "address"
        },
        {
          "internalType": "uint256",
          "name": "",
          "type": "uint256"
        },
        {
          "internalType": "bytes",
          "name": "",
          "type": "bytes"
        }
      ],
      "name": "sendContractTransaction",
      "outputs": [
        {
          "internalType": "uint256",
          "name": "",
          "type": "uint256"
        }
      ],
      "stateMutability": "pure",
      "type": "function"
    },
    {
      "inputs": [
        {
          "internalType": "uint256",
          "name": "",
          "type": "uint256"
        },
        {
          "internalType": "uint256",
          "name": "",
          "type": "uint256"
        },
        {
          "internalType": "address",
          "name": "",
          "type": "address"
        },
        {
          "internalType": "bytes",
          "name": "",
          "type": "bytes"
        }
      ],
      "name": "sendL1FundedContractTransaction",
      "outputs": [
        {
          "internalType": "uint256",
          "name": "",
          "type": "uint256"
        }
      ],
      "stateMutability": "payable",
      "type": "function"
    },
    {
      "inputs": [
        {
          "internalType": "uint256",
          "name": "",
          "type": "uint256"
        },
        {
          "internalType": "uint256",
          "name": "",
          "type": "uint256"
        },
        {
          "internalType": "uint256",
          "name": "",
          "type": "uint256"
        },
        {
          "internalType": "address",
          "name": "",
          "type": "address"
        },
        {
          "internalType": "bytes",
          "name": "",
          "type": "bytes"
        }
      ],
      "name": "sendL1FundedUnsignedTransaction",
      "outputs": [
        {
          "internalType": "uint256",
          "name": "",
          "type": "uint256"
        }
      ],
      "stateMutability": "payable",
      "type": "function"
    },
    {
      "inputs": [
        {
          "internalType": "bytes",
          "name": "_messageData",
          "type": "bytes"
        }
      ],
      "name": "sendL2Message",
      "outputs": [
        {
          "internalType": "uint256",
          "name": "",
          "type": "uint256"
        }
      ],
      "stateMutability": "nonpayable",
      "type": "function"
    },
    {
      "inputs": [
        {
          "internalType": "uint256",
          "name": "",
          "type": "uint256"
        },
        {
          "internalType": "uint256",
          "name": "",
          "type": "uint256"
        },
        {
          "internalType": "uint256",
          "name": "",
          "type": "uint256"
        },
        {
          "internalType": "address",
          "name": "",
          "type": "address"
        },
        {
          "internalType": "uint256",
          "name": "",
          "type": "uint256"
        },
        {
          "internalType": "bytes",
          "name": "",
          "type": "bytes"
        }
      ],
      "name": "sendUnsignedTransaction",
      "outputs": [
        {
          "internalType": "uint256",
          "name": "",
          "type": "uint256"
        }
      ],
      "stateMutability": "pure",
      "type": "function"
    },
    {
      "inputs": [
        {
          "internalType": "address",
          "name": "_bridge",
          "type": "address"
        }
      ],
      "name": "setBridge",
      "outputs": [],
      "stateMutability": "nonpayable",
      "type": "function"
    },
    {
      "inputs": [],
      "name": "startRewriteAddress",
      "outputs": [],
      "stateMutability": "pure",
      "type": "function"
    },
    {
      "inputs": [],
      "name": "stopRewriteAddress",
      "outputs": [],
      "stateMutability": "pure",
      "type": "function"
    },
    {
      "inputs": [],
      "name": "unpauseCreateRetryables",
      "outputs": [],
      "stateMutability": "pure",
      "type": "function"
    }
  ],
  "bytecode": "0x608060405234801561001057600080fd5b506107e6806100206000396000f3fe6080604052600436106100c25760003560e01c8063794cfd511161007f5780638dd14802116100595780638dd14802146103545780639fe12da5146100f6578063b75436bb14610387578063e78cea9214610402576100c2565b8063794cfd51146100f65780637ae8d8b3146100f65780638a631aa6146102f6576100c2565b80630f4d14e9146100c75780632b40609a146100f65780635075788b1461010d5780635e916758146101b0578063679b6ded146101fc57806367ef3ab8146102a5575b600080fd5b6100e4600480360360208110156100dd57600080fd5b5035610433565b60408051918252519081900360200190f35b34801561010257600080fd5b5061010b610472565b005b34801561011957600080fd5b506100e4600480360360c081101561013057600080fd5b8135916020810135916040820135916001600160a01b03606082013516916080820135919081019060c0810160a0820135600160201b81111561017257600080fd5b82018360208201111561018457600080fd5b803590602001918460018302840111600160201b831117156101a557600080fd5b509092509050610433565b6100e4600480360360808110156101c657600080fd5b8135916020810135916001600160a01b036040830135169190810190608081016060820135600160201b81111561017257600080fd5b6100e4600480360361010081101561021357600080fd5b6001600160a01b038235811692602081013592604082013592606083013581169260808101359091169160a08201359160c081013591810190610100810160e0820135600160201b81111561026757600080fd5b82018360208201111561027957600080fd5b803590602001918460018302840111600160201b8311171561029a57600080fd5b5090925090506104af565b6100e4600480360360a08110156102bb57600080fd5b8135916020810135916040820135916001600160a01b036060820135169181019060a081016080820135600160201b81111561017257600080fd5b34801561030257600080fd5b506100e4600480360360a081101561031957600080fd5b8135916020810135916001600160a01b036040830135169160608101359181019060a081016080820135600160201b81111561017257600080fd5b34801561036057600080fd5b5061010b6004803603602081101561037757600080fd5b50356001600160a01b0316610581565b34801561039357600080fd5b506100e4600480360360208110156103aa57600080fd5b810190602081018135600160201b8111156103c457600080fd5b8201836020820111156103d657600080fd5b803590602001918460018302840111600160201b831117156103f757600080fd5b5090925090506105a3565b34801561040e57600080fd5b50610417610638565b604080516001600160a01b039092168252519081900360200190f35b6040805162461bcd60e51b815260206004820152600d60248201526c155b9a5b5c1b195b595b9d1959609a1b6044820152905160009181900360640190fd5b6040805162461bcd60e51b815260206004820152600d60248201526c155b9a5b5c1b195b595b9d1959609a1b604482015290519081900360640190fd5b60006104ba87610647565b96506104c586610647565b95506105736009338c60601b60601c6001600160a01b03168c348d8d60601b60601c6001600160a01b03168d60601b60601c6001600160a01b03168d8d8d8d90508e8e604051602001808c81526020018b81526020018a8152602001898152602001888152602001878152602001868152602001858152602001848152602001838380828437808301925050509b505050505050505050505050604051602081830303815290604052610660565b9a9950505050505050505050565b600080546001600160a01b0319166001600160a01b0392909216919091179055565b6000806105ce6003338686604051808383808284376040519201829003909120935061071992505050565b9050807fff64905f73a67fb594e0f940a8075a860db489ad991e032f48c81123eb52d60b858560405180806020018281038252848482818152602001925080828437600083820152604051601f909101601f19169092018290039550909350505050a29392505050565b6000546001600160a01b031681565b7311110000000000000000000000000000000011110190565b60008061067585858580519060200120610719565b9050807fff64905f73a67fb594e0f940a8075a860db489ad991e032f48c81123eb52d60b846040518080602001828103825283818151815260200191508051906020019080838360005b838110156106d75781810151838201526020016106bf565b50505050905090810190601f1680156107045780820380516001836020036101000a031916815260200191505b509250505060405180910390a2949350505050565b60008054604080516302bbfad160e01b815260ff871660048201526001600160a01b03868116602483015260448201869052915191909216916302bbfad191349160648082019260209290919082900301818588803b15801561077b57600080fd5b505af115801561078f573d6000803e3d6000fd5b50505050506040513d60208110156107a657600080fd5b505194935050505056fea2646970667358221220e797b7b113302d0072a9ee8658a94d5a755c1e899cd6141b64273795a47dca6564736f6c63430007060033",
  "linkReferences": {},
  "deployedLinkReferences": {}
}