{
  "_format": "hh-sol-artifact-1",
  "contractName": "SubgraphAvailabilityManager",
  "sourceName": "contracts/rewards/SubgraphAvailabilityManager.sol",
  "abi": [
    {
      "inputs": [
        {
          "internalType": "address",
          "name": "_governor",
          "type": "address"
        },
        {
          "internalType": "address",
          "name": "_rewardsManager",
          "type": "address"
        },
        {
          "internalType": "uint256",
          "name": "_executionThreshold",
          "type": "uint256"
        },
        {
          "internalType": "uint256",
          "name": "_voteTimeLimit",
          "type": "uint256"
        },
        {
          "internalType": "address[5]",
          "name": "_oracles",
          "type": "address[5]"
        }
      ],
      "stateMutability": "nonpayable",
      "type": "constructor"
    },
    {
      "anonymous": false,
      "inputs": [
        {
          "indexed": true,
          "internalType": "address",
          "name": "from",
          "type": "address"
        },
        {
          "indexed": true,
          "internalType": "address",
          "name": "to",
          "type": "address"
        }
      ],
      "name": "NewOwnership",
      "type": "event"
    },
    {
      "anonymous": false,
      "inputs": [
        {
          "indexed": true,
          "internalType": "address",
          "name": "from",
          "type": "address"
        },
        {
          "indexed": true,
          "internalType": "address",
          "name": "to",
          "type": "address"
        }
      ],
      "name": "NewPendingOwnership",
      "type": "event"
    },
    {
      "anonymous": false,
      "inputs": [
        {
          "indexed": true,
          "internalType": "uint256",
          "name": "index",
          "type": "uint256"
        },
        {
          "indexed": true,
          "internalType": "address",
          "name": "oracle",
          "type": "address"
        }
      ],
      "name": "OracleSet",
      "type": "event"
    },
    {
      "anonymous": false,
      "inputs": [
        {
          "indexed": true,
          "internalType": "bytes32",
          "name": "subgraphDeploymentID",
          "type": "bytes32"
        },
        {
          "indexed": false,
          "internalType": "bool",
          "name": "deny",
          "type": "bool"
        },
        {
          "indexed": true,
          "internalType": "uint256",
          "name": "oracleIndex",
          "type": "uint256"
        },
        {
          "indexed": false,
          "internalType": "uint256",
          "name": "timestamp",
          "type": "uint256"
        }
      ],
      "name": "OracleVote",
      "type": "event"
    },
    {
      "anonymous": false,
      "inputs": [
        {
          "indexed": false,
          "internalType": "uint256",
          "name": "voteTimeLimit",
          "type": "uint256"
        }
      ],
      "name": "VoteTimeLimitSet",
      "type": "event"
    },
    {
      "inputs": [],
      "name": "NUM_ORACLES",
      "outputs": [
        {
          "internalType": "uint256",
          "name": "",
          "type": "uint256"
        }
      ],
      "stateMutability": "view",
      "type": "function"
    },
    {
      "inputs": [],
      "name": "acceptOwnership",
      "outputs": [],
      "stateMutability": "nonpayable",
      "type": "function"
    },
    {
      "inputs": [
        {
          "internalType": "bytes32",
          "name": "_subgraphDeploymentID",
          "type": "bytes32"
        },
        {
          "internalType": "bool",
          "name": "_deny",
          "type": "bool"
        }
      ],
      "name": "checkVotes",
      "outputs": [
        {
          "internalType": "bool",
          "name": "",
          "type": "bool"
        }
      ],
      "stateMutability": "view",
      "type": "function"
    },
    {
      "inputs": [],
      "name": "currentNonce",
      "outputs": [
        {
          "internalType": "uint256",
          "name": "",
          "type": "uint256"
        }
      ],
      "stateMutability": "view",
      "type": "function"
    },
    {
      "inputs": [],
      "name": "executionThreshold",
      "outputs": [
        {
          "internalType": "uint256",
          "name": "",
          "type": "uint256"
        }
      ],
      "stateMutability": "view",
      "type": "function"
    },
    {
      "inputs": [],
      "name": "governor",
      "outputs": [
        {
          "internalType": "address",
          "name": "",
          "type": "address"
        }
      ],
      "stateMutability": "view",
      "type": "function"
    },
    {
      "inputs": [
        {
          "internalType": "uint256",
          "name": "",
          "type": "uint256"
        },
        {
          "internalType": "bytes32",
          "name": "",
          "type": "bytes32"
        },
        {
          "internalType": "uint256",
          "name": "",
          "type": "uint256"
        }
      ],
      "name": "lastAllowVote",
      "outputs": [
        {
          "internalType": "uint256",
          "name": "",
          "type": "uint256"
        }
      ],
      "stateMutability": "view",
      "type": "function"
    },
    {
      "inputs": [
        {
          "internalType": "uint256",
          "name": "",
          "type": "uint256"
        },
        {
          "internalType": "bytes32",
          "name": "",
          "type": "bytes32"
        },
        {
          "internalType": "uint256",
          "name": "",
          "type": "uint256"
        }
      ],
      "name": "lastDenyVote",
      "outputs": [
        {
          "internalType": "uint256",
          "name": "",
          "type": "uint256"
        }
      ],
      "stateMutability": "view",
      "type": "function"
    },
    {
      "inputs": [
        {
          "internalType": "uint256",
          "name": "",
          "type": "uint256"
        }
      ],
      "name": "oracles",
      "outputs": [
        {
          "internalType": "address",
          "name": "",
          "type": "address"
        }
      ],
      "stateMutability": "view",
      "type": "function"
    },
    {
      "inputs": [],
      "name": "pendingGovernor",
      "outputs": [
        {
          "internalType": "address",
          "name": "",
          "type": "address"
        }
      ],
      "stateMutability": "view",
      "type": "function"
    },
    {
      "inputs": [
        {
          "internalType": "uint256",
          "name": "_index",
          "type": "uint256"
        },
        {
          "internalType": "address",
          "name": "_oracle",
          "type": "address"
        }
      ],
      "name": "setOracle",
      "outputs": [],
      "stateMutability": "nonpayable",
      "type": "function"
    },
    {
      "inputs": [
        {
          "internalType": "uint256",
          "name": "_voteTimeLimit",
          "type": "uint256"
        }
      ],
      "name": "setVoteTimeLimit",
      "outputs": [],
      "stateMutability": "nonpayable",
      "type": "function"
    },
    {
      "inputs": [
        {
          "internalType": "address",
          "name": "_newGovernor",
          "type": "address"
        }
      ],
      "name": "transferOwnership",
      "outputs": [],
      "stateMutability": "nonpayable",
      "type": "function"
    },
    {
      "inputs": [
        {
          "internalType": "bytes32",
          "name": "_subgraphDeploymentID",
          "type": "bytes32"
        },
        {
          "internalType": "bool",
          "name": "_deny",
          "type": "bool"
        },
        {
          "internalType": "uint256",
          "name": "_oracleIndex",
          "type": "uint256"
        }
      ],
      "name": "vote",
      "outputs": [],
      "stateMutability": "nonpayable",
      "type": "function"
    },
    {
      "inputs": [
        {
          "internalType": "bytes32[]",
          "name": "_subgraphDeploymentID",
          "type": "bytes32[]"
        },
        {
          "internalType": "bool[]",
          "name": "_deny",
          "type": "bool[]"
        },
        {
          "internalType": "uint256",
          "name": "_oracleIndex",
          "type": "uint256"
        }
      ],
      "name": "voteMany",
      "outputs": [],
      "stateMutability": "nonpayable",
      "type": "function"
    },
    {
      "inputs": [],
      "name": "voteTimeLimit",
      "outputs": [
        {
          "internalType": "uint256",
          "name": "",
          "type": "uint256"
        }
      ],
      "stateMutability": "view",
      "type": "function"
    }
  ],
  "bytecode": "0x60c060405234801561001057600080fd5b5060405161103a38038061103a833981810160405261012081101561003457600080fd5b5080516020820151604083015160608401519293919290916080016001600160a01b0385166100aa576040805162461bcd60e51b815260206004820152601960248201527f53414d3a20676f7665726e6f72206d7573742062652073657400000000000000604482015290519081900360640190fd5b6001600160a01b038416610105576040805162461bcd60e51b815260206004820152601f60248201527f53414d3a20726577617264734d616e61676572206d7573742062652073657400604482015290519081900360640190fd5b600383101561015b576040805162461bcd60e51b815260206004820152601f60248201527f53414d3a20657865637574696f6e5468726573686f6c6420746f6f206c6f7700604482015290519081900360640190fd5b60058311156101b1576040805162461bcd60e51b815260206004820181905260248201527f53414d3a20657865637574696f6e5468726573686f6c6420746f6f2068696768604482015290519081900360640190fd5b60005b60058110156102785760008282600581106101cb57fe5b602002015190506001600160a01b0381166102175760405162461bcd60e51b81526004018080602001828103825260228152602001806110186022913960400191505060405180910390fd5b806004836005811061022557fe5b0180546001600160a01b0319166001600160a01b039283161790556040519082169083907f61ed5fb9f6490171d7e49a130d655388e18d520be4af17aebf95efb2933315e390600090a3506001016101b4565b5061028c856102ac60201b610b101760201c565b5060609290921b6001600160601b03191660a052608052600355506102ce565b600080546001600160a01b0319166001600160a01b0392909216919091179055565b60805160a05160601c610d1f6102f960003980610c3b5250806105a2528061065e5250610d1f6000f3fe608060405234801561001057600080fd5b50600436106101005760003560e01c806379ba509711610097578063d3c049d311610066578063d3c049d314610256578063e3056a3414610281578063eb4fe64114610289578063f2fde38b1461034b57610100565b806379ba509714610215578063ad8cb8281461021d578063adb610a314610246578063ce70d4f41461024e57610100565b8063516be65e116100d3578063516be65e146101af5780635b69a7d8146101b75780635bcf8f6f146101d45780637110399b1461020d57610100565b80630c340a241461010557806316850c321461012957806317c67569146101485780633d13dd0314610174575b600080fd5b61010d610371565b604080516001600160a01b039092168252519081900360200190f35b6101466004803603602081101561013f57600080fd5b5035610380565b005b6101466004803603604081101561015e57600080fd5b50803590602001356001600160a01b031661041c565b61019d6004803603606081101561018a57600080fd5b508035906020810135906040013561056e565b60408051918252519081900360200190f35b61019d6105a0565b61010d600480360360208110156101cd57600080fd5b50356105c4565b6101f9600480360360408110156101ea57600080fd5b508035906020013515156105e4565b604080519115158252519081900360200190f35b61019d6106a8565b6101466106ae565b61019d6004803603606081101561023357600080fd5b50803590602081013590604001356107bc565b61019d6107e4565b61019d6107ea565b6101466004803603606081101561026c57600080fd5b508035906020810135151590604001356107ef565b61010d6108bc565b6101466004803603606081101561029f57600080fd5b8101906020810181356401000000008111156102ba57600080fd5b8201836020820111156102cc57600080fd5b803590602001918460208302840111640100000000831117156102ee57600080fd5b91939092909160208101903564010000000081111561030c57600080fd5b82018360208201111561031e57600080fd5b8035906020019184602083028401116401000000008311171561034057600080fd5b9193509150356108cb565b6101466004803603602081101561036157600080fd5b50356001600160a01b0316610a12565b6000546001600160a01b031681565b6000546001600160a01b031633146103d8576040805162461bcd60e51b815260206004820152601660248201527513db9b1e4811dbdd995c9b9bdc8818d85b8818d85b1b60521b604482015290519081900360640190fd5b60038190556002805460010190556040805182815290517f464f177e34333595ddece650d5f32a493d41c19bfbe4454f3be06b6d22668caf9181900360200190a150565b6000546001600160a01b03163314610474576040805162461bcd60e51b815260206004820152601660248201527513db9b1e4811dbdd995c9b9bdc8818d85b8818d85b1b60521b604482015290519081900360640190fd5b600582106104c4576040805162461bcd60e51b815260206004820152601860248201527753414d3a20696e646578206f7574206f6620626f756e647360401b604482015290519081900360640190fd5b6001600160a01b0381166105095760405162461bcd60e51b8152600401808060200182810382526022815260200180610cc86022913960400191505060405180910390fd5b806004836005811061051757fe5b0180546001600160a01b0319166001600160a01b039283161790556002805460010190556040519082169083907f61ed5fb9f6490171d7e49a130d655388e18d520be4af17aebf95efb2933315e390600090a35050565b600a602052826000526040600020602052816000526040600020816005811061059657600080fd5b0154925083915050565b7f000000000000000000000000000000000000000000000000000000000000000081565b600481600581106105d457600080fd5b01546001600160a01b0316905081565b600354600090819042038184610615576002546000908152600a602090815260408083208984529091529020610632565b600254600090815260096020908152604080832089845290915290205b905060005b6005811015610699578282826005811061064d57fe5b0154111561065c576001909301925b7f00000000000000000000000000000000000000000000000000000000000000008414156106915760019450505050506106a2565b600101610637565b50600093505050505b92915050565b60035481565b6001546001600160a01b031680158015906106d15750336001600160a01b038216145b610722576040805162461bcd60e51b815260206004820152601f60248201527f43616c6c6572206d7573742062652070656e64696e6720676f7665726e6f7200604482015290519081900360640190fd5b600080546001600160a01b038381166001600160a01b031980841691909117808555600180549092169091556040519282169391169183917f0ac6deed30eef60090c749850e10f2fa469e3e25fec1d1bef2853003f6e6f18f91a36001546040516001600160a01b03918216918416907f76563ad561b7036ae716b9b25cb521b21463240f104c97e12f25877f2235f33d90600090a35050565b6009602052826000526040600020602052816000526040600020816005811061059657600080fd5b60025481565b600581565b8060058110610840576040805162461bcd60e51b815260206004820152601860248201527753414d3a20696e646578206f7574206f6620626f756e647360401b604482015290519081900360640190fd5b6004816005811061084d57fe5b01546001600160a01b031633146108ab576040805162461bcd60e51b815260206004820152601a60248201527f53414d3a2063616c6c6572206d757374206265206f7261636c65000000000000604482015290519081900360640190fd5b6108b6848484610b32565b50505050565b6001546001600160a01b031681565b806005811061091c576040805162461bcd60e51b815260206004820152601860248201527753414d3a20696e646578206f7574206f6620626f756e647360401b604482015290519081900360640190fd5b6004816005811061092957fe5b01546001600160a01b03163314610987576040805162461bcd60e51b815260206004820152601a60248201527f53414d3a2063616c6c6572206d757374206265206f7261636c65000000000000604482015290519081900360640190fd5b8483146109c5576040805162461bcd60e51b8152602060048201526007602482015266042d8cadccee8d60cb1b604482015290519081900360640190fd5b60005b85811015610a0957610a018787838181106109df57fe5b905060200201358686848181106109f257fe5b90506020020135151585610b32565b6001016109c8565b50505050505050565b6000546001600160a01b03163314610a6a576040805162461bcd60e51b815260206004820152601660248201527513db9b1e4811dbdd995c9b9bdc8818d85b8818d85b1b60521b604482015290519081900360640190fd5b6001600160a01b038116610abc576040805162461bcd60e51b815260206004820152601460248201527311dbdd995c9b9bdc881b5d5cdd081899481cd95d60621b604482015290519081900360640190fd5b600180546001600160a01b038381166001600160a01b03198316179283905560405191811692169082907f76563ad561b7036ae716b9b25cb521b21463240f104c97e12f25877f2235f33d90600090a35050565b600080546001600160a01b0319166001600160a01b0392909216919091179055565b428215610b92576002546000908152600960209081526040808320878452909152902081908360058110610b6257fe5b01556002546000908152600a6020908152604080832087845290915281208360058110610b8b57fe5b0155610be7565b6002546000908152600a60209081526040808320878452909152902081908360058110610bbb57fe5b0155600254600090815260096020908152604080832087845290915281208360058110610be457fe5b01555b81847f016f0374e21e413dd07655867b6cee5769499d32477ec48b125b1e2ed70c9a8a85846040518083151581526020018281526020019250505060405180910390a3610c3484846105e4565b156108b6577f00000000000000000000000000000000000000000000000000000000000000006001600160a01b0316631324a50685856040518363ffffffff1660e01b815260040180838152602001821515815260200192505050600060405180830381600087803b158015610ca957600080fd5b505af1158015610cbd573d6000803e3d6000fd5b505050505050505056fe53414d3a206f7261636c652063616e6e6f742062652061646472657373207a65726fa2646970667358221220a51175a2211c6a174c17f58da9d61bcf1be19a9c54d3ea226d61b1582a8e914064736f6c6343000706003353414d3a206f7261636c652063616e6e6f742062652061646472657373207a65726f",
  "linkReferences": {},
  "deployedLinkReferences": {}
}