{
  "_format": "hh-sol-artifact-1",
  "contractName": "DisputeManagerV1Storage",
  "sourceName": "contracts/disputes/DisputeManagerStorage.sol",
  "abi": [
    {
      "anonymous": false,
      "inputs": [
        {
          "indexed": true,
          "internalType": "bytes32",
          "name": "nameHash",
          "type": "bytes32"
        },
        {
          "indexed": false,
          "internalType": "address",
          "name": "contractAddress",
          "type": "address"
        }
      ],
      "name": "ContractSynced",
      "type": "event"
    },
    {
      "anonymous": false,
      "inputs": [
        {
          "indexed": false,
          "internalType": "string",
          "name": "param",
          "type": "string"
        }
      ],
      "name": "ParameterUpdated",
      "type": "event"
    },
    {
      "anonymous": false,
      "inputs": [
        {
          "indexed": false,
          "internalType": "address",
          "name": "controller",
          "type": "address"
        }
      ],
      "name": "SetController",
      "type": "event"
    },
    {
      "inputs": [],
      "name": "arbitrator",
      "outputs": [
        {
          "internalType": "address",
          "name": "",
          "type": "address"
        }
      ],
      "stateMutability": "view",
      "type": "function"
    },
    {
      "inputs": [],
      "name": "controller",
      "outputs": [
        {
          "internalType": "contract IController",
          "name": "",
          "type": "address"
        }
      ],
      "stateMutability": "view",
      "type": "function"
    },
    {
      "inputs": [
        {
          "internalType": "bytes32",
          "name": "",
          "type": "bytes32"
        }
      ],
      "name": "disputes",
      "outputs": [
        {
          "internalType": "address",
          "name": "indexer",
          "type": "address"
        },
        {
          "internalType": "address",
          "name": "fisherman",
          "type": "address"
        },
        {
          "internalType": "uint256",
          "name": "deposit",
          "type": "uint256"
        },
        {
          "internalType": "bytes32",
          "name": "relatedDisputeID",
          "type": "bytes32"
        },
        {
          "internalType": "enum IDisputeManager.DisputeType",
          "name": "disputeType",
          "type": "uint8"
        },
        {
          "internalType": "enum IDisputeManager.DisputeStatus",
          "name": "status",
          "type": "uint8"
        }
      ],
      "stateMutability": "view",
      "type": "function"
    },
    {
      "inputs": [],
      "name": "fishermanRewardPercentage",
      "outputs": [
        {
          "internalType": "uint32",
          "name": "",
          "type": "uint32"
        }
      ],
      "stateMutability": "view",
      "type": "function"
    },
    {
      "inputs": [],
      "name": "idxSlashingPercentage",
      "outputs": [
        {
          "internalType": "uint32",
          "name": "",
          "type": "uint32"
        }
      ],
      "stateMutability": "view",
      "type": "function"
    },
    {
      "inputs": [],
      "name": "minimumDeposit",
      "outputs": [
        {
          "internalType": "uint256",
          "name": "",
          "type": "uint256"
        }
      ],
      "stateMutability": "view",
      "type": "function"
    },
    {
      "inputs": [],
      "name": "qrySlashingPercentage",
      "outputs": [
        {
          "internalType": "uint32",
          "name": "",
          "type": "uint32"
        }
      ],
      "stateMutability": "view",
      "type": "function"
    },
    {
      "inputs": [
        {
          "internalType": "address",
          "name": "_controller",
          "type": "address"
        }
      ],
      "name": "setController",
      "outputs": [],
      "stateMutability": "nonpayable",
      "type": "function"
    },
    {
      "inputs": [],
      "name": "syncAllContracts",
      "outputs": [],
      "stateMutability": "nonpayable",
      "type": "function"
    }
  ],
  "bytecode": "0x6101606040527fe6876326c1291dfcbbd3864a6816d698cd591defc7aa2153d7f9c4c04016c89f6080527fc713c3df6d14cdf946460395d09af88993ee2b948b1a808161494e32c5f6706360a0527f966f1e8d8d8014e05f6ec4a57138da9be1f7c5a7f802928a18072f7c5318076160c0527f1df41cd916959d1163dc8f0671a666ea8a3e434c13e40faef527133b5d16703460e0527f45fc200c7e4544e457d3c5709bfe0d520442c30bbcbdaede89e8d4a4bbc19247610100527fd362cac9cb75c10d67bcc0b7eeb0b1ef48bb5420b556c092d4fd7f758816fcf0610120527f39605a6c26a173774ca666c67ef70cf491880e5d3d6d0ca66ec0a31034f15ea36101405234801561011057600080fd5b5060805160a05160c05160e0516101005161012051610140516105d46101646000398061036052508061033752508061030e5250806102e55250806102bc52508061029352508061026a52506105d46000f3fe608060405234801561001057600080fd5b50600436106100935760003560e01c80636cc6cde1116100665780636cc6cde114610159578063787693e01461017d57806392eefe9b14610185578063d6866ea5146101ad578063f77c4791146101b557610093565b806311be199714610098578063458af6fc14610116578063530efc9d14610137578063636bfbab1461013f575b600080fd5b6100b5600480360360208110156100ae57600080fd5b50356101bd565b60405180876001600160a01b03168152602001866001600160a01b031681526020018581526020018481526020018360028111156100ef57fe5b815260200182600481111561010057fe5b8152602001965050505050505060405180910390f35b61011e610204565b6040805163ffffffff9092168252519081900360200190f35b61011e610210565b610147610224565b60408051918252519081900360200190f35b61016161022a565b604080516001600160a01b039092168252519081900360200190f35b61011e610239565b6101ab6004803603602081101561019b57600080fd5b50356001600160a01b0316610251565b005b6101ab610265565b610161610386565b601060205260009081526040902080546001820154600283015460038401546004909401546001600160a01b03938416949390921692909160ff8082169161010090041686565b600f5463ffffffff1681565b600f54640100000000900463ffffffff1681565b600e5481565b600d546001600160a01b031681565b600f5468010000000000000000900463ffffffff1681565b610259610395565b610262816103f4565b50565b61028e7f000000000000000000000000000000000000000000000000000000000000000061049c565b6102b77f000000000000000000000000000000000000000000000000000000000000000061049c565b6102e07f000000000000000000000000000000000000000000000000000000000000000061049c565b6103097f000000000000000000000000000000000000000000000000000000000000000061049c565b6103327f000000000000000000000000000000000000000000000000000000000000000061049c565b61035b7f000000000000000000000000000000000000000000000000000000000000000061049c565b6103847f000000000000000000000000000000000000000000000000000000000000000061049c565b565b6000546001600160a01b031681565b6000546001600160a01b03163314610384576040805162461bcd60e51b815260206004820152601960248201527f43616c6c6572206d75737420626520436f6e74726f6c6c657200000000000000604482015290519081900360640190fd5b6001600160a01b038116610448576040805162461bcd60e51b815260206004820152601660248201527510dbdb9d1c9bdb1b195c881b5d5cdd081899481cd95d60521b604482015290519081900360640190fd5b600080546001600160a01b0383166001600160a01b0319909116811790915560408051918252517f4ff638452bbf33c012645d18ae6f05515ff5f2d1dfb0cece8cbf018c60903f709181900360200190a150565b6000805460408051637bb20d2f60e11b81526004810185905290516001600160a01b039092169163f7641a5e91602480820192602092909190829003018186803b1580156104e957600080fd5b505afa1580156104fd573d6000803e3d6000fd5b505050506040513d602081101561051357600080fd5b50516000838152600160205260409020549091506001600160a01b0380831691161461059a5760008281526001602090815260409182902080546001600160a01b0319166001600160a01b0385169081179091558251908152915184927fd0e7a942b1fc38c411c4f53d153ba14fd24542a6a35ebacd9b6afca1a154e20692908290030190a25b505056fea26469706673582212207ad90eff219654b7bd2feafdf19c05df9c73bd027b7aa2db0140d83a0b40eb9364736f6c63430007060033",
  "linkReferences": {},
  "deployedLinkReferences": {}
}