{
  "_format": "hh-sol-artifact-1",
  "contractName": "L1Staking",
  "sourceName": "contracts/staking/L1Staking.sol",
  "abi": [
    {
      "anonymous": false,
      "inputs": [
        {
          "indexed": true,
          "internalType": "address",
          "name": "indexer",
          "type": "address"
        },
        {
          "indexed": true,
          "internalType": "bytes32",
          "name": "subgraphDeploymentID",
          "type": "bytes32"
        },
        {
          "indexed": false,
          "internalType": "uint256",
          "name": "epoch",
          "type": "uint256"
        },
        {
          "indexed": false,
          "internalType": "uint256",
          "name": "tokens",
          "type": "uint256"
        },
        {
          "indexed": true,
          "internalType": "address",
          "name": "allocationID",
          "type": "address"
        },
        {
          "indexed": false,
          "internalType": "address",
          "name": "sender",
          "type": "address"
        },
        {
          "indexed": false,
          "internalType": "bytes32",
          "name": "poi",
          "type": "bytes32"
        },
        {
          "indexed": false,
          "internalType": "bool",
          "name": "isPublic",
          "type": "bool"
        }
      ],
      "name": "AllocationClosed",
      "type": "event"
    },
    {
      "anonymous": false,
      "inputs": [
        {
          "indexed": true,
          "internalType": "address",
          "name": "indexer",
          "type": "address"
        },
        {
          "indexed": true,
          "internalType": "bytes32",
          "name": "subgraphDeploymentID",
          "type": "bytes32"
        },
        {
          "indexed": false,
          "internalType": "uint256",
          "name": "epoch",
          "type": "uint256"
        },
        {
          "indexed": false,
          "internalType": "uint256",
          "name": "tokens",
          "type": "uint256"
        },
        {
          "indexed": true,
          "internalType": "address",
          "name": "allocationID",
          "type": "address"
        },
        {
          "indexed": false,
          "internalType": "bytes32",
          "name": "metadata",
          "type": "bytes32"
        }
      ],
      "name": "AllocationCreated",
      "type": "event"
    },
    {
      "anonymous": false,
      "inputs": [
        {
          "indexed": true,
          "internalType": "bytes32",
          "name": "nameHash",
          "type": "bytes32"
        },
        {
          "indexed": false,
          "internalType": "address",
          "name": "contractAddress",
          "type": "address"
        }
      ],
      "name": "ContractSynced",
      "type": "event"
    },
    {
      "anonymous": false,
      "inputs": [
        {
          "indexed": true,
          "internalType": "address",
          "name": "indexer",
          "type": "address"
        },
        {
          "indexed": false,
          "internalType": "uint32",
          "name": "indexingRewardCut",
          "type": "uint32"
        },
        {
          "indexed": false,
          "internalType": "uint32",
          "name": "queryFeeCut",
          "type": "uint32"
        },
        {
          "indexed": false,
          "internalType": "uint32",
          "name": "__DEPRECATED_cooldownBlocks",
          "type": "uint32"
        }
      ],
      "name": "DelegationParametersUpdated",
      "type": "event"
    },
    {
      "anonymous": false,
      "inputs": [
        {
          "indexed": true,
          "internalType": "address",
          "name": "delegator",
          "type": "address"
        },
        {
          "indexed": true,
          "internalType": "address",
          "name": "l2Delegator",
          "type": "address"
        },
        {
          "indexed": true,
          "internalType": "address",
          "name": "indexer",
          "type": "address"
        },
        {
          "indexed": false,
          "internalType": "address",
          "name": "l2Indexer",
          "type": "address"
        },
        {
          "indexed": false,
          "internalType": "uint256",
          "name": "transferredDelegationTokens",
          "type": "uint256"
        }
      ],
      "name": "DelegationTransferredToL2",
      "type": "event"
    },
    {
      "anonymous": false,
      "inputs": [
        {
          "indexed": true,
          "internalType": "address",
          "name": "extensionImpl",
          "type": "address"
        }
      ],
      "name": "ExtensionImplementationSet",
      "type": "event"
    },
    {
      "anonymous": false,
      "inputs": [
        {
          "indexed": true,
          "internalType": "address",
          "name": "indexer",
          "type": "address"
        },
        {
          "indexed": true,
          "internalType": "address",
          "name": "l2Indexer",
          "type": "address"
        },
        {
          "indexed": false,
          "internalType": "uint256",
          "name": "transferredStakeTokens",
          "type": "uint256"
        }
      ],
      "name": "IndexerStakeTransferredToL2",
      "type": "event"
    },
    {
      "anonymous": false,
      "inputs": [
        {
          "indexed": false,
          "internalType": "address",
          "name": "l1GraphTokenLockTransferTool",
          "type": "address"
        }
      ],
      "name": "L1GraphTokenLockTransferToolSet",
      "type": "event"
    },
    {
      "anonymous": false,
      "inputs": [
        {
          "indexed": false,
          "internalType": "string",
          "name": "param",
          "type": "string"
        }
      ],
      "name": "ParameterUpdated",
      "type": "event"
    },
    {
      "anonymous": false,
      "inputs": [
        {
          "indexed": false,
          "internalType": "address",
          "name": "assetHolder",
          "type": "address"
        },
        {
          "indexed": true,
          "internalType": "address",
          "name": "indexer",
          "type": "address"
        },
        {
          "indexed": true,
          "internalType": "bytes32",
          "name": "subgraphDeploymentID",
          "type": "bytes32"
        },
        {
          "indexed": true,
          "internalType": "address",
          "name": "allocationID",
          "type": "address"
        },
        {
          "indexed": false,
          "internalType": "uint256",
          "name": "epoch",
          "type": "uint256"
        },
        {
          "indexed": false,
          "internalType": "uint256",
          "name": "tokens",
          "type": "uint256"
        },
        {
          "indexed": false,
          "internalType": "uint256",
          "name": "protocolTax",
          "type": "uint256"
        },
        {
          "indexed": false,
          "internalType": "uint256",
          "name": "curationFees",
          "type": "uint256"
        },
        {
          "indexed": false,
          "internalType": "uint256",
          "name": "queryFees",
          "type": "uint256"
        },
        {
          "indexed": false,
          "internalType": "uint256",
          "name": "queryRebates",
          "type": "uint256"
        },
        {
          "indexed": false,
          "internalType": "uint256",
          "name": "delegationRewards",
          "type": "uint256"
        }
      ],
      "name": "RebateCollected",
      "type": "event"
    },
    {
      "anonymous": false,
      "inputs": [
        {
          "indexed": false,
          "internalType": "address",
          "name": "controller",
          "type": "address"
        }
      ],
      "name": "SetController",
      "type": "event"
    },
    {
      "anonymous": false,
      "inputs": [
        {
          "indexed": true,
          "internalType": "address",
          "name": "indexer",
          "type": "address"
        },
        {
          "indexed": true,
          "internalType": "address",
          "name": "operator",
          "type": "address"
        },
        {
          "indexed": false,
          "internalType": "bool",
          "name": "allowed",
          "type": "bool"
        }
      ],
      "name": "SetOperator",
      "type": "event"
    },
    {
      "anonymous": false,
      "inputs": [
        {
          "indexed": true,
          "internalType": "address",
          "name": "indexer",
          "type": "address"
        },
        {
          "indexed": true,
          "internalType": "address",
          "name": "destination",
          "type": "address"
        }
      ],
      "name": "SetRewardsDestination",
      "type": "event"
    },
    {
      "anonymous": false,
      "inputs": [
        {
          "indexed": true,
          "internalType": "address",
          "name": "indexer",
          "type": "address"
        },
        {
          "indexed": true,
          "internalType": "address",
          "name": "delegator",
          "type": "address"
        }
      ],
      "name": "StakeDelegatedUnlockedDueToL2Transfer",
      "type": "event"
    },
    {
      "anonymous": false,
      "inputs": [
        {
          "indexed": true,
          "internalType": "address",
          "name": "indexer",
          "type": "address"
        },
        {
          "indexed": false,
          "internalType": "uint256",
          "name": "tokens",
          "type": "uint256"
        }
      ],
      "name": "StakeDeposited",
      "type": "event"
    },
    {
      "anonymous": false,
      "inputs": [
        {
          "indexed": true,
          "internalType": "address",
          "name": "indexer",
          "type": "address"
        },
        {
          "indexed": false,
          "internalType": "uint256",
          "name": "tokens",
          "type": "uint256"
        },
        {
          "indexed": false,
          "internalType": "uint256",
          "name": "until",
          "type": "uint256"
        }
      ],
      "name": "StakeLocked",
      "type": "event"
    },
    {
      "anonymous": false,
      "inputs": [
        {
          "indexed": true,
          "internalType": "address",
          "name": "indexer",
          "type": "address"
        },
        {
          "indexed": false,
          "internalType": "uint256",
          "name": "tokens",
          "type": "uint256"
        }
      ],
      "name": "StakeWithdrawn",
      "type": "event"
    },
    {
      "stateMutability": "nonpayable",
      "type": "fallback"
    },
    {
      "inputs": [
        {
          "internalType": "contract IGraphProxy",
          "name": "_proxy",
          "type": "address"
        }
      ],
      "name": "acceptProxy",
      "outputs": [],
      "stateMutability": "nonpayable",
      "type": "function"
    },
    {
      "inputs": [
        {
          "internalType": "contract IGraphProxy",
          "name": "_proxy",
          "type": "address"
        },
        {
          "internalType": "bytes",
          "name": "_data",
          "type": "bytes"
        }
      ],
      "name": "acceptProxyAndCall",
      "outputs": [],
      "stateMutability": "nonpayable",
      "type": "function"
    },
    {
      "inputs": [
        {
          "internalType": "bytes32",
          "name": "_subgraphDeploymentID",
          "type": "bytes32"
        },
        {
          "internalType": "uint256",
          "name": "_tokens",
          "type": "uint256"
        },
        {
          "internalType": "address",
          "name": "_allocationID",
          "type": "address"
        },
        {
          "internalType": "bytes32",
          "name": "_metadata",
          "type": "bytes32"
        },
        {
          "internalType": "bytes",
          "name": "_proof",
          "type": "bytes"
        }
      ],
      "name": "allocate",
      "outputs": [],
      "stateMutability": "nonpayable",
      "type": "function"
    },
    {
      "inputs": [
        {
          "internalType": "address",
          "name": "_indexer",
          "type": "address"
        },
        {
          "internalType": "bytes32",
          "name": "_subgraphDeploymentID",
          "type": "bytes32"
        },
        {
          "internalType": "uint256",
          "name": "_tokens",
          "type": "uint256"
        },
        {
          "internalType": "address",
          "name": "_allocationID",
          "type": "address"
        },
        {
          "internalType": "bytes32",
          "name": "_metadata",
          "type": "bytes32"
        },
        {
          "internalType": "bytes",
          "name": "_proof",
          "type": "bytes"
        }
      ],
      "name": "allocateFrom",
      "outputs": [],
      "stateMutability": "nonpayable",
      "type": "function"
    },
    {
      "inputs": [
        {
          "internalType": "address",
          "name": "_allocationID",
          "type": "address"
        },
        {
          "internalType": "bytes32",
          "name": "_poi",
          "type": "bytes32"
        }
      ],
      "name": "closeAllocation",
      "outputs": [],
      "stateMutability": "nonpayable",
      "type": "function"
    },
    {
      "inputs": [
        {
          "internalType": "uint256",
          "name": "_tokens",
          "type": "uint256"
        },
        {
          "internalType": "address",
          "name": "_allocationID",
          "type": "address"
        }
      ],
      "name": "collect",
      "outputs": [],
      "stateMutability": "nonpayable",
      "type": "function"
    },
    {
      "inputs": [],
      "name": "controller",
      "outputs": [
        {
          "internalType": "contract IController",
          "name": "",
          "type": "address"
        }
      ],
      "stateMutability": "view",
      "type": "function"
    },
    {
      "inputs": [
        {
          "internalType": "address",
          "name": "_allocationID",
          "type": "address"
        }
      ],
      "name": "getAllocation",
      "outputs": [
        {
          "components": [
            {
              "internalType": "address",
              "name": "indexer",
              "type": "address"
            },
            {
              "internalType": "bytes32",
              "name": "subgraphDeploymentID",
              "type": "bytes32"
            },
            {
              "internalType": "uint256",
              "name": "tokens",
              "type": "uint256"
            },
            {
              "internalType": "uint256",
              "name": "createdAtEpoch",
              "type": "uint256"
            },
            {
              "internalType": "uint256",
              "name": "closedAtEpoch",
              "type": "uint256"
            },
            {
              "internalType": "uint256",
              "name": "collectedFees",
              "type": "uint256"
            },
            {
              "internalType": "uint256",
              "name": "__DEPRECATED_effectiveAllocation",
              "type": "uint256"
            },
            {
              "internalType": "uint256",
              "name": "accRewardsPerAllocatedToken",
              "type": "uint256"
            },
            {
              "internalType": "uint256",
              "name": "distributedRebates",
              "type": "uint256"
            }
          ],
          "internalType": "struct IStakingData.Allocation",
          "name": "",
          "type": "tuple"
        }
      ],
      "stateMutability": "view",
      "type": "function"
    },
    {
      "inputs": [
        {
          "internalType": "address",
          "name": "_allocationID",
          "type": "address"
        }
      ],
      "name": "getAllocationData",
      "outputs": [
        {
          "internalType": "bool",
          "name": "",
          "type": "bool"
        },
        {
          "internalType": "address",
          "name": "",
          "type": "address"
        },
        {
          "internalType": "bytes32",
          "name": "",
          "type": "bytes32"
        },
        {
          "internalType": "uint256",
          "name": "",
          "type": "uint256"
        },
        {
          "internalType": "uint256",
          "name": "",
          "type": "uint256"
        },
        {
          "internalType": "uint256",
          "name": "",
          "type": "uint256"
        }
      ],
      "stateMutability": "view",
      "type": "function"
    },
    {
      "inputs": [
        {
          "internalType": "address",
          "name": "_allocationID",
          "type": "address"
        }
      ],
      "name": "getAllocationState",
      "outputs": [
        {
          "internalType": "enum IStakingBase.AllocationState",
          "name": "",
          "type": "uint8"
        }
      ],
      "stateMutability": "view",
      "type": "function"
    },
    {
      "inputs": [
        {
          "internalType": "address",
          "name": "_indexer",
          "type": "address"
        }
      ],
      "name": "getIndexerCapacity",
      "outputs": [
        {
          "internalType": "uint256",
          "name": "",
          "type": "uint256"
        }
      ],
      "stateMutability": "view",
      "type": "function"
    },
    {
      "inputs": [
        {
          "internalType": "address",
          "name": "_indexer",
          "type": "address"
        }
      ],
      "name": "getIndexerStakedTokens",
      "outputs": [
        {
          "internalType": "uint256",
          "name": "",
          "type": "uint256"
        }
      ],
      "stateMutability": "view",
      "type": "function"
    },
    {
      "inputs": [
        {
          "internalType": "bytes32",
          "name": "_subgraphDeploymentID",
          "type": "bytes32"
        }
      ],
      "name": "getSubgraphAllocatedTokens",
      "outputs": [
        {
          "internalType": "uint256",
          "name": "",
          "type": "uint256"
        }
      ],
      "stateMutability": "view",
      "type": "function"
    },
    {
      "inputs": [
        {
          "internalType": "address",
          "name": "_indexer",
          "type": "address"
        }
      ],
      "name": "hasStake",
      "outputs": [
        {
          "internalType": "bool",
          "name": "",
          "type": "bool"
        }
      ],
      "stateMutability": "view",
      "type": "function"
    },
    {
      "inputs": [
        {
          "internalType": "address",
          "name": "",
          "type": "address"
        }
      ],
      "name": "indexerTransferredToL2",
      "outputs": [
        {
          "internalType": "address",
          "name": "",
          "type": "address"
        }
      ],
      "stateMutability": "view",
      "type": "function"
    },
    {
      "inputs": [
        {
          "internalType": "address",
          "name": "_controller",
          "type": "address"
        },
        {
          "internalType": "uint256",
          "name": "_minimumIndexerStake",
          "type": "uint256"
        },
        {
          "internalType": "uint32",
          "name": "_thawingPeriod",
          "type": "uint32"
        },
        {
          "internalType": "uint32",
          "name": "_protocolPercentage",
          "type": "uint32"
        },
        {
          "internalType": "uint32",
          "name": "_curationPercentage",
          "type": "uint32"
        },
        {
          "internalType": "uint32",
          "name": "_maxAllocationEpochs",
          "type": "uint32"
        },
        {
          "internalType": "uint32",
          "name": "_delegationUnbondingPeriod",
          "type": "uint32"
        },
        {
          "internalType": "uint32",
          "name": "_delegationRatio",
          "type": "uint32"
        },
        {
          "components": [
            {
              "internalType": "uint32",
              "name": "alphaNumerator",
              "type": "uint32"
            },
            {
              "internalType": "uint32",
              "name": "alphaDenominator",
              "type": "uint32"
            },
            {
              "internalType": "uint32",
              "name": "lambdaNumerator",
              "type": "uint32"
            },
            {
              "internalType": "uint32",
              "name": "lambdaDenominator",
              "type": "uint32"
            }
          ],
          "internalType": "struct IStakingData.RebatesParameters",
          "name": "_rebatesParameters",
          "type": "tuple"
        },
        {
          "internalType": "address",
          "name": "_extensionImpl",
          "type": "address"
        }
      ],
      "name": "initialize",
      "outputs": [],
      "stateMutability": "nonpayable",
      "type": "function"
    },
    {
      "inputs": [
        {
          "internalType": "address",
          "name": "_allocationID",
          "type": "address"
        }
      ],
      "name": "isActiveAllocation",
      "outputs": [
        {
          "internalType": "bool",
          "name": "",
          "type": "bool"
        }
      ],
      "stateMutability": "view",
      "type": "function"
    },
    {
      "inputs": [
        {
          "internalType": "address",
          "name": "_allocationID",
          "type": "address"
        }
      ],
      "name": "isAllocation",
      "outputs": [
        {
          "internalType": "bool",
          "name": "",
          "type": "bool"
        }
      ],
      "stateMutability": "view",
      "type": "function"
    },
    {
      "inputs": [
        {
          "internalType": "address",
          "name": "_operator",
          "type": "address"
        },
        {
          "internalType": "address",
          "name": "_indexer",
          "type": "address"
        }
      ],
      "name": "isOperator",
      "outputs": [
        {
          "internalType": "bool",
          "name": "",
          "type": "bool"
        }
      ],
      "stateMutability": "view",
      "type": "function"
    },
    {
      "inputs": [
        {
          "internalType": "bytes[]",
          "name": "data",
          "type": "bytes[]"
        }
      ],
      "name": "multicall",
      "outputs": [
        {
          "internalType": "bytes[]",
          "name": "results",
          "type": "bytes[]"
        }
      ],
      "stateMutability": "nonpayable",
      "type": "function"
    },
    {
      "inputs": [
        {
          "internalType": "address",
          "name": "_controller",
          "type": "address"
        }
      ],
      "name": "setController",
      "outputs": [],
      "stateMutability": "nonpayable",
      "type": "function"
    },
    {
      "inputs": [
        {
          "internalType": "address",
          "name": "_counterpart",
          "type": "address"
        }
      ],
      "name": "setCounterpartStakingAddress",
      "outputs": [],
      "stateMutability": "nonpayable",
      "type": "function"
    },
    {
      "inputs": [
        {
          "internalType": "uint32",
          "name": "_percentage",
          "type": "uint32"
        }
      ],
      "name": "setCurationPercentage",
      "outputs": [],
      "stateMutability": "nonpayable",
      "type": "function"
    },
    {
      "inputs": [
        {
          "internalType": "uint32",
          "name": "_indexingRewardCut",
          "type": "uint32"
        },
        {
          "internalType": "uint32",
          "name": "_queryFeeCut",
          "type": "uint32"
        },
        {
          "internalType": "uint32",
          "name": "",
          "type": "uint32"
        }
      ],
      "name": "setDelegationParameters",
      "outputs": [],
      "stateMutability": "nonpayable",
      "type": "function"
    },
    {
      "inputs": [
        {
          "internalType": "address",
          "name": "_extensionImpl",
          "type": "address"
        }
      ],
      "name": "setExtensionImpl",
      "outputs": [],
      "stateMutability": "nonpayable",
      "type": "function"
    },
    {
      "inputs": [
        {
          "internalType": "contract IL1GraphTokenLockTransferTool",
          "name": "_l1GraphTokenLockTransferTool",
          "type": "address"
        }
      ],
      "name": "setL1GraphTokenLockTransferTool",
      "outputs": [],
      "stateMutability": "nonpayable",
      "type": "function"
    },
    {
      "inputs": [
        {
          "internalType": "uint32",
          "name": "_maxAllocationEpochs",
          "type": "uint32"
        }
      ],
      "name": "setMaxAllocationEpochs",
      "outputs": [],
      "stateMutability": "nonpayable",
      "type": "function"
    },
    {
      "inputs": [
        {
          "internalType": "uint256",
          "name": "_minimumIndexerStake",
          "type": "uint256"
        }
      ],
      "name": "setMinimumIndexerStake",
      "outputs": [],
      "stateMutability": "nonpayable",
      "type": "function"
    },
    {
      "inputs": [
        {
          "internalType": "address",
          "name": "_operator",
          "type": "address"
        },
        {
          "internalType": "bool",
          "name": "_allowed",
          "type": "bool"
        }
      ],
      "name": "setOperator",
      "outputs": [],
      "stateMutability": "nonpayable",
      "type": "function"
    },
    {
      "inputs": [
        {
          "internalType": "uint32",
          "name": "_percentage",
          "type": "uint32"
        }
      ],
      "name": "setProtocolPercentage",
      "outputs": [],
      "stateMutability": "nonpayable",
      "type": "function"
    },
    {
      "inputs": [
        {
          "internalType": "uint32",
          "name": "_alphaNumerator",
          "type": "uint32"
        },
        {
          "internalType": "uint32",
          "name": "_alphaDenominator",
          "type": "uint32"
        },
        {
          "internalType": "uint32",
          "name": "_lambdaNumerator",
          "type": "uint32"
        },
        {
          "internalType": "uint32",
          "name": "_lambdaDenominator",
          "type": "uint32"
        }
      ],
      "name": "setRebateParameters",
      "outputs": [],
      "stateMutability": "nonpayable",
      "type": "function"
    },
    {
      "inputs": [
        {
          "internalType": "address",
          "name": "_destination",
          "type": "address"
        }
      ],
      "name": "setRewardsDestination",
      "outputs": [],
      "stateMutability": "nonpayable",
      "type": "function"
    },
    {
      "inputs": [
        {
          "internalType": "uint32",
          "name": "_thawingPeriod",
          "type": "uint32"
        }
      ],
      "name": "setThawingPeriod",
      "outputs": [],
      "stateMutability": "nonpayable",
      "type": "function"
    },
    {
      "inputs": [
        {
          "internalType": "uint256",
          "name": "_tokens",
          "type": "uint256"
        }
      ],
      "name": "stake",
      "outputs": [],
      "stateMutability": "nonpayable",
      "type": "function"
    },
    {
      "inputs": [
        {
          "internalType": "address",
          "name": "_indexer",
          "type": "address"
        },
        {
          "internalType": "uint256",
          "name": "_tokens",
          "type": "uint256"
        }
      ],
      "name": "stakeTo",
      "outputs": [],
      "stateMutability": "nonpayable",
      "type": "function"
    },
    {
      "inputs": [],
      "name": "syncAllContracts",
      "outputs": [],
      "stateMutability": "nonpayable",
      "type": "function"
    },
    {
      "inputs": [
        {
          "internalType": "address",
          "name": "_indexer",
          "type": "address"
        },
        {
          "internalType": "address",
          "name": "_l2Beneficiary",
          "type": "address"
        },
        {
          "internalType": "uint256",
          "name": "_maxGas",
          "type": "uint256"
        },
        {
          "internalType": "uint256",
          "name": "_gasPriceBid",
          "type": "uint256"
        },
        {
          "internalType": "uint256",
          "name": "_maxSubmissionCost",
          "type": "uint256"
        }
      ],
      "name": "transferDelegationToL2",
      "outputs": [],
      "stateMutability": "payable",
      "type": "function"
    },
    {
      "inputs": [
        {
          "internalType": "address",
          "name": "_indexer",
          "type": "address"
        },
        {
          "internalType": "uint256",
          "name": "_maxGas",
          "type": "uint256"
        },
        {
          "internalType": "uint256",
          "name": "_gasPriceBid",
          "type": "uint256"
        },
        {
          "internalType": "uint256",
          "name": "_maxSubmissionCost",
          "type": "uint256"
        }
      ],
      "name": "transferLockedDelegationToL2",
      "outputs": [],
      "stateMutability": "nonpayable",
      "type": "function"
    },
    {
      "inputs": [
        {
          "internalType": "uint256",
          "name": "_amount",
          "type": "uint256"
        },
        {
          "internalType": "uint256",
          "name": "_maxGas",
          "type": "uint256"
        },
        {
          "internalType": "uint256",
          "name": "_gasPriceBid",
          "type": "uint256"
        },
        {
          "internalType": "uint256",
          "name": "_maxSubmissionCost",
          "type": "uint256"
        }
      ],
      "name": "transferLockedStakeToL2",
      "outputs": [],
      "stateMutability": "nonpayable",
      "type": "function"
    },
    {
      "inputs": [
        {
          "internalType": "address",
          "name": "_l2Beneficiary",
          "type": "address"
        },
        {
          "internalType": "uint256",
          "name": "_amount",
          "type": "uint256"
        },
        {
          "internalType": "uint256",
          "name": "_maxGas",
          "type": "uint256"
        },
        {
          "internalType": "uint256",
          "name": "_gasPriceBid",
          "type": "uint256"
        },
        {
          "internalType": "uint256",
          "name": "_maxSubmissionCost",
          "type": "uint256"
        }
      ],
      "name": "transferStakeToL2",
      "outputs": [],
      "stateMutability": "payable",
      "type": "function"
    },
    {
      "inputs": [
        {
          "internalType": "address",
          "name": "_indexer",
          "type": "address"
        }
      ],
      "name": "unlockDelegationToTransferredIndexer",
      "outputs": [],
      "stateMutability": "nonpayable",
      "type": "function"
    },
    {
      "inputs": [
        {
          "internalType": "uint256",
          "name": "_tokens",
          "type": "uint256"
        }
      ],
      "name": "unstake",
      "outputs": [],
      "stateMutability": "nonpayable",
      "type": "function"
    },
    {
      "inputs": [],
      "name": "withdraw",
      "outputs": [],
      "stateMutability": "nonpayable",
      "type": "function"
    },
    {
      "stateMutability": "payable",
      "type": "receive"
    }
  ],
  "bytecode": "0x6101606040527fe6876326c1291dfcbbd3864a6816d698cd591defc7aa2153d7f9c4c04016c89f6080527fc713c3df6d14cdf946460395d09af88993ee2b948b1a808161494e32c5f6706360a0527f966f1e8d8d8014e05f6ec4a57138da9be1f7c5a7f802928a18072f7c5318076160c0527f1df41cd916959d1163dc8f0671a666ea8a3e434c13e40faef527133b5d16703460e0527f45fc200c7e4544e457d3c5709bfe0d520442c30bbcbdaede89e8d4a4bbc19247610100527fd362cac9cb75c10d67bcc0b7eeb0b1ef48bb5420b556c092d4fd7f758816fcf0610120527f39605a6c26a173774ca666c67ef70cf491880e5d3d6d0ca66ec0a31034f15ea36101405234801561011057600080fd5b5060805160a05160c05160e0516101005161012051610140516158876200017e60003980611ea5525080611e7c5280614362525080611e53528061340c525080611e2a525080611e015280614325525080611dd85280612b41525080611daf52806142fa52506158876000f3fe6080604052600436106102605760003560e01c806392eefe9b11610144578063b6363cf2116100b6578063ddb8b1311161007a578063ddb8b131146107e4578063e2e1e8e914610804578063e73e14bf14610824578063f0c2d66c14610844578063f1d60d6614610864578063f77c4791146108845761029a565b8063b6363cf21461075c578063bb8d57c91461077c578063cbf0fdfe1461078f578063d6866ea5146107a2578063d755ad34146107b75761029a565b8063a2594d8211610108578063a2594d821461068f578063a2a31722146106af578063a510be20146106cf578063a694fc3a146106ef578063a6fe292b1461070f578063ac9650d81461072f5761029a565b806392eefe9b146105e257806398c657dc146106025780639a48bf831461062f5780639ce7abe51461064f5780639dcaa6c91461066f5761029a565b80633ccfd60b116101dd578063687fe40e116101a1578063687fe40e1461051557806369286e47146105355780636948a78c146105555780636a3ca38314610575578063772495c3146105a25780638d3c100a146105c25761029a565b80633ccfd60b1461046e57806342f543ae1461048357806344c32a61146104a3578063558a7297146104c357806355c85269146104e35761029a565b80632652d75e116102245780632652d75e146103ce5780632e17de78146103ee5780632fd434821461040e57806332bc91081461042e57806339dcf4761461044e5761029a565b80630a6655a01461030b5780630e0229231461032b5780631787e69f146103615780631ae720451461038e57806323477e48146103ae5761029a565b3661029a57604d546001600160a01b031633146102985760405162461bcd60e51b815260040161028f90614eb4565b60405180910390fd5b005b3480156102a657600080fd5b5060006102b1610899565b6001600160a01b031614156102d85760405162461bcd60e51b815260040161028f90615234565b6040516001600160a01b036019541636600083376000803684845af490503d806000843e818015610307578184f35b8184fd5b34801561031757600080fd5b50610298610326366004614876565b6108be565b34801561033757600080fd5b5061034b6103463660046146da565b610a34565b60405161035891906155a4565b60405180910390f35b34801561036d57600080fd5b5061038161037c3660046146da565b610ac4565b6040516103589190614e53565b34801561039a57600080fd5b506102986103a93660046146da565b610adf565b3480156103ba57600080fd5b506102986103c93660046147f2565b610b29565b3480156103da57600080fd5b506102986103e9366004614bd0565b610b40565b3480156103fa57600080fd5b50610298610409366004614a41565b610b54565b34801561041a57600080fd5b506102986104293660046146da565b610d1f565b34801561043a57600080fd5b50610298610449366004614bd0565b610e80565b34801561045a57600080fd5b50610298610469366004614bd0565b610e91565b34801561047a57600080fd5b50610298610ea2565b34801561048f57600080fd5b5061029861049e366004614b9f565b610eb5565b3480156104af57600080fd5b506102986104be3660046147c7565b61101b565b3480156104cf57600080fd5b506102986104de36600461479a565b611031565b3480156104ef57600080fd5b506105036104fe3660046146da565b6110c9565b60405161035896959493929190614e20565b34801561052157600080fd5b506102986105303660046148f3565b611199565b34801561054157600080fd5b50610298610550366004614c2c565b61139f565b34801561056157600080fd5b506102986105703660046146da565b6113b9565b34801561058157600080fd5b506105956105903660046146da565b61140b565b6040516103589190614e15565b3480156105ae57600080fd5b506102986105bd3660046146da565b61142a565b3480156105ce57600080fd5b506102986105dd366004614b7b565b611481565b3480156105ee57600080fd5b506102986105fd3660046146da565b6117fa565b34801561060e57600080fd5b5061062261061d3660046146da565b61180b565b6040516103589190614e6a565b34801561063b57600080fd5b5061029861064a366004614bd0565b61181c565b34801561065b57600080fd5b5061029861066a366004614b10565b61182d565b34801561067b57600080fd5b5061029861068a366004614bea565b611983565b34801561069b57600080fd5b506102986106aa3660046146da565b611993565b3480156106bb57600080fd5b506102986106ca3660046147c7565b611aae565b3480156106db57600080fd5b506103816106ea3660046146da565b611af2565b3480156106fb57600080fd5b5061029861070a366004614a41565b611b88565b34801561071b57600080fd5b5061029861072a366004614a59565b611b92565b34801561073b57600080fd5b5061074f61074a3660046149b6565b611ba9565b6040516103589190614db5565b34801561076857600080fd5b50610595610777366004614712565b611ce9565b61029861078a36600461474a565b611d18565b61029861079d3660046148b0565b611d68565b3480156107ae57600080fd5b50610298611daa565b3480156107c357600080fd5b506107d76107d23660046146da565b611ec9565b6040516103589190614cfe565b3480156107f057600080fd5b506102986107ff366004614a41565b611ee4565b34801561081057600080fd5b5061038161081f366004614a41565b611ef5565b34801561083057600080fd5b5061059561083f3660046146da565b611f07565b34801561085057600080fd5b5061029861085f3660046146da565b611f24565b34801561087057600080fd5b5061059561087f3660046146da565b611f77565b34801561089057600080fd5b506107d7611f96565b7f360894a13ba1a3210667c828492db98dca3e2076cc3735a920a3ca505d382bbc5490565b6108c6611fa5565b604d5460405163e7db830960e01b81526000916001600160a01b03169063e7db8309906108f7903390600401614cfe565b60206040518083038186803b15801561090f57600080fd5b505afa158015610923573d6000803e3d6000fd5b505050506040513d601f19601f8201168201806040525081019061094791906146f6565b90506001600160a01b03811661096f5760405162461bcd60e51b815260040161028f90615448565b47600061098661097f8787612113565b8590612173565b604d54604051638f8295f760e01b81529192506001600160a01b031690638f8295f7906109b99033908590600401614d12565b600060405180830381600087803b1580156109d357600080fd5b505af11580156109e7573d6000803e3d6000fd5b505050506109fe818361217390919063ffffffff16565b4714610a1c5760405162461bcd60e51b815260040161028f906151e1565b610a2b338885898989876121cd565b50505050505050565b610a3c61459c565b506001600160a01b038082166000908152600f6020908152604091829020825161012081018452815490941684526001810154918401919091526002810154918301919091526003810154606083015260048101546080830152600581015460a0830152600681015460c0830152600781015460e0830152600801546101008201525b919050565b6001600160a01b03166000908152600e602052604090205490565b610ae76123df565b601880546001600160a01b0319166001600160a01b0383161790556040516000805160206157ef83398151915290610b1e906153c1565b60405180910390a150565b610b316124b3565b610a2b87878787878787612566565b610b486123df565b610b5181612951565b50565b610b5c611fa5565b336000818152600e602052604090208054610b895760405162461bcd60e51b815260040161028f9061549e565b6000610bd0610bca8360405180608001604052908160008201548152602001600182015481526020016002820154815260200160038201548152505061298b565b85612997565b905060008111610bf25760405162461bcd60e51b815260040161028f9061508a565b6000610c3a82610c34856040518060800160405290816000820154815260200160018201548152602001600282015481526020016003820154815250506129ae565b906129be565b9050801580610c4b5750600c548110155b610c675760405162461bcd60e51b815260040161028f906150b0565b60408051608081018252845481526001850154602082015260028501549181019190915260038401546060820152600090610ca190612a1b565b90508015610cb257610cb285612a48565b600d54610ccc908590859063ffffffff90811690612ae216565b846001600160a01b03167fa5ae833d0bb1dcd632d98a8b70973e8516812898e19bf27b70071ebc8dc52c0185600201548660030154604051610d0f929190614e5c565b60405180910390a2505050505050565b610d27611fa5565b6001600160a01b038181166000908152604c60205260409020541615801590610d6657506001600160a01b0381166000908152600e6020526040902054155b610d825760405162461bcd60e51b815260040161028f9061538a565b6001600160a01b038116600090815260146020908152604080832033845260040190915290206001810154610dc95760405162461bcd60e51b815260040161028f90615368565b610dd1612b3a565b6001600160a01b031663766718086040518163ffffffff1660e01b815260040160206040518083038186803b158015610e0957600080fd5b505afa158015610e1d573d6000803e3d6000fd5b505050506040513d601f19601f82011682018060405250810190610e419190614b63565b600282015560405133906001600160a01b038416907f9479d3ae78a3aabec806926645c4e8b7bfb79518adc929618d0f080c91f6830890600090a35050565b610e886123df565b610b5181612b6a565b610e996123df565b610b5181612bc1565b610eaa6124b3565b610eb333612a48565b565b610ebd611fa5565b604d5460405163e7db830960e01b81526000916001600160a01b03169063e7db830990610eee903390600401614cfe565b60206040518083038186803b158015610f0657600080fd5b505afa158015610f1a573d6000803e3d6000fd5b505050506040513d601f19601f82011682018060405250810190610f3e91906146f6565b90506001600160a01b038116610f665760405162461bcd60e51b815260040161028f90615448565b476000610f7661097f8787612113565b604d54604051638f8295f760e01b81529192506001600160a01b031690638f8295f790610fa99033908590600401614d12565b600060405180830381600087803b158015610fc357600080fd5b505af1158015610fd7573d6000803e3d6000fd5b50505050610fee818361217390919063ffffffff16565b471461100c5760405162461bcd60e51b815260040161028f906151e1565b610a2b33848989898987612c26565b6110236124b3565b61102d8282612f26565b5050565b6001600160a01b03821633141561105a5760405162461bcd60e51b815260040161028f90614fdd565b3360008181526015602090815260408083206001600160a01b038716808552925291829020805460ff191685151517905590519091907fa3581229e2c315eb01303f468621e07aa9b628a23b1608162ae063f143355135906110bd908590614e15565b60405180910390a35050565b6001600160a01b038082166000908152600f6020908152604080832081516101208101835281549095168552600180820154938601939093526002810154918501919091526003810154606085015260048101546080850152600581015460a0850152600681015460c0850152600781015460e08501526008015461010084015290918291829182918291829182906111618a61320e565b600281111561116c57fe5b83516020850151604086015160e090960151939092149c909b509099509297509550600094509092505050565b6111a1610899565b6001600160a01b0316336001600160a01b0316146111fc576040805162461bcd60e51b815260206004820152601360248201527227b7363c9034b6b83632b6b2b73a30ba34b7b760691b604482015290519081900360640190fd5b6112058a611802565b61120e89613269565b61121788612b6a565b611220876132aa565b61122986612bc1565b61123285612951565b6112776112426020840184614bd0565b6112526040850160208601614bd0565b6112626060860160408701614bd0565b6112726080870160608801614bd0565b61330d565b601980546001600160a01b0319166001600160a01b038381169190911791829055604051600092909116906369d33c2f60e01b906112bf9088908590899082906024016156d2565b60408051601f198184030181529181526020820180516001600160e01b03166001600160e01b03199094169390931790925290516112fd9190614ce2565b600060405180830381855af49150503d8060008114611338576040519150601f19603f3d011682016040523d82523d6000602084013e61133d565b606091505b505090508061135e5760405162461bcd60e51b815260040161028f90614f77565b6040516001600160a01b038316907f0cb7ab0359507b75eb7d3af43896a0a80baf3c8e551e4e8393f37f8b9bb9f38590600090a25050505050505050505050565b6113a76123df565b6113b38484848461330d565b50505050565b6113c16123df565b601980546001600160a01b0319166001600160a01b0383169081179091556040517f0cb7ab0359507b75eb7d3af43896a0a80baf3c8e551e4e8393f37f8b9bb9f38590600090a250565b600060016114188361320e565b600281111561142357fe5b1492915050565b3360008181526017602052604080822080546001600160a01b0319166001600160a01b03861690811790915590519092917f29c33cd533c17d8916c8e471a4e2c4d1e34caa9b8844527c0bb182b3c104c7d391a350565b6001600160a01b0381166114a75760405162461bcd60e51b815260040161028f906154be565b60006114b28261320e565b905060008160028111156114c257fe5b14156114e05760405162461bcd60e51b815260040161028f90615555565b826114eb575061102d565b6001600160a01b0382166000908152600f6020526040812060018101549091859080808080611518613405565b9050611525813388613430565b600d546115429082908890600160401b900463ffffffff166134f8565b945061154e86866129be565b9550611574818888600d60049054906101000a900463ffffffff1663ffffffff16613533565b935061158086856129be565b60058901549096506115929087612173565b6005890155600288015460009015806115b85750601954600160a01b900463ffffffff16155b61168157600589015460028a0154600d546019546040516349484d8160e01b815273__$79b3c9257ca58085a7f52ccac408e0258b$__946349484d819461162c9491939092600160a01b80840463ffffffff90811694600160c01b908190048216949283048216939204169060040161569f565b60206040518083038186803b15801561164457600080fd5b505af4158015611658573d6000803e3d6000fd5b505050506040513d601f19601f8201168201806040525081019061167c9190614b63565b611684565b60005b9050611694818a6008015461372b565b93506116a08488612997565b93506116b5826116b089876129be565b613745565b831561171f5760088901546116ca9085612173565b60088a015588546116e4906001600160a01b031685613791565b92506116f084846129be565b89546001600160a01b0390811660008181526017602052604090205492965061171f928592889291161561382c565b505086546001600160a01b03808b16918891167ff5ded07502b6feba4c13b19a0c6646efd4b4119f439bcbd49076e4f0ed1eec4b3361175c612b3a565b6001600160a01b031663766718086040518163ffffffff1660e01b815260040160206040518083038186803b15801561179457600080fd5b505afa1580156117a8573d6000803e3d6000fd5b505050506040513d601f19601f820116820180604052508101906117cc9190614b63565b8f8a8a8d8b8b6040516117e6989796959493929190614d2b565b60405180910390a450505050505050505050565b61180261387e565b610b51816138dd565b60006118168261320e565b92915050565b6118246123df565b610b51816132aa565b82806001600160a01b031663f851a4406040518163ffffffff1660e01b8152600401602060405180830381600087803b15801561186957600080fd5b505af115801561187d573d6000803e3d6000fd5b505050506040513d602081101561189357600080fd5b50516001600160a01b031633146118f1576040805162461bcd60e51b815260206004820152601e60248201527f43616c6c6572206d757374206265207468652070726f78792061646d696e0000604482015290519081900360640190fd5b60405163623faf6160e01b8152602060048201908152602482018490526001600160a01b0386169163623faf619186918691908190604401848480828437600081840152601f19601f8201169050808301925050509350505050600060405180830381600087803b15801561196557600080fd5b505af1158015611979573d6000803e3d6000fd5b5050505050505050565b61198e338484613985565b505050565b80806001600160a01b031663f851a4406040518163ffffffff1660e01b8152600401602060405180830381600087803b1580156119cf57600080fd5b505af11580156119e3573d6000803e3d6000fd5b505050506040513d60208110156119f957600080fd5b50516001600160a01b03163314611a57576040805162461bcd60e51b815260206004820152601e60248201527f43616c6c6572206d757374206265207468652070726f78792061646d696e0000604482015290519081900360640190fd5b816001600160a01b03166359fc20bb6040518163ffffffff1660e01b8152600401600060405180830381600087803b158015611a9257600080fd5b505af1158015611aa6573d6000803e3d6000fd5b505050505050565b611ab6611fa5565b60008111611ad65760405162461bcd60e51b815260040161028f9061510a565b611ae8611ae1613405565b3383613430565b61102d8282613a71565b6001600160a01b0381166000818152600e602090815260408083208151608081018352815481526001820154818501526002808301548285015260039092015460608201529484526014909252822001546013549192918390611b649063ffffffff16611b5e856129ae565b90612113565b90506000611b728383612997565b9050611b7e8482613b85565b9695505050505050565b610b513382611aae565b611b9a6124b3565b611aa633878787878787612566565b60608167ffffffffffffffff81118015611bc257600080fd5b50604051908082528060200260200182016040528015611bf657816020015b6060815260200190600190039081611be15790505b50905060005b82811015611ce25760008030868685818110611c1457fe5b9050602002810190611c269190615738565b604051611c34929190614cd2565b600060405180830381855af49150503d8060008114611c6f576040519150601f19603f3d011682016040523d82523d6000602084013e611c74565b606091505b509150915081611cc057604481511015611c8d57600080fd5b60048101905080806020019051810190611ca79190614aca565b60405162461bcd60e51b815260040161028f9190614e7e565b80848481518110611ccd57fe5b60209081029190910101525050600101611bfc565b5092915050565b6001600160a01b0380821660009081526015602090815260408083209386168352929052205460ff1692915050565b611d20611fa5565b611d34611d2d8385612113565b8290612173565b3414611d525760405162461bcd60e51b815260040161028f90615529565b611d61338686868686346121cd565b5050505050565b611d70611fa5565b611d7d611d2d8385612113565b3414611d9b5760405162461bcd60e51b815260040161028f90615529565b611d6133868686868634612c26565b611dd37f0000000000000000000000000000000000000000000000000000000000000000613bc2565b611dfc7f0000000000000000000000000000000000000000000000000000000000000000613bc2565b611e257f0000000000000000000000000000000000000000000000000000000000000000613bc2565b611e4e7f0000000000000000000000000000000000000000000000000000000000000000613bc2565b611e777f0000000000000000000000000000000000000000000000000000000000000000613bc2565b611ea07f0000000000000000000000000000000000000000000000000000000000000000613bc2565b610eb37f0000000000000000000000000000000000000000000000000000000000000000613bc2565b604c602052600090815260409020546001600160a01b031681565b611eec6123df565b610b5181613269565b60009081526010602052604090205490565b6001600160a01b03166000908152600e6020526040902054151590565b611f2c6123df565b604d80546001600160a01b0319166001600160a01b0383161790556040517f1df10d75b292a047367affe08d5cfc6e4e56bb9dd9b648e9525dffe9fbd89f0b90610b1e908390614cfe565b600080611f838361320e565b6002811115611f8e57fe5b141592915050565b6000546001600160a01b031681565b60008054906101000a90046001600160a01b03166001600160a01b0316635c975abb6040518163ffffffff1660e01b815260040160206040518083038186803b158015611ff157600080fd5b505afa158015612005573d6000803e3d6000fd5b505050506040513d602081101561201b57600080fd5b505115612058576040805162461bcd60e51b815260206004820152600660248201526514185d5cd95960d21b604482015290519081900360640190fd5b60008054906101000a90046001600160a01b03166001600160a01b0316632e292fc76040518163ffffffff1660e01b815260040160206040518083038186803b1580156120a457600080fd5b505afa1580156120b8573d6000803e3d6000fd5b505050506040513d60208110156120ce57600080fd5b505115610eb3576040805162461bcd60e51b815260206004820152600e60248201526d14185c9d1a585b0b5c185d5cd95960921b604482015290519081900360640190fd5b60008261212257506000611816565b8282028284828161212f57fe5b041461216c5760405162461bcd60e51b81526004018080602001828103825260218152602001806158316021913960400191505060405180910390fd5b9392505050565b60008282018381101561216c576040805162461bcd60e51b815260206004820152601b60248201527f536166654d6174683a206164646974696f6e206f766572666c6f770000000000604482015290519081900360640190fd5b6001600160a01b0385166121f35760405162461bcd60e51b815260040161028f90615297565b6001600160a01b038681166000908152604c60205260409020541661222a5760405162461bcd60e51b815260040161028f9061538a565b6001600160a01b038087166000908152601460209081526040808320938b1683526004840190915290206001810154156122765760405162461bcd60e51b815260040161028f9061505f565b80546122945760405162461bcd60e51b815260040161028f9061533f565b60006122bf83600301546122b98560020154856000015461211390919063ffffffff16565b90613cc3565b60028401549091506122d190826129be565b6002840155815460038401546122e6916129be565b60038401556000825560606122f96145f4565b6001600160a01b03808c166000908152604c602090815260409091205482168352908b1690820152600181604051602001612334919061560c565b60408051601f1981840301815290829052612352929160200161571c565b604051602081830303815290604052915050612372828989898986613d2a565b6001600160a01b03808b166000818152604c60205260409081902054905191928c8116928f8216927f231e5cfeff7759a468241d939ab04a60d603b17e359057abbb8f52afc3e4986b926123ca929116908890614d12565b60405180910390a45050505050505050505050565b60008054906101000a90046001600160a01b03166001600160a01b0316634fc07d756040518163ffffffff1660e01b815260040160206040518083038186803b15801561242b57600080fd5b505afa15801561243f573d6000803e3d6000fd5b505050506040513d602081101561245557600080fd5b50516001600160a01b03163314610eb3576040805162461bcd60e51b815260206004820152601860248201527f4f6e6c7920436f6e74726f6c6c657220676f7665726e6f720000000000000000604482015290519081900360640190fd5b60008054906101000a90046001600160a01b03166001600160a01b0316635c975abb6040518163ffffffff1660e01b815260040160206040518083038186803b1580156124ff57600080fd5b505afa158015612513573d6000803e3d6000fd5b505050506040513d602081101561252957600080fd5b505115610eb3576040805162461bcd60e51b815260206004820152600660248201526514185d5cd95960d21b604482015290519081900360640190fd5b61256f87613e92565b61258b5760405162461bcd60e51b815260040161028f9061550a565b6001600160a01b0384166125b15760405162461bcd60e51b815260040161028f906154be565b60006125bc8561320e565b60028111156125c757fe5b146125e45760405162461bcd60e51b815260040161028f90615198565b600087856040516020016125f9929190614cab565b604051602081830303815290604052805190602001209050600061261c82613ebb565b9050856001600160a01b03166126688286868080601f016020809104026020016040519081016040528093929190818152602001838380828437600092019190915250613f0c92505050565b6001600160a01b03161461268e5760405162461bcd60e51b815260040161028f90615178565b600c546126f1600e60008c6001600160a01b03166001600160a01b031681526020019081526020016000206040518060800160405290816000820154815260200160018201548152602001600282015481526020016003820154815250506129ae565b101561270f5760405162461bcd60e51b815260040161028f906150b0565b861561273d578661271f8a611af2565b101561273d5760405162461bcd60e51b815260040161028f906153f8565b60006040518061012001604052808b6001600160a01b031681526020018a815260200189815260200161276e612b3a565b6001600160a01b031663766718086040518163ffffffff1660e01b815260040160206040518083038186803b1580156127a657600080fd5b505afa1580156127ba573d6000803e3d6000fd5b505050506040513d601f19601f820116820180604052508101906127de9190614b63565b815260200160008152602001600081526020016000815260200160008a11612807576000612810565b6128108b613f82565b8152600060209182018190526001600160a01b038a81168252600f8352604091829020845181546001600160a01b03191692169190911781559183015160018301558201516002820155606082015160038201556080820151600482015560a0820151600582015560c0820151600682015560e0820151600782015561010082015160089091015590508715612901576040808201516001600160a01b038c166000908152600e602052919091206128c791614025565b6040808201516020808401516000908152601090915291909120546128eb91612173565b6020808301516000908152601090915260409020555b866001600160a01b0316898b6001600160a01b03167f0f73ab5f706106366951b51f760e0a6f60c794f233d90958d81c82ad84fa6e87846060015185604001518b6040516117e693929190615689565b600d805463ffffffff60801b1916600160801b63ffffffff8416021790556040516000805160206157ef83398151915290610b1e90615577565b60006118168282613b85565b6000818311156129a7578161216c565b5090919050565b6040810151815160009161181691905b600082821115612a15576040805162461bcd60e51b815260206004820152601e60248201527f536166654d6174683a207375627472616374696f6e206f766572666c6f770000604482015290519081900360640190fd5b50900390565b6000816060015160001480612a335750816060015143105b15612a4057506000610abf565b506040015190565b6001600160a01b0381166000908152600e60205260408120612a6990614040565b905060008111612a8b5760405162461bcd60e51b815260040161028f9061510a565b612a9d612a96613405565b838361409b565b816001600160a01b03167f8108595eb6bad3acefa9da467d90cc2217686d5c5ac85460f8b7849c840645fc82604051612ad69190614e53565b60405180910390a25050565b6002830154819015612b0e57612b0b612aff85600301544361372b565b856002015484866140f8565b90505b6002840154612b1d9084612173565b6002850155612b2c4382612173565b846003018190555050505050565b6000612b657f0000000000000000000000000000000000000000000000000000000000000000614130565b905090565b60008163ffffffff1611612b905760405162461bcd60e51b815260040161028f90615476565b600d805463ffffffff191663ffffffff83161790556040516000805160206157ef83398151915290610b1e90615009565b620f424063ffffffff82161115612bea5760405162461bcd60e51b815260040161028f9061531a565b600d805467ffffffff00000000191664010000000063ffffffff8416021790556040516000805160206157ef83398151915290610b1e906152ee565b6001600160a01b0387166000908152600e602052604090208054612c5c5760405162461bcd60e51b815260040161028f906152c3565b600281015415612c7e5760405162461bcd60e51b815260040161028f9061505f565b6001600160a01b038716612ca45760405162461bcd60e51b815260040161028f90615297565b6001600160a01b038881166000908152604c60205260409020541615612d05576001600160a01b038881166000908152604c6020526040902054811690881614612d005760405162461bcd60e51b815260040161028f90614fa6565b612d55565b6001600160a01b038881166000908152604c6020526040902080546001600160a01b031916918916919091179055600c54861015612d555760405162461bcd60e51b815260040161028f90614f40565b8054612d6190876129be565b8082551580612d735750600c54815410155b612d8f5760405162461bcd60e51b815260040161028f90615260565b6001600160a01b03881660009081526014602052604090208154612dd457600182015415612dcf5760405162461bcd60e51b815260040161028f90614e91565b612e69565b6013548254600091612df0919063ffffffff9081169061211316565b90506000612e02836002015483612997565b8454909150612e119082612173565b60408051608081018252865481526001870154602082015260028701549181019190915260038601546060820152612e48906141cc565b1115612e665760405162461bcd60e51b815260040161028f90615030565b50505b612e7161460b565b6001600160a01b038916815260008082604051602001612e91919061562f565b60408051601f1981840301815290829052612eaf929160200161571c565b6040516020818303038152906040529050612ece898989898986613d2a565b896001600160a01b03168b6001600160a01b03167f869be114c2c3725ff5a2c6ea9ce2d37bf0d5a33c50fcc4905dc11d6958cd122c8b604051612f119190614e53565b60405180910390a35050505050505050505050565b6000612f318361320e565b90506001816002811115612f4157fe5b14612f5e5760405162461bcd60e51b815260040161028f90615157565b6001600160a01b038084166000908152600f6020908152604091829020825161012081018452815490941684526001810154918401919091526002810154918301919091526003810154606083015260048101546080830152600581015460a0830152600681015460c0830152600781015460e083015260080154610100820152612fe7612b3a565b6001600160a01b031663766718086040518163ffffffff1660e01b815260040160206040518083038186803b15801561301f57600080fd5b505afa158015613033573d6000803e3d6000fd5b505050506040513d601f19601f820116820180604052508101906130579190614b63565b60808201819052606082015160009161306f9161372b565b905060006130808360000151613e92565b600d54909150600160801b900463ffffffff16821115806130a357506040830151155b156130c557806130c55760405162461bcd60e51b815260040161028f9061550a565b604083015115613170578080156130db57508415155b80156130e75750600082115b156130ff576130fa8684600001516141e9565b61310e565b61310c8360200151613f82565b505b60408084015184516001600160a01b03166000908152600e60205291909120613136916142e4565b60408084015160208086015160009081526010909152919091205461315a916129be565b6020808501516000908152601090915260409020555b8260800151600f6000886001600160a01b03166001600160a01b0316815260200190815260200160002060040181905550856001600160a01b0316836020015184600001516001600160a01b03167ff6725dd105a6fc88bb79a6e4627f128577186c567a17c94818d201c2a4ce140386608001518760400151338b88156040516131fe95949392919061565b565b60405180910390a4505050505050565b6001600160a01b038082166000908152600f602052604081208054919290911661323c576000915050610abf565b60038101541580159061325157506004810154155b15613260576001915050610abf565b50600292915050565b600081116132895760405162461bcd60e51b815260040161028f906150b0565b600c8190556040516000805160206157ef83398151915290610b1e9061541b565b620f424063ffffffff821611156132d35760405162461bcd60e51b815260040161028f9061531a565b600d805463ffffffff60401b1916600160401b63ffffffff8416021790556040516000805160206157ef83398151915290610b1e9061512b565b60008363ffffffff16116133335760405162461bcd60e51b815260040161028f90614eeb565b60008263ffffffff16116133595760405162461bcd60e51b815260040161028f906151b7565b60008163ffffffff161161337f5760405162461bcd60e51b815260040161028f906150de565b600d805463ffffffff858116600160c01b90810263ffffffff60c01b19838a16600160a01b90810263ffffffff60a01b19968716178216929092179095556019805487851690930293881690910291909316179092169190911790556040516000805160206157ef833981519152906133f790614f16565b60405180910390a150505050565b6000612b657f0000000000000000000000000000000000000000000000000000000000000000614130565b801561198e57604080516323b872dd60e01b81526001600160a01b038481166004830152306024830152604482018490529151918516916323b872dd916064808201926020929091908290030181600087803b15801561348f57600080fd5b505af11580156134a3573d6000803e3d6000fd5b505050506040513d60208110156134b957600080fd5b505161198e576040805162461bcd60e51b815260206004820152600960248201526810ba3930b739b332b960b91b604482015290519081900360640190fd5b600080613510620f42406122b986611b5e83886129be565b9050600061351e85836129be565b905061352a8682613745565b95945050505050565b60008261354257506000613723565b600061354c6142f3565b90506000808411801561356757506001600160a01b03821615155b90508080156135ed5750604051634c4ea0ed60e01b81526001600160a01b03831690634c4ea0ed9061359d908990600401614e53565b60206040518083038186803b1580156135b557600080fd5b505afa1580156135c9573d6000803e3d6000fd5b505050506040513d601f19601f820116820180604052508101906135ed9190614a25565b1561371c576000613609620f42406122b988611b5e838a6129be565b9050600061361787836129be565b905080156137115761362761431e565b6001600160a01b0316631d1c2fec896040518263ffffffff1660e01b81526004016136529190614e53565b602060405180830381600087803b15801561366c57600080fd5b505af1158015613680573d6000803e3d6000fd5b505050506040513d601f19601f820116820180604052508101906136a49190614b63565b506136b089858361409b565b60405163102ae65160e31b81526001600160a01b038516906381573288906136de908b908590600401614e5c565b600060405180830381600087803b1580156136f857600080fd5b505af115801561370c573d6000803e3d6000fd5b505050505b935061372392505050565b6000925050505b949350505050565b600081831161373b57600061216c565b61216c83836129be565b801561102d57816001600160a01b03166342966c68826040518263ffffffff1660e01b815260040180828152602001915050600060405180830381600087803b158015611a9257600080fd5b6001600160a01b03821660009081526014602052604081206002810154829190158015906137d057508054620f4240600160401b90910463ffffffff16105b156138245780546000906137ff90620f4240906122b990600160401b900463ffffffff90811690899061211316565b905061380b85826129be565b600283015490935061381d9084612173565b6002830155505b509392505050565b82613836576113b3565b801561384b576138468284613a71565b6113b3565b6001600160a01b0380831660009081526017602052604090205416611d618582156138765782613878565b845b8661409b565b6000546001600160a01b03163314610eb3576040805162461bcd60e51b815260206004820152601960248201527f43616c6c6572206d75737420626520436f6e74726f6c6c657200000000000000604482015290519081900360640190fd5b6001600160a01b038116613931576040805162461bcd60e51b815260206004820152601660248201527510dbdb9d1c9bdb1b195c881b5d5cdd081899481cd95d60521b604482015290519081900360640190fd5b600080546001600160a01b0383166001600160a01b0319909116811790915560408051918252517f4ff638452bbf33c012645d18ae6f05515ff5f2d1dfb0cece8cbf018c60903f709181900360200190a150565b620f424063ffffffff821611156139ae5760405162461bcd60e51b815260040161028f9061520e565b620f424063ffffffff831611156139d75760405162461bcd60e51b815260040161028f906154de565b6001600160a01b038316600081815260146020526040808220805463ffffffff868116600160401b0263ffffffff60401b199189166401000000000267ffffffff0000000019909316929092171617815543600182015590519092917fdd5c1add84431df7ff63c721510522fbccafda37dfc33f0f5094d90135a8f22a91613a639187918791906156fc565b60405180910390a250505050565b600c54613ade82613ad8600e6000876001600160a01b03166001600160a01b031681526020019081526020016000206040518060800160405290816000820154815260200160018201548152602001600282015481526020016003820154815250506129ae565b90612173565b1015613afc5760405162461bcd60e51b815260040161028f906150b0565b6001600160a01b0382166000908152600e60205260409020613b1e9082614349565b6001600160a01b038216600090815260146020526040902060010154613b4c57613b4c82620f424080613985565b816001600160a01b03167f0a7bb2e28cc4698aac06db79cf9163bfcc20719286cf59fa7d492ceda1b8edc282604051612ad69190614e53565b81516000908190613b969084612173565b90506000613ba3856141cc565b905081811115613bb857600092505050611816565b61352a82826129be565b6000805460408051637bb20d2f60e11b81526004810185905290516001600160a01b039092169163f7641a5e91602480820192602092909190829003018186803b158015613c0f57600080fd5b505afa158015613c23573d6000803e3d6000fd5b505050506040513d6020811015613c3957600080fd5b50516000838152600160205260409020549091506001600160a01b0380831691161461102d5760008281526001602090815260409182902080546001600160a01b0319166001600160a01b0385169081179091558251908152915184927fd0e7a942b1fc38c411c4f53d153ba14fd24542a6a35ebacd9b6afca1a154e20692908290030190a25050565b6000808211613d19576040805162461bcd60e51b815260206004820152601a60248201527f536166654d6174683a206469766973696f6e206279207a65726f000000000000604482015290519081900360640190fd5b818381613d2257fe5b049392505050565b6000613d34613405565b90506000613d4061435b565b60405163095ea7b360e01b81529091506001600160a01b0383169063095ea7b390613d719084908c90600401614d12565b602060405180830381600087803b158015613d8b57600080fd5b505af1158015613d9f573d6000803e3d6000fd5b505050506040513d601f19601f82011682018060405250810190613dc39190614a25565b50806001600160a01b031663d2ce7d658584601860009054906101000a90046001600160a01b03168c8c8c8c8b604051602001613e01929190615642565b6040516020818303038152906040526040518863ffffffff1660e01b8152600401613e3196959493929190614d6c565b6000604051808303818588803b158015613e4a57600080fd5b505af1158015613e5e573d6000803e3d6000fd5b50505050506040513d6000823e601f3d908101601f19168201604052613e879190810190614aca565b505050505050505050565b6000336001600160a01b03831614806118165750613eb03383611ce9565b151560011492915050565b604080517f19457468657265756d205369676e6564204d6573736167653a0a333200000000602080830191909152603c8083019490945282518083039094018452605c909101909152815191012090565b60008151604114613f64576040805162461bcd60e51b815260206004820152601f60248201527f45434453413a20696e76616c6964207369676e6174757265206c656e67746800604482015290519081900360640190fd5b60208201516040830151606084015160001a611b7e86828585614386565b600080613f8d61431e565b90506001600160a01b038116613fa7576000915050610abf565b6040516377561f0760e11b81526001600160a01b0382169063eeac3e0e90613fd3908690600401614e53565b602060405180830381600087803b158015613fed57600080fd5b505af1158015614001573d6000803e3d6000fd5b505050506040513d601f19601f8201168201806040525081019061216c9190614b63565b60018201546140349082612173565b82600101819055505050565b60008061407f83604051806080016040529081600082015481526020016001820154815260200160028201548152602001600382015481525050612a1b565b905080156118165761409183826144fb565b6118168382614520565b801561198e57826001600160a01b031663a9059cbb83836040518363ffffffff1660e01b815260040180836001600160a01b0316815260200182815260200192505050602060405180830381600087803b15801561348f57600080fd5b600061352a6141078584612173565b6122b96141196001610c348988612173565b613ad86141268888612113565b613ad88b8b612113565b6000818152600160205260408120546001600160a01b0316806118165760005460408051637bb20d2f60e11b81526004810186905290516001600160a01b039092169163f7641a5e91602480820192602092909190829003018186803b15801561419957600080fd5b505afa1580156141ad573d6000803e3d6000fd5b505050506040513d60208110156141c357600080fd5b50519392505050565b60006118168260400151836020015161217390919063ffffffff16565b60006141f361431e565b90506001600160a01b038116614209575061102d565b604051636dba849360e11b81526000906001600160a01b0383169063db75092690614238908790600401614cfe565b602060405180830381600087803b15801561425257600080fd5b505af1158015614266573d6000803e3d6000fd5b505050506040513d601f19601f8201168201806040525081019061428a9190614b63565b90508061429857505061102d565b60006142a4848361452c565b905060006142b283836129be565b9050611aa66142bf613405565b6001600160a01b0380881660009081526017602052604090205484918991161561382c565b600182015461403490826129be565b6000612b657f0000000000000000000000000000000000000000000000000000000000000000614130565b6000612b657f0000000000000000000000000000000000000000000000000000000000000000614130565b81546143559082612173565b90915550565b6000612b657f0000000000000000000000000000000000000000000000000000000000000000614130565b60007f7fffffffffffffffffffffffffffffff5d576e7357a4501ddfe92f46681b20a08211156143e75760405162461bcd60e51b81526004018080602001828103825260228152602001806157cd6022913960400191505060405180910390fd5b8360ff16601b14806143fc57508360ff16601c145b6144375760405162461bcd60e51b815260040180806020018281038252602281526020018061580f6022913960400191505060405180910390fd5b600060018686868660405160008152602001604052604051808581526020018460ff1681526020018381526020018281526020019450505050506020604051602081039080840390855afa158015614493573d6000803e3d6000fd5b5050604051601f1901519150506001600160a01b03811661352a576040805162461bcd60e51b815260206004820152601860248201527f45434453413a20696e76616c6964207369676e61747572650000000000000000604482015290519081900360640190fd5b600282015461450a90826129be565b6002830181905561102d57600060038301555050565b815461435590826129be565b6001600160a01b038216600090815260146020526040812060028101548291901580159061456c57508054620f424064010000000090910463ffffffff16105b156138245780546000906137ff90620f4240906122b990640100000000900463ffffffff90811690899061211316565b60405180610120016040528060006001600160a01b0316815260200160008019168152602001600081526020016000815260200160008152602001600081526020016000815260200160008152602001600081525090565b604080518082019091526000808252602082015290565b60408051602081019091526000815290565b600067ffffffffffffffff8084111561463257fe5b604051601f8501601f19168101602001828111828210171561465057fe5b60405284815291508183850186101561466857600080fd5b61467685602083018661577d565b50509392505050565b60008083601f840112614690578182fd5b50813567ffffffffffffffff8111156146a7578182fd5b6020830191508360208285010111156146bf57600080fd5b9250929050565b803563ffffffff81168114610abf57600080fd5b6000602082840312156146eb578081fd5b813561216c816157a9565b600060208284031215614707578081fd5b815161216c816157a9565b60008060408385031215614724578081fd5b823561472f816157a9565b9150602083013561473f816157a9565b809150509250929050565b600080600080600060a08688031215614761578081fd5b853561476c816157a9565b9450602086013561477c816157a9565b94979496505050506040830135926060810135926080909101359150565b600080604083850312156147ac578182fd5b82356147b7816157a9565b9150602083013561473f816157be565b600080604083850312156147d9578182fd5b82356147e4816157a9565b946020939093013593505050565b600080600080600080600060c0888a03121561480c578182fd5b8735614817816157a9565b965060208801359550604088013594506060880135614835816157a9565b93506080880135925060a088013567ffffffffffffffff811115614857578283fd5b6148638a828b0161467f565b989b979a50959850939692959293505050565b6000806000806080858703121561488b578182fd5b8435614896816157a9565b966020860135965060408601359560600135945092505050565b600080600080600060a086880312156148c7578283fd5b85356148d2816157a9565b97602087013597506040870135966060810135965060800135945092505050565b6000806000806000806000806000808a8c036101a0811215614913578485fd5b8b3561491e816157a9565b9a5060208c0135995061493360408d016146c6565b985061494160608d016146c6565b975061494f60808d016146c6565b965061495d60a08d016146c6565b955061496b60c08d016146c6565b945061497960e08d016146c6565b9350608060ff198201121561498c578283fd5b506101008b0191506101808b01356149a3816157a9565b809150509295989b9194979a5092959850565b600080602083850312156149c8578182fd5b823567ffffffffffffffff808211156149df578384fd5b818501915085601f8301126149f2578384fd5b813581811115614a00578485fd5b8660208083028501011115614a13578485fd5b60209290920196919550909350505050565b600060208284031215614a36578081fd5b815161216c816157be565b600060208284031215614a52578081fd5b5035919050565b60008060008060008060a08789031215614a71578384fd5b86359550602087013594506040870135614a8a816157a9565b935060608701359250608087013567ffffffffffffffff811115614aac578283fd5b614ab889828a0161467f565b979a9699509497509295939492505050565b600060208284031215614adb578081fd5b815167ffffffffffffffff811115614af1578182fd5b8201601f81018413614b01578182fd5b6137238482516020840161461d565b600080600060408486031215614b24578081fd5b8335614b2f816157a9565b9250602084013567ffffffffffffffff811115614b4a578182fd5b614b568682870161467f565b9497909650939450505050565b600060208284031215614b74578081fd5b5051919050565b60008060408385031215614b8d578182fd5b82359150602083013561473f816157a9565b60008060008060808587031215614bb4578182fd5b5050823594602084013594506040840135936060013592509050565b600060208284031215614be1578081fd5b61216c826146c6565b600080600060608486031215614bfe578081fd5b614c07846146c6565b9250614c15602085016146c6565b9150614c23604085016146c6565b90509250925092565b60008060008060808587031215614c41578182fd5b614c4a856146c6565b9350614c58602086016146c6565b9250614c66604086016146c6565b9150614c74606086016146c6565b905092959194509250565b60008151808452614c9781602086016020860161577d565b601f01601f19169290920160200192915050565b6bffffffffffffffffffffffff19606093841b811682529190921b16601482015260280190565b6000828483379101908152919050565b60008251614cf481846020870161577d565b9190910192915050565b6001600160a01b0391909116815260200190565b6001600160a01b03929092168252602082015260400190565b6001600160a01b03989098168852602088019690965260408701949094526060860192909252608085015260a084015260c083015260e08201526101000190565b600060018060a01b03808916835280881660208401525085604083015284606083015283608083015260c060a0830152614da960c0830184614c7f565b98975050505050505050565b6000602080830181845280855180835260408601915060408482028701019250838701855b82811015614e0857603f19888603018452614df6858351614c7f565b94509285019290850190600101614dda565b5092979650505050505050565b901515815260200190565b95151586526001600160a01b0394909416602086015260408501929092526060840152608083015260a082015260c00190565b90815260200190565b918252602082015260400190565b6020810160038310614e7857fe5b91905290565b60006020825261216c6020830184614c7f565b602080825260099082015268185b1b1bd8d85d195960ba1b604082015260600190565b6020808252601f908201527f4f6e6c79207472616e7366657220746f6f6c2063616e2073656e642045544800604082015260600190565b60208082526011908201527010b0b6383430a232b737b6b4b730ba37b960791b604082015260600190565b60208082526010908201526f726562617465506172616d657465727360801b604082015260600190565b60208082526019908201527f216d696e696d756d496e64657865725374616b652073656e7400000000000000604082015260600190565b602080825260159082015274115e1d195b9cda5bdb881a5b9a5d0819985a5b1959605a1b604082015260600190565b60208082526019908201527f6c3242656e656669636961727920213d2070726576696f757300000000000000604082015260600190565b60208082526012908201527137b832b930ba37b9101e9e9039b2b73232b960711b604082015260600190565b6020808252600d908201526c1d1a185dda5b99d4195c9a5bd9609a1b604082015260600190565b6020808252601590820152742120616c6c6f636174696f6e20636170616369747960581b604082015260600190565b6020808252601190820152700746f6b656e734c6f636b656420213d203607c1b604082015260600190565b6020808252600c908201526b085cdd185ad94b585d985a5b60a21b604082015260600190565b602080825260149082015273216d696e696d756d496e64657865725374616b6560601b604082015260600190565b60208082526012908201527110b630b6b13230a232b737b6b4b730ba37b960711b604082015260600190565b60208082526007908201526621746f6b656e7360c81b604082015260600190565b60208082526012908201527170726f746f636f6c50657263656e7461676560701b604082015260600190565b6020808252600790820152662161637469766560c81b604082015260600190565b60208082526006908201526510b83937b7b360d11b604082015260600190565b602080825260059082015264085b9d5b1b60da1b604082015260600190565b60208082526010908201526f10b630b6b13230a73ab6b2b930ba37b960811b604082015260600190565b602080825260139082015272115512081514905394d1915488119052531151606a1b604082015260600190565b6020808252600c908201526b0f9c5d595c9e51995950dd5d60a21b604082015260600190565b6020808252601290820152716f6e6c79207468726f7567682070726f787960701b604082015260600190565b6020808252601e908201527f216d696e696d756d496e64657865725374616b652072656d61696e696e670000604082015260600190565b60208082526012908201527106c3242656e6566696369617279203d3d20360741b604082015260600190565b6020808252601190820152700746f6b656e735374616b6564203d3d203607c1b604082015260600190565b6020808252601290820152716375726174696f6e50657263656e7461676560701b604082015260600190565b6020808252600b908201526a3e70657263656e7461676560a81b604082015260600190565b6020808252600f908201526e064656c65676174696f6e203d3d203608c1b604082015260600190565b60208082526008908201526708481b1bd8dad95960c21b604082015260600190565b60208082526017908201527f696e6465786572206e6f74207472616e73666572726564000000000000000000604082015260600190565b60208082526019908201527f636f756e746572706172745374616b696e674164647265737300000000000000604082015260600190565b60208082526009908201526821636170616369747960b81b604082015260600190565b6020808252601390820152726d696e696d756d496e64657865725374616b6560681b604082015260600190565b6020808252601490820152731313d0d2c81393d5081514905394d1915494915160621b604082015260600190565b6020808252600e908201526d085d1a185dda5b99d4195c9a5bd960921b604082015260600190565b602080825260069082015265217374616b6560d01b604082015260600190565b60208082526006908201526521616c6c6f6360d01b604082015260600190565b6020808252601290820152710f9a5b99195e1a5b99d4995dd85c9910dd5d60721b604082015260600190565b602080825260059082015264042c2eae8d60db1b604082015260600190565b6020808252601290820152711253959053125117d1551217d05353d5539560721b604082015260600190565b6020808252600890820152670858dbdb1b1958dd60c21b604082015260600190565b6020808252601390820152726d6178416c6c6f636174696f6e45706f63687360681b604082015260600190565b81516001600160a01b031681526020808301519082015260408083015190820152606080830151908201526080808301519082015260a0828101519082015260c0808301519082015260e0808301519082015261010091820151918101919091526101200190565b81516001600160a01b039081168252602092830151169181019190915260400190565b90516001600160a01b0316815260200190565b6000838252604060208301526137236040830184614c7f565b94855260208501939093526001600160a01b0391909116604084015260608301521515608082015260a00190565b9283526020830191909152604082015260600190565b958652602086019490945263ffffffff92831660408601529082166060850152811660808401521660a082015260c00190565b63ffffffff948516815260ff93841660208201529190931660408201529116606082015260800190565b63ffffffff93841681529183166020830152909116604082015260600190565b600060ff84168252604060208301526137236040830184614c7f565b6000808335601e1984360301811261574e578283fd5b83018035915067ffffffffffffffff821115615768578283fd5b6020019150368190038213156146bf57600080fd5b60005b83811015615798578181015183820152602001615780565b838111156113b35750506000910152565b6001600160a01b0381168114610b5157600080fd5b8015158114610b5157600080fdfe45434453413a20696e76616c6964207369676e6174757265202773272076616c756596d5a4b4edf1cefd0900c166d64447f8da1d01d1861a6a60894b5b82a2c15c3c45434453413a20696e76616c6964207369676e6174757265202776272076616c7565536166654d6174683a206d756c7469706c69636174696f6e206f766572666c6f77a2646970667358221220d024c7c051bab941d8fea14ba00c0077c345c067b5b7b5c46e6082ff19486ffd64736f6c63430007060033",
  "linkReferences": {
    "contracts/staking/libs/Exponential.sol": {
      "LibExponential": [
        {
          "length": 20,
          "start": 5977
        }
      ]
    }
  },
  "deployedLinkReferences": {
    "contracts/staking/libs/Exponential.sol": {
      "LibExponential": [
        {
          "length": 20,
          "start": 5595
        }
      ]
    }
  }
}