{
  "_format": "hh-sol-artifact-1",
  "contractName": "ServiceRegistryV1Storage",
  "sourceName": "contracts/discovery/ServiceRegistryStorage.sol",
  "abi": [
    {
      "anonymous": false,
      "inputs": [
        {
          "indexed": true,
          "internalType": "bytes32",
          "name": "nameHash",
          "type": "bytes32"
        },
        {
          "indexed": false,
          "internalType": "address",
          "name": "contractAddress",
          "type": "address"
        }
      ],
      "name": "ContractSynced",
      "type": "event"
    },
    {
      "anonymous": false,
      "inputs": [
        {
          "indexed": false,
          "internalType": "string",
          "name": "param",
          "type": "string"
        }
      ],
      "name": "ParameterUpdated",
      "type": "event"
    },
    {
      "anonymous": false,
      "inputs": [
        {
          "indexed": false,
          "internalType": "address",
          "name": "controller",
          "type": "address"
        }
      ],
      "name": "SetController",
      "type": "event"
    },
    {
      "inputs": [],
      "name": "controller",
      "outputs": [
        {
          "internalType": "contract IController",
          "name": "",
          "type": "address"
        }
      ],
      "stateMutability": "view",
      "type": "function"
    },
    {
      "inputs": [
        {
          "internalType": "address",
          "name": "",
          "type": "address"
        }
      ],
      "name": "services",
      "outputs": [
        {
          "internalType": "string",
          "name": "url",
          "type": "string"
        },
        {
          "internalType": "string",
          "name": "geohash",
          "type": "string"
        }
      ],
      "stateMutability": "view",
      "type": "function"
    },
    {
      "inputs": [
        {
          "internalType": "address",
          "name": "_controller",
          "type": "address"
        }
      ],
      "name": "setController",
      "outputs": [],
      "stateMutability": "nonpayable",
      "type": "function"
    },
    {
      "inputs": [],
      "name": "syncAllContracts",
      "outputs": [],
      "stateMutability": "nonpayable",
      "type": "function"
    }
  ],
  "bytecode": "0x6101606040527fe6876326c1291dfcbbd3864a6816d698cd591defc7aa2153d7f9c4c04016c89f6080527fc713c3df6d14cdf946460395d09af88993ee2b948b1a808161494e32c5f6706360a0527f966f1e8d8d8014e05f6ec4a57138da9be1f7c5a7f802928a18072f7c5318076160c0527f1df41cd916959d1163dc8f0671a666ea8a3e434c13e40faef527133b5d16703460e0527f45fc200c7e4544e457d3c5709bfe0d520442c30bbcbdaede89e8d4a4bbc19247610100527fd362cac9cb75c10d67bcc0b7eeb0b1ef48bb5420b556c092d4fd7f758816fcf0610120527f39605a6c26a173774ca666c67ef70cf491880e5d3d6d0ca66ec0a31034f15ea36101405234801561011057600080fd5b5060805160a05160c05160e05161010051610120516101405161066b610164600039806103f75250806103ce5250806103a552508061037c52508061035352508061032a525080610301525061066b6000f3fe608060405234801561001057600080fd5b506004361061004c5760003560e01c80636d966d011461005157806392eefe9b14610155578063d6866ea51461017d578063f77c479114610185575b600080fd5b6100776004803603602081101561006757600080fd5b50356001600160a01b03166101a9565b604051808060200180602001838103835285818151815260200191508051906020019080838360005b838110156100b85781810151838201526020016100a0565b50505050905090810190601f1680156100e55780820380516001836020036101000a031916815260200191505b50838103825284518152845160209182019186019080838360005b83811015610118578181015183820152602001610100565b50505050905090810190601f1680156101455780820380516001836020036101000a031916815260200191505b5094505050505060405180910390f35b61017b6004803603602081101561016b57600080fd5b50356001600160a01b03166102e8565b005b61017b6102fc565b61018d61041d565b604080516001600160a01b039092168252519081900360200190f35b600c6020908152600091825260409182902080548351601f600260001961010060018616150201909316929092049182018490048402810184019094528084529092918391908301828280156102405780601f1061021557610100808354040283529160200191610240565b820191906000526020600020905b81548152906001019060200180831161022357829003601f168201915b505050505090806001018054600181600116156101000203166002900480601f0160208091040260200160405190810160405280929190818152602001828054600181600116156101000203166002900480156102de5780601f106102b3576101008083540402835291602001916102de565b820191906000526020600020905b8154815290600101906020018083116102c157829003601f168201915b5050505050905082565b6102f061042c565b6102f98161048b565b50565b6103257f0000000000000000000000000000000000000000000000000000000000000000610533565b61034e7f0000000000000000000000000000000000000000000000000000000000000000610533565b6103777f0000000000000000000000000000000000000000000000000000000000000000610533565b6103a07f0000000000000000000000000000000000000000000000000000000000000000610533565b6103c97f0000000000000000000000000000000000000000000000000000000000000000610533565b6103f27f0000000000000000000000000000000000000000000000000000000000000000610533565b61041b7f0000000000000000000000000000000000000000000000000000000000000000610533565b565b6000546001600160a01b031681565b6000546001600160a01b0316331461041b576040805162461bcd60e51b815260206004820152601960248201527f43616c6c6572206d75737420626520436f6e74726f6c6c657200000000000000604482015290519081900360640190fd5b6001600160a01b0381166104df576040805162461bcd60e51b815260206004820152601660248201527510dbdb9d1c9bdb1b195c881b5d5cdd081899481cd95d60521b604482015290519081900360640190fd5b600080546001600160a01b0383166001600160a01b0319909116811790915560408051918252517f4ff638452bbf33c012645d18ae6f05515ff5f2d1dfb0cece8cbf018c60903f709181900360200190a150565b6000805460408051637bb20d2f60e11b81526004810185905290516001600160a01b039092169163f7641a5e91602480820192602092909190829003018186803b15801561058057600080fd5b505afa158015610594573d6000803e3d6000fd5b505050506040513d60208110156105aa57600080fd5b50516000838152600160205260409020549091506001600160a01b038083169116146106315760008281526001602090815260409182902080546001600160a01b0319166001600160a01b0385169081179091558251908152915184927fd0e7a942b1fc38c411c4f53d153ba14fd24542a6a35ebacd9b6afca1a154e20692908290030190a25b505056fea26469706673582212202bc7fcfcab8c9108fb950e7ccf76056ea36257be88b4d1ffc24601ed399960a564736f6c63430007060033",
  "linkReferences": {},
  "deployedLinkReferences": {}
}