{
  "_format": "hh-sol-artifact-1",
  "contractName": "CallhookReceiverMock",
  "sourceName": "contracts/tests/CallhookReceiverMock.sol",
  "abi": [
    {
      "anonymous": false,
      "inputs": [
        {
          "indexed": false,
          "internalType": "address",
          "name": "from",
          "type": "address"
        },
        {
          "indexed": false,
          "internalType": "uint256",
          "name": "amount",
          "type": "uint256"
        },
        {
          "indexed": false,
          "internalType": "uint256",
          "name": "foo",
          "type": "uint256"
        },
        {
          "indexed": false,
          "internalType": "uint256",
          "name": "bar",
          "type": "uint256"
        }
      ],
      "name": "TransferReceived",
      "type": "event"
    },
    {
      "inputs": [
        {
          "internalType": "address",
          "name": "_from",
          "type": "address"
        },
        {
          "internalType": "uint256",
          "name": "_amount",
          "type": "uint256"
        },
        {
          "internalType": "bytes",
          "name": "_data",
          "type": "bytes"
        }
      ],
      "name": "onTokenTransfer",
      "outputs": [],
      "stateMutability": "nonpayable",
      "type": "function"
    }
  ],
  "bytecode": "0x608060405234801561001057600080fd5b506101a3806100206000396000f3fe608060405234801561001057600080fd5b506004361061002b5760003560e01c8063a4c0ed3614610030575b600080fd5b6100b56004803603606081101561004657600080fd5b6001600160a01b038235169160208101359181019060608101604082013564010000000081111561007657600080fd5b82018360208201111561008857600080fd5b803590602001918460018302840111640100000000831117156100aa57600080fd5b5090925090506100b7565b005b600080838360408110156100ca57600080fd5b508035925060200135905081610115576040805162461bcd60e51b815260206004820152600b60248201526a464f4f5f49535f5a45524f60a81b604482015290519081900360640190fd5b604080516001600160a01b0388168152602081018790528082018490526060810183905290517fd3d5fd0d9b2dafa6b4626aa68c0d89849157b1b320dd2180dfe3437d35d091a89181900360800190a150505050505056fea2646970667358221220eea6ceefe3cdf82c7bd2a13468300f8b95de739abd9a59b843be70962ab41aee64736f6c63430007060033",
  "linkReferences": {},
  "deployedLinkReferences": {}
}