{
  "_format": "hh-sol-artifact-1",
  "contractName": "LibExponential",
  "sourceName": "contracts/staking/libs/Exponential.sol",
  "abi": [
    {
      "inputs": [
        {
          "internalType": "uint256",
          "name": "fees",
          "type": "uint256"
        },
        {
          "internalType": "uint256",
          "name": "stake",
          "type": "uint256"
        },
        {
          "internalType": "uint32",
          "name": "alphaNumerator",
          "type": "uint32"
        },
        {
          "internalType": "uint32",
          "name": "alphaDenominator",
          "type": "uint32"
        },
        {
          "internalType": "uint32",
          "name": "lambdaNumerator",
          "type": "uint32"
        },
        {
          "internalType": "uint32",
          "name": "lambdaDenominator",
          "type": "uint32"
        }
      ],
      "name": "exponentialRebates",
      "outputs": [
        {
          "internalType": "uint256",
          "name": "",
          "type": "uint256"
        }
      ],
      "stateMutability": "pure",
      "type": "function"
    }
  ],
  "bytecode": "0x6108e3610026600b82828239805160001a60731461001957fe5b30600052607381538281f3fe73000000000000000000000000000000000000000030146080604052600436106100355760003560e01c806349484d811461003a575b600080fd5b610081600480360360c081101561005057600080fd5b5080359060208101359063ffffffff60408201358116916060810135821691608082013581169160a0013516610093565b60408051918252519081900360200190f35b6000806100a68660030b8660030b610148565b9050806100b6578791505061013e565b876100c557600091505061013e565b60006100d78560030b8560030b610148565b905060006100e6828a8c610168565b9050600f6100f38261017f565b13156101045789935050505061013e565b600061012b61011161018c565b6101268661012186600003610194565b610632565b610652565b9050610137818c6106aa565b9450505050505b9695505050505050565b600061016161015b846001607f1b61071d565b83610799565b9392505050565b600061017761015b858561071d565b949350505050565b6001607f1b81055b919050565b6001607f1b90565b6000701fefffffffffffffffffffffffffffffff198212156101b857506000610187565b816101c857506001607f1b610187565b600082131561020e576040805162461bcd60e51b815260206004820152600d60248201526c6f75742d6f662d626f756e647360981b604482015290519081900360640190fd5b6001607f1b6001607c1b83078080028290056710e1b3be415a0000810293909301929091818302059050806705a0913f6b1e000002830192506001607f1b8282028161025657fe5b05905080670168244fdac7800002830192506001607f1b8282028161027757fe5b05905080664807432bc1800002830192506001607f1b8282028161029757fe5b05905080660c0135dca0400002830192506001607f1b828202816102b757fe5b059050806601b707b1cdc00002830192506001607f1b828202816102d757fe5b059050806536e0f639b80002830192506001607f1b828202816102f657fe5b05905080650618fee9f80002830192506001607f1b8282028161031557fe5b05905080649c197dcc0002830192506001607f1b8282028161033357fe5b05905080640e30dce40002830192506001607f1b8282028161035157fe5b0590508064012ebd130002830192506001607f1b8282028161036f57fe5b059050806317499f0002830192506001607f1b8282028161038c57fe5b059050806301a9d48002830192506001607f1b828202816103a957fe5b05905080621c638002830192506001607f1b828202816103c557fe5b059050806201c63802830192506001607f1b828202816103e157fe5b05905080611ab802830192506001607f1b828202816103fc57fe5b0590508061017c02830192506001607f1b8282028161041757fe5b05905080601402830192506001607f1b8282028161043157fe5b600095909503946721c3677c82b400009190059384010582016001607f1b01929050600160841b841615610487577243cbaf42a000812488fc5c220ad7b97bf6e99e6cf1aaddd7742e56d32fb9f9974484020592505b600160831b8416156104bc577105d27a9f51c31b7c2f8038212a05747799916e0afe10820813d65dfe6a33c07f738f84020592505b600160821b8416156104f157701b4c902e273a58678d6d3bfdb93db96d026f02582ab704279e8efd15e0265855c47a84020592505b600160811b841615610526577003b1cc971a9bb5b9867477440d6d1577506f1152aaa3bf81cb9fdb76eae12d02957184020592505b600160801b84161561055b5770015bf0a8b1457695355fb8ac404e7a79e36f2f16ac6c59de6f8d5d6f63c1482a7c8684020592505b6001607f1b84161561058f576fd3094c70f034de4b96ff7d5b6f99fcd86f4da2cbf1be5827f9eb3ad1aa9866ebb384020592505b6001607e1b8416156105c3576fa45af1e1f40c333b3de1db4dd55f29a76f63afbe7ab2082ba1a0ae5e4eb1b479dc84020592505b6001607d1b8416156105f7576f910b022db7ae67ce76b441c27035c6a16f70f5a893b608861e1f58934f97aea57d84020592505b6001607c1b84161561062b576f88415abbe9a76bead8d00cf112e4d4a86f783eafef1c0a8f3978c7f81824d62ebf84020592505b5050919050565b60006001607f1b610643848461071d565b8161064a57fe5b059392505050565b6000600160ff1b82141561069d576040805162461bcd60e51b815260206004820152600d60248201526c6f75742d6f662d626f756e647360981b604482015290519081900360640190fd5b6101618383600003610832565b6000808212156106f1576040805162461bcd60e51b815260206004820152600d60248201526c6f75742d6f662d626f756e647360981b604482015290519081900360640190fd5b60006106fd848461071d565b905060008113610711576000915050610717565b607f1c90505b92915050565b600082158061072a575081155b1561073757506000610717565b508181028183828161074557fe5b0514158061075c57508282828161075857fe5b0514155b15610717576040805162461bcd60e51b81526020600482015260086024820152676f766572666c6f7760c01b604482015290519081900360640190fd5b6000816107d8576040805162461bcd60e51b81526020600482015260086024820152676f766572666c6f7760c01b604482015290519081900360640190fd5b600160ff1b831480156107ec575081600019145b15610829576040805162461bcd60e51b81526020600482015260086024820152676f766572666c6f7760c01b604482015290519081900360640190fd5b81838161064a57fe5b8181016000831280156108455750600082125b801561085057508281135b8061075c57506000831380156108665750600082135b801561075c575082811215610717576040805162461bcd60e51b81526020600482015260086024820152676f766572666c6f7760c01b604482015290519081900360640190fdfea2646970667358221220c5b7b5b8f172bc1a09df43e82d5141e05a815131f3ffc006e450b8ee008408c864736f6c63430007060033",
  "linkReferences": {},
  "deployedLinkReferences": {}
}