{
  "_format": "hh-sol-artifact-1",
  "contractName": "AllocationExchange",
  "sourceName": "contracts/payments/AllocationExchange.sol",
  "abi": [
    {
      "inputs": [
        {
          "internalType": "contract IGraphToken",
          "name": "_graphToken",
          "type": "address"
        },
        {
          "internalType": "contract IStaking",
          "name": "_staking",
          "type": "address"
        },
        {
          "internalType": "address",
          "name": "_governor",
          "type": "address"
        },
        {
          "internalType": "address",
          "name": "_authority",
          "type": "address"
        }
      ],
      "stateMutability": "nonpayable",
      "type": "constructor"
    },
    {
      "anonymous": false,
      "inputs": [
        {
          "indexed": true,
          "internalType": "address",
          "name": "allocationID",
          "type": "address"
        },
        {
          "indexed": false,
          "internalType": "uint256",
          "name": "amount",
          "type": "uint256"
        }
      ],
      "name": "AllocationRedeemed",
      "type": "event"
    },
    {
      "anonymous": false,
      "inputs": [
        {
          "indexed": true,
          "internalType": "address",
          "name": "account",
          "type": "address"
        },
        {
          "indexed": false,
          "internalType": "bool",
          "name": "authorized",
          "type": "bool"
        }
      ],
      "name": "AuthoritySet",
      "type": "event"
    },
    {
      "anonymous": false,
      "inputs": [
        {
          "indexed": true,
          "internalType": "address",
          "name": "from",
          "type": "address"
        },
        {
          "indexed": true,
          "internalType": "address",
          "name": "to",
          "type": "address"
        }
      ],
      "name": "NewOwnership",
      "type": "event"
    },
    {
      "anonymous": false,
      "inputs": [
        {
          "indexed": true,
          "internalType": "address",
          "name": "from",
          "type": "address"
        },
        {
          "indexed": true,
          "internalType": "address",
          "name": "to",
          "type": "address"
        }
      ],
      "name": "NewPendingOwnership",
      "type": "event"
    },
    {
      "anonymous": false,
      "inputs": [
        {
          "indexed": true,
          "internalType": "address",
          "name": "to",
          "type": "address"
        },
        {
          "indexed": false,
          "internalType": "uint256",
          "name": "amount",
          "type": "uint256"
        }
      ],
      "name": "TokensWithdrawn",
      "type": "event"
    },
    {
      "inputs": [],
      "name": "acceptOwnership",
      "outputs": [],
      "stateMutability": "nonpayable",
      "type": "function"
    },
    {
      "inputs": [
        {
          "internalType": "address",
          "name": "",
          "type": "address"
        }
      ],
      "name": "allocationsRedeemed",
      "outputs": [
        {
          "internalType": "bool",
          "name": "",
          "type": "bool"
        }
      ],
      "stateMutability": "view",
      "type": "function"
    },
    {
      "inputs": [],
      "name": "approveAll",
      "outputs": [],
      "stateMutability": "nonpayable",
      "type": "function"
    },
    {
      "inputs": [
        {
          "internalType": "address",
          "name": "",
          "type": "address"
        }
      ],
      "name": "authority",
      "outputs": [
        {
          "internalType": "bool",
          "name": "",
          "type": "bool"
        }
      ],
      "stateMutability": "view",
      "type": "function"
    },
    {
      "inputs": [],
      "name": "governor",
      "outputs": [
        {
          "internalType": "address",
          "name": "",
          "type": "address"
        }
      ],
      "stateMutability": "view",
      "type": "function"
    },
    {
      "inputs": [],
      "name": "pendingGovernor",
      "outputs": [
        {
          "internalType": "address",
          "name": "",
          "type": "address"
        }
      ],
      "stateMutability": "view",
      "type": "function"
    },
    {
      "inputs": [
        {
          "components": [
            {
              "internalType": "address",
              "name": "allocationID",
              "type": "address"
            },
            {
              "internalType": "uint256",
              "name": "amount",
              "type": "uint256"
            },
            {
              "internalType": "bytes",
              "name": "signature",
              "type": "bytes"
            }
          ],
          "internalType": "struct AllocationExchange.AllocationVoucher",
          "name": "_voucher",
          "type": "tuple"
        }
      ],
      "name": "redeem",
      "outputs": [],
      "stateMutability": "nonpayable",
      "type": "function"
    },
    {
      "inputs": [
        {
          "components": [
            {
              "internalType": "address",
              "name": "allocationID",
              "type": "address"
            },
            {
              "internalType": "uint256",
              "name": "amount",
              "type": "uint256"
            },
            {
              "internalType": "bytes",
              "name": "signature",
              "type": "bytes"
            }
          ],
          "internalType": "struct AllocationExchange.AllocationVoucher[]",
          "name": "_vouchers",
          "type": "tuple[]"
        }
      ],
      "name": "redeemMany",
      "outputs": [],
      "stateMutability": "nonpayable",
      "type": "function"
    },
    {
      "inputs": [
        {
          "internalType": "address",
          "name": "_authority",
          "type": "address"
        },
        {
          "internalType": "bool",
          "name": "_authorized",
          "type": "bool"
        }
      ],
      "name": "setAuthority",
      "outputs": [],
      "stateMutability": "nonpayable",
      "type": "function"
    },
    {
      "inputs": [
        {
          "internalType": "address",
          "name": "_newGovernor",
          "type": "address"
        }
      ],
      "name": "transferOwnership",
      "outputs": [],
      "stateMutability": "nonpayable",
      "type": "function"
    },
    {
      "inputs": [
        {
          "internalType": "address",
          "name": "_to",
          "type": "address"
        },
        {
          "internalType": "uint256",
          "name": "_amount",
          "type": "uint256"
        }
      ],
      "name": "withdraw",
      "outputs": [],
      "stateMutability": "nonpayable",
      "type": "function"
    }
  ],
  "bytecode": "0x60c06040523480156200001157600080fd5b50604051620013f7380380620013f7833981016040819052620000349162000196565b6001600160a01b038216620000665760405162461bcd60e51b81526004016200005d906200023f565b60405180910390fd5b6200007c82620000ad60201b620006d51760201c565b6001600160601b0319606085811b821660a05284901b16608052620000a3816001620000cf565b50505050620002c6565b600080546001600160a01b0319166001600160a01b0392909216919091179055565b6001600160a01b038216620000f85760405162461bcd60e51b81526004016200005d9062000276565b6200010e826200019060201b620006f71760201c565b156200012e5760405162461bcd60e51b81526004016200005d9062000208565b6001600160a01b03821660008181526002602052604090819020805460ff1916841515179055517f58ff942169d73f3abad652db95845088969180d650967f57f035bf5c5c9319de9062000184908490620001fd565b60405180910390a25050565b3b151590565b60008060008060808587031215620001ac578384fd5b8451620001b981620002ad565b6020860151909450620001cc81620002ad565b6040860151909350620001df81620002ad565b6060860151909250620001f281620002ad565b939692955090935050565b901515815260200190565b6020808252601f908201527f45786368616e67653a20617574686f72697479206d75737420626520454f4100604082015260600190565b6020808252601e908201527f45786368616e67653a20676f7665726e6f72206d757374206265207365740000604082015260600190565b60208082526019908201527f45786368616e67653a20656d70747920617574686f7269747900000000000000604082015260600190565b6001600160a01b0381168114620002c357600080fd5b50565b60805160601c60a05160601c6110fd620002fa600039806101b352806105eb5250806101e052806108e152506110fd6000f3fe608060405234801561001057600080fd5b50600436106100a95760003560e01c8063b5f0d35c11610071578063b5f0d35c14610111578063cd2b1af814610124578063dfc224b414610137578063e3056a341461014a578063f2fde38b14610152578063f3fef3a314610165576100a9565b80630c340a24146100ae578063185f182d146100cc578063380d0c08146100ec5780637104dd03146100f657806379ba509714610109575b600080fd5b6100b6610178565b6040516100c39190610e03565b60405180910390f35b6100df6100da366004610c71565b610187565b6040516100c39190610e30565b6100f461019c565b005b6100df610104366004610c71565b610261565b6100f4610276565b6100f461011f366004610c92565b610384565b6100f4610132366004610cf1565b6103ea565b6100f4610145366004610da6565b61041a565b6100b6610423565b6100f4610160366004610c71565b610432565b6100f4610173366004610cc8565b610530565b6000546001600160a01b031681565b60036020526000908152604090205460ff1681565b60405163095ea7b360e01b81526001600160a01b037f0000000000000000000000000000000000000000000000000000000000000000169063095ea7b39061020c907f00000000000000000000000000000000000000000000000000000000000000009060001990600401610e17565b602060405180830381600087803b15801561022657600080fd5b505af115801561023a573d6000803e3d6000fd5b505050506040513d601f19601f8201168201806040525081019061025e9190610d8a565b50565b60026020526000908152604090205460ff1681565b6001546001600160a01b031680158015906102995750336001600160a01b038216145b6102ea576040805162461bcd60e51b815260206004820152601f60248201527f43616c6c6572206d7573742062652070656e64696e6720676f7665726e6f7200604482015290519081900360640190fd5b600080546001600160a01b038381166001600160a01b031980841691909117808555600180549092169091556040519282169391169183917f0ac6deed30eef60090c749850e10f2fa469e3e25fec1d1bef2853003f6e6f18f91a36001546040516001600160a01b03918216918416907f76563ad561b7036ae716b9b25cb521b21463240f104c97e12f25877f2235f33d90600090a35050565b6000546001600160a01b031633146103dc576040805162461bcd60e51b815260206004820152601660248201527513db9b1e4811dbdd995c9b9bdc8818d85b8818d85b1b60521b604482015290519081900360640190fd5b6103e68282610701565b5050565b60005b81518110156103e65761041282828151811061040557fe5b60200260200101516107a1565b6001016103ed565b61025e816107a1565b6001546001600160a01b031681565b6000546001600160a01b0316331461048a576040805162461bcd60e51b815260206004820152601660248201527513db9b1e4811dbdd995c9b9bdc8818d85b8818d85b1b60521b604482015290519081900360640190fd5b6001600160a01b0381166104dc576040805162461bcd60e51b815260206004820152601460248201527311dbdd995c9b9bdc881b5d5cdd081899481cd95d60621b604482015290519081900360640190fd5b600180546001600160a01b038381166001600160a01b03198316179283905560405191811692169082907f76563ad561b7036ae716b9b25cb521b21463240f104c97e12f25877f2235f33d90600090a35050565b6000546001600160a01b03163314610588576040805162461bcd60e51b815260206004820152601660248201527513db9b1e4811dbdd995c9b9bdc8818d85b8818d85b1b60521b604482015290519081900360640190fd5b6001600160a01b0382166105b75760405162461bcd60e51b81526004016105ae90610e3b565b60405180910390fd5b806105d45760405162461bcd60e51b81526004016105ae90611001565b60405163a9059cbb60e01b81526001600160a01b037f0000000000000000000000000000000000000000000000000000000000000000169063a9059cbb906106229085908590600401610e17565b602060405180830381600087803b15801561063c57600080fd5b505af1158015610650573d6000803e3d6000fd5b505050506040513d601f19601f820116820180604052508101906106749190610d8a565b6106905760405162461bcd60e51b81526004016105ae90610eee565b816001600160a01b03167f6352c5382c4a4578e712449ca65e83cdb392d045dfcf1cad9615189db2da244b826040516106c99190611031565b60405180910390a25050565b600080546001600160a01b0319166001600160a01b0392909216919091179055565b803b15155b919050565b6001600160a01b0382166107275760405162461bcd60e51b81526004016105ae90610fca565b610730826106f7565b1561074d5760405162461bcd60e51b81526004016105ae90610e72565b6001600160a01b03821660008181526002602052604090819020805460ff1916841515179055517f58ff942169d73f3abad652db95845088969180d650967f57f035bf5c5c9319de906106c9908490610e30565b60008160200151116107c55760405162461bcd60e51b81526004016105ae90610f25565b6041816040015151146107ea5760405162461bcd60e51b81526004016105ae90610f93565b80516001600160a01b031660009081526003602052604090205460ff16156108245760405162461bcd60e51b81526004016105ae90610ea9565b600081600001518260200151604051602001610841929190610de1565b6040516020818303038152906040528051906020012090506000610869828460400151610997565b6001600160a01b03811660009081526002602052604090205490915060ff166108a45760405162461bcd60e51b81526004016105ae90610f5c565b82516001600160a01b03908116600090815260036020908152604091829020805460ff191660011790558501518551915163469e080560e11b81527f000000000000000000000000000000000000000000000000000000000000000090931692638d3c100a92610917929160040161103a565b600060405180830381600087803b15801561093157600080fd5b505af1158015610945573d6000803e3d6000fd5b5050505082600001516001600160a01b03167fe86f6a4e34293c4b00e73d2a8b6237e4ab10bb4849b1495a1a8b45d3a59d8118846020015160405161098a9190611031565b60405180910390a2505050565b600081516041146109ef576040805162461bcd60e51b815260206004820152601f60248201527f45434453413a20696e76616c6964207369676e6174757265206c656e67746800604482015290519081900360640190fd5b60208201516040830151606084015160001a610a0d86828585610a17565b9695505050505050565b60007f7fffffffffffffffffffffffffffffff5d576e7357a4501ddfe92f46681b20a0821115610a785760405162461bcd60e51b81526004018080602001828103825260228152602001806110846022913960400191505060405180910390fd5b8360ff16601b1480610a8d57508360ff16601c145b610ac85760405162461bcd60e51b81526004018080602001828103825260228152602001806110a66022913960400191505060405180910390fd5b600060018686868660405160008152602001604052604051808581526020018460ff1681526020018381526020018281526020019450505050506020604051602081039080840390855afa158015610b24573d6000803e3d6000fd5b5050604051601f1901519150506001600160a01b038116610b8c576040805162461bcd60e51b815260206004820152601860248201527f45434453413a20696e76616c6964207369676e61747572650000000000000000604482015290519081900360640190fd5b95945050505050565b80356001600160a01b03811681146106fc57600080fd5b600060608284031215610bbd578081fd5b6040516060810167ffffffffffffffff8282108183111715610bdb57fe5b81604052829350610beb85610b95565b8352602091508185013582840152604085013581811115610c0b57600080fd5b8501601f81018713610c1c57600080fd5b803582811115610c2857fe5b610c3a601f8201601f19168501611051565b92508083528784828401011115610c5057600080fd5b80848301858501376000848285010152505080604084015250505092915050565b600060208284031215610c82578081fd5b610c8b82610b95565b9392505050565b60008060408385031215610ca4578081fd5b610cad83610b95565b91506020830135610cbd81611075565b809150509250929050565b60008060408385031215610cda578182fd5b610ce383610b95565b946020939093013593505050565b60006020808385031215610d03578182fd5b823567ffffffffffffffff80821115610d1a578384fd5b818501915085601f830112610d2d578384fd5b813581811115610d3957fe5b610d468485830201611051565b8181528481019250838501865b83811015610d7c57610d6a8a888435890101610bac565b85529386019390860190600101610d53565b509098975050505050505050565b600060208284031215610d9b578081fd5b8151610c8b81611075565b600060208284031215610db7578081fd5b813567ffffffffffffffff811115610dcd578182fd5b610dd984828501610bac565b949350505050565b60609290921b6bffffffffffffffffffffffff19168252601482015260340190565b6001600160a01b0391909116815260200190565b6001600160a01b03929092168252602082015260400190565b901515815260200190565b6020808252601b908201527f45786368616e67653a20656d7074792064657374696e6174696f6e0000000000604082015260600190565b6020808252601f908201527f45786368616e67653a20617574686f72697479206d75737420626520454f4100604082015260600190565b60208082526025908201527f45786368616e67653a20616c6c6f636174696f6e20616c72656164792072656460408201526419595b595960da1b606082015260800190565b60208082526019908201527f45786368616e67653a2063616e6e6f74207472616e7366657200000000000000604082015260600190565b6020808252601d908201527f45786368616e67653a207a65726f20746f6b656e7320766f7563686572000000604082015260600190565b60208082526018908201527f45786368616e67653a20696e76616c6964207369676e65720000000000000000604082015260600190565b6020808252601b908201527f45786368616e67653a20696e76616c6964207369676e61747572650000000000604082015260600190565b60208082526019908201527f45786368616e67653a20656d70747920617574686f7269747900000000000000604082015260600190565b602080825260169082015275115e18da185b99d94e88195b5c1d1e48185b5bdd5b9d60521b604082015260600190565b90815260200190565b9182526001600160a01b0316602082015260400190565b60405181810167ffffffffffffffff8111828210171561106d57fe5b604052919050565b801515811461025e57600080fdfe45434453413a20696e76616c6964207369676e6174757265202773272076616c756545434453413a20696e76616c6964207369676e6174757265202776272076616c7565a2646970667358221220deff02a5fef72ca6aef79e586a17e4fab99a68d130d895f3ec9cdbc6eadfc6bc64736f6c63430007060033",
  "linkReferences": {},
  "deployedLinkReferences": {}
}